:020000040800F2
:1000000000000220F1510008695000086F500008FC
:10001000755000087B500008815000080000000067
:1000200000000000000000000000000087500008F1
:100030009550000800000000A3500008B1500008CF
:100040004152000841520008415200084152000844
:100050004152000841520008415200084152000834
:10006000415200084152000841520008BD500008AA
:10007000D150000841520008415200084152000886
:100080004152000841520008415200084152000804
:1000900041520008415200084152000841520008F4
:1000A00041520008415200084152000841520008E4
:1000B00041520008415200084152000841520008D4
:1000C00041520008415200084152000841520008C4
:1000D00041520008E5500008415200084152000812
:1000E00041520008415200084152000841520008A4
:1000F0004152000841520008415200084152000894
:100100004152000841520008415200084152000883
:100110004152000841520008415200084152000873
:100120004152000841520008415200084152000863
:100130004152000841520008415200084152000853
:100140004152000841520008415200084152000843
:100150004152000841520008415200084152000833
:100160004152000841520008415200084152000823
:100170004152000841520008415200084152000813
:100180004152000841520008415200084152000803
:10019000415200080000000041520008415200088E
:1001A00041520008415200084152000841520008E3
:1001B00041520008415200084152000841520008D3
:1001C00041520008415200084152000841520008C3
:0801D0004152000841520008F1
:1001E00010B5054C237833B9044B13B10448AFF371
:1001F00000800123237010BD780000200000000063
:100200009094000808B5034B1BB103490348AFF3B2
:10021000008008BD000000007C00002090940008D1
:1002200053B94AB9002908BF00281CBF4FF0FF315D
:100230004FF0FF3000F074B9ADF1080C6DE904CE59
:1002400000F006F8DDF804E0DDE9022304B07047B1
:100250002DE9F047089D04468E46002B4DD18A4279
:10026000944669D9B2FA82F252B101FA02F3C2F1AC
:10027000200120FA01F10CFA02FC41EA030E94403D
:100280004FEA1C48210CBEFBF8F61FFA8CF708FB5E
:1002900016E341EA034306FB07F199420AD91CEB36
:1002A000030306F1FF3080F01F81994240F21C8168
:1002B000023E63445B1AA4B2B3FBF8F008FB1033B0
:1002C00044EA034400FB07F7A7420AD91CEB0404E5
:1002D00000F1FF3380F00A81A74240F207816444B5
:1002E000023840EA0640E41B00261DB1D44000233A
:1002F000C5E900433146BDE8F0878B4209D9002D9E
:1003000000F0EF800026C5E9000130463146BDE827
:10031000F087B3FA83F6002E4AD18B4202D3824291
:1003200000F2F980841A61EB030301209E46002D40
:10033000E0D0C5E9004EDDE702B9FFDEB2FA82F295
:10034000002A40F09280A1EB0C014FEA1C471FFAF3
:100350008CFE0126200CB1FBF7F307FB131140EADA
:1003600001410EFB03F0884208D91CEB010103F1A7
:10037000FF3802D2884200F2CB804346091AA4B269
:10038000B1FBF7F007FB101144EA01440EFB00FE3D
:10039000A64508D91CEB040400F1FF3102D2A645A2
:1003A00000F2BB800846A4EB0E0440EA03409CE741
:1003B000C6F12007B34022FA07FC4CEA030C20FAEE
:1003C00007F401FA06F31C43F9404FEA1C4900FA0E
:1003D00006F3B1FBF9F8200C1FFA8CFE09FB18118B
:1003E00040EA014108FB0EF0884202FA06F20BD9FE
:1003F0001CEB010108F1FF3A80F08880884240F24E
:100400008580A8F102086144091AA4B2B1FBF9F091
:1004100009FB101144EA014100FB0EFE8E4508D98C
:100420001CEB010100F1FF346CD28E456AD9023811
:10043000614440EA0840A0FB0294A1EB0E01A142F6
:10044000C846A64656D353D05DB1B3EB080261EB64
:100450000E0101FA07F722FA06F3F1401F43C5E93E
:10046000007100263146BDE8F087C2F12003D84074
:100470000CFA02FC21FA03F3914001434FEA1C47B6
:100480001FFA8CFEB3FBF7F007FB10360B0C43EAA8
:10049000064300FB0EF69E4204FA02F408D91CEB58
:1004A000030300F1FF382FD29E422DD90238634456
:1004B0009B1B89B2B3FBF7F607FB163341EA0341F6
:1004C00006FB0EF38B4208D91CEB010106F1FF3845
:1004D00016D28B4214D9023E6144C91A46EA00463C
:1004E00038E72E46284605E70646E3E61846F8E6CE
:1004F0004B45A9D2B9EB020864EB0C0E0138A3E717
:100500004646EAE7204694E74046D1E7D0467BE7F7
:10051000023B614432E7304609E76444023842E76F
:10052000704700BF034613F8012B002AFBD1181AAD
:1005300001387047000000000000000000000000CB
:1005400001F0FF01102A2BDB10F0070F08D010F884
:10055000013B013A8B422DD010F0070F42B3F6D188
:10056000F0B441EA012141EA014122F007047FF0A1
:1005700000070023F0E80256083C85EA010586EAF8
:10058000010685FA47F5A3FA87F586FA47F6A5FA34
:1005900087F68EB9EED1F0BC01F0FF0102F0070240
:1005A00032B110F8013B013A83EA010313B1F8D1EB
:1005B0000020704701387047002D06BF35460338CC
:1005C000073815F0010F07D1013015F4807F02BF05
:1005D000013015F4C03F0130F0BC0138704700BF56
:1005E00080B400AF064BD3F88830054A43F470035B
:1005F000C2F8883000BFBD465DF8047B704700BF7D
:1006000000ED00E080B582B000AF78607B68002B21
:1006100001D1012354E07B685B7FDBB2002B05D165
:100620007B6800221A77786804F020FB7B6802223E
:100630005A777B681B79002B0CD17B681B68224A98
:100640005A617B681B689A687B681B6822F01802F5
:100650009A600CE07B6899687B68DB681A4678686A
:1006600000F034F80346002B01D0012328E07B681A
:100670005B79002B05D17B681B684FF0FF321A6154
:1006800004E07B681B687A6812691A617B681B68E2
:100690009B6823F060017B685A697B681B680A438A
:1006A0009A607B681B689B6823F080017B689A696D
:1006B0007B681B680A439A607B6801225A77002393
:1006C00018460837BD4680BDB71DC10480B487B049
:1006D00000AFF860B9607A600023FB751F233B61AF
:1006E000BB6803F00103002B02D10123FB7563E01B
:1006F00000BF3B695A1E3A61002B09D03B6903F0E9
:100700001F03BA6822FA03F303F00103002BF0D0B1
:100710007B68182B46D801A252F823F0AB070008DB
:10072000A5070008A5070008A5070008A5070008F9
:10073000A5070008A5070008A507000899070008F5
:10074000A5070008A5070008A5070008A5070008D9
:10075000A5070008A5070008A50700088D070008E1
:10076000A5070008A5070008A5070008A5070008B9
:10077000A5070008A5070008A507000881070008CD
:100780003B69062B13D90123FB7510E03B69072B4E
:100790000FD90123FB750CE03B690F2B0BD901230B
:1007A000FB7508E00123FB7506E000BF04E000BF15
:1007B00002E000BF00E000BFFB7D002B0DD1FB6815
:1007C0001B68BA685A61FB681B689B6823F01801B4
:1007D000FB681B687A680A439A60FB7D18461C37E1
:1007E000BD465DF8047B704780B582B000AF002342
:1007F000FB71032001F068FE0F2000F00DF80346A6
:10080000002B02D00123FB7101E004F075FCFB79A1
:1008100018460837BD4680BD80B584B000AF78600B
:100820000023FB73164B1B68002B22D0154B1A6854
:10083000134B1B684FF47A71B1FBF3F3B2FBF3F384
:10084000184601F074FE0346002B0FD17B680F2B76
:1008500009D8002279684FF0FF3001F040FE0A4AC3
:100860007B68136007E00123FB7304E00123FB7343
:1008700001E00123FB73FB7B18461037BD4680BDAA
:100880000C000020040000200800002080B400AF0D
:10089000054B1A68054B1B681344034A136000BFDD
:1008A000BD465DF8047B7047940000200C000020DA
:1008B00080B400AF034B1B681846BD465DF8047B4F
:1008C000704700BF9400002080B588B000AF78600A
:1008D0007B68002B01D10123FEE27B681B6803F0DB
:1008E0000103002B75D0974B9B6803F00C03BB6191
:1008F000944BDB6803F003037B61BB690C2B02D1D3
:100900007B69032B02D0BB69082B0BD18D4B1B6875
:1009100003F40033002B5BD07B685B68002B57D15E
:100920000123D9E27B685B68B3F5803F06D1854B34
:100930001B68844A43F4803313601DE07B685B6866
:10094000B3F5A02F0CD17F4B1B687E4A43F4802364
:1009500013607C4B1B687B4A43F4803313600BE0CD
:10096000784B1B68774A23F480331360754B1B6800
:10097000744A23F4802313607B685B68002B13D0D8
:10098000FFF796FF386108E0FFF792FF02463B69E8
:10099000D31A642B01D903239EE26A4B1B6803F42C
:1009A0000033002BF0D014E0FFF782FF386108E03D
:1009B000FFF77EFF02463B69D31A642B01D903235C
:1009C0008AE2604B1B6803F40033002BF0D100E097
:1009D00000BF7B681B6803F00203002B75D0594BE6
:1009E0009B6803F00C03BB61564BDB6803F0030309
:1009F0007B61BB690C2B02D17B69022B02D0BB69E6
:100A0000042B1FD14F4B1B6803F48063002B05D0D0
:100A10007B68DB68002B01D101235DE2494B5B68F9
:100A200023F0FE427B681B691B06464913434B605B
:100A3000454B1B681846FFF7EFFE0346002B43D0DB
:100A4000012349E27B68DB68002B23D03D4B1B6808
:100A50003C4A43F480731360FFF72AFF386108E0D3
:100A6000FFF726FF02463B69D31A022B01D9032365
:100A700032E2344B1B6803F48063002BF0D0314B1F
:100A80005B6823F0FE427B681B691B062D491343FC
:100A90004B601AE02B4B1B682A4A23F480731360C7
:100AA000FFF706FF386108E0FFF702FF02463B69E7
:100AB000D31A022B01D903230EE2224B1B6803F445
:100AC0008063002BF0D100E000BF7B681B6803F05F
:100AD0000803002B41D07B685B69002B1CD0194BAD
:100AE000D3F89430174A43F00103C2F89430FFF76B
:100AF000DFFE386108E0FFF7DBFE02463B69D31AF0
:100B0000022B01D90323E7E10E4BD3F8943003F015
:100B10000203002BEFD020E00A4BD3F89430094AAF
:100B200023F00103C2F89430FFF7C2FE38610DE0F4
:100B3000FFF7BEFE02463B69D31A022B06D90323F8
:100B4000CAE100BF00100240080000208C4BD3F81F
:100B5000943003F00203002BEAD17B681B6803F09A
:100B60000403002B00F0A6800023FB77844B9B6DD1
:100B700003F08053002B01D1012300E00023002B60
:100B80000DD07F4B9B6D7E4A43F0805393657C4B29
:100B90009B6D03F08053FB60FB680123FB77794B6F
:100BA0001B6803F48073002B18D1764B1B68754AC1
:100BB00043F480731360FFF77BFE386108E0FFF7B2
:100BC00077FE02463B69D31A022B01D9032383E146
:100BD0006C4B1B6803F48073002BF0D07B689B6820
:100BE000012B08D1664BD3F89030654A43F00103DE
:100BF000C2F8903024E07B689B68052B10D1604BD5
:100C0000D3F890305E4A43F00403C2F890305C4B56
:100C1000D3F890305A4A43F00103C2F890300FE005
:100C2000574BD3F89030564A23F00103C2F8903066
:100C3000534BD3F89030524A23F00403C2F890305B
:100C40007B689B68002B16D0FFF732FE38610AE004
:100C5000FFF72EFE02463B69D31A41F288329342D7
:100C600001D9032338E1464BD3F8903003F0020357
:100C7000002BEDD015E0FFF71BFE38610AE0FFF70F
:100C800017FE02463B69D31A41F28832934201D9DA
:100C9000032321E13A4BD3F8903003F00203002BF9
:100CA000EDD1FB7F012B05D1354B9B6D344A23F0F1
:100CB000805393657B681B6803F02003002B3CD0B6
:100CC0007B689B69002B1CD02D4BD3F898302C4AA5
:100CD00043F00103C2F89830FFF7EAFD386108E0FD
:100CE000FFF7E6FD02463B69D31A022B01D9032325
:100CF000F2E0234BD3F8983003F00203002BEFD03F
:100D00001BE01F4BD3F898301D4A23F00103C2F8B3
:100D10009830FFF7CDFD386108E0FFF7C9FD0246C6
:100D20003B69D31A022B01D90323D5E0144BD3F826
:100D3000983003F00203002BEFD17B68DB69002BB6
:100D400000F0C9800E4B9B6803F00C030C2B00F0E5
:100D500083807B68DB69022B5ED1094B1B68084AE4
:100D600023F080731360FFF7A3FD38610CE0FFF7F9
:100D70009FFD02463B69D31A022B05D90323ABE042
:100D80000010024000700040554B1B6803F00073D8
:100D9000002BECD1524BDA68524B13407A68116A3F
:100DA0007A68526A013A120111437A68926A120211
:100DB00011437A68126B5208013A520511437A685E
:100DC000526B5208013A520611437A68D26AD2062F
:100DD0000A4343491343CB60414B1B68404A43F0ED
:100DE000807313603E4BDB683D4A43F08073D360F1
:100DF000FFF75EFD386108E0FFF75AFD02463B69E8
:100E0000D31A022B01D9032366E0354B1B6803F08C
:100E10000073002BF0D05EE0314B1B68304A23F0AA
:100E200080731360FFF744FD386108E0FFF740FD71
:100E300002463B69D31A022B01D903234CE0284B0D
:100E40001B6803F00073002BF0D1254BDA682449AE
:100E5000254B1340CB603EE07B68DB69012B01D161
:100E6000012339E01E4BDB687B617B6903F00302E1
:100E70007B681B6A9A422CD17B6903F0F0027B6885
:100E80005B6A013B1B019A4223D17B6903F4FE425A
:100E90007B689B6A1B029A421BD17B6903F07842F4
:100EA0007B68DB6ADB069A4213D17B6903F4C002DC
:100EB0007B681B6B5B08013B5B059A4209D17B6930
:100EC00003F0C0627B685B6B5B08013B5B069A4288
:100ED00001D0012300E0002318462037BD4680BD25
:100EE000001002400C809F01FCFFEEFE80B586B032
:100EF00000AF7860396000237B617B68002B01D1F3
:100F000001231EE1914B1B6803F00F033A689A42DC
:100F100010D98E4B1B6823F00F028C493B6813439A
:100F20000B608A4B1B6803F00F033A689A4201D0AA
:100F3000012306E17B681B6803F00103002B73D0DB
:100F40007B685B68032B29D1814B1B6803F000731E
:100F5000002B01D10123F4E000F09EF938613B69D8
:100F60007C4A93423FD97A4B9B6803F0F003002BF5
:100F700009D07B681B6803F00203002B33D07B6829
:100F80009B68002B2FD1724B9B6823F0F003704AB3
:100F900043F08003936080237B6124E07B685B687F
:100FA000022B07D16A4B1B6803F40033002B09D1D5
:100FB0000123C6E0664B1B6803F48063002B01D15C
:100FC0000123BEE000F0CEF838613B69614A9342EC
:100FD00009D95F4B9B6823F0F0035D4A43F080031F
:100FE000936080237B615A4B9B6823F003027B68EC
:100FF0005B68574913438B60FFF75AFCF8600AE0BF
:10100000FFF756FC0246FB68D31A41F2883293423E
:1010100001D9032395E04E4B9B6803F00C027B68DB
:101020005B689B009A42EBD17B681B6803F002036C
:10103000002B23D07B681B6803F00403002B05D032
:10104000434B9B68424A43F4E06393607B681B68B0
:1010500003F00803002B07D03D4B9B6823F47C531F
:101060003B4A43F4E0639360394B9B6823F0F00202
:101070007B689B68364913438B6008E07B69802B53
:1010800005D1334B9B68324A23F0F00393602F4B1A
:101090001B6803F00F033A689A421DD22B4B1B6862
:1010A00023F00F0229493B6813430B60FFF700FC54
:1010B000F8600AE0FFF7FCFB0246FB68D31A41F236
:1010C0008832934201D903233BE0204B1B6803F095
:1010D0000F033A689A42EDD17B681B6803F0040362
:1010E000002B08D01A4B9B6823F4E0627B68DB6816
:1010F000174913438B607B681B6803F00803002BC0
:1011000009D0134B9B6823F460527B681B69DB009A
:101110000F4913438B6000F025F802460C4B9B6887
:101120001B0903F00F030C49CB5C03F01F0322FAE9
:1011300003F30A4A13600A4B1B681846FFF76CFB5F
:10114000034618461837BD4680BD00BF0020024048
:101150000010024000B4C4043097000804000020CE
:101160000800002080B487B000AF2C4B9B6803F0D0
:101170000C03042B02D12A4B3B6147E0274B9B68B1
:1011800003F00C03082B02D1264B3B613EE0234BBE
:101190009B6803F00C030C2B36D1204BDB6803F06B
:1011A0000303FB601D4BDB681B0903F00F030133D6
:1011B000BB60FB68032B0CD11A4ABB68B2FBF3F38C
:1011C000164AD268120A02F07F0202FB03F37B6127
:1011D0000CE0134ABB68B2FBF3F3104AD268120A60
:1011E00002F07F0202FB03F37B6100BF0B4BDB6865
:1011F0005B0E03F0030301335B007B607A697B685D
:10120000B2FBF3F33B6101E000233B613B6918460D
:101210001C37BD465DF8047B704700BF00100240DC
:101220000024F40000127A0080B400AF034B1B6866
:101230001846BD465DF8047B704700BF04000020DF
:1012400080B500AFFFF7F0FF0246064B9B681B0A14
:1012500003F007030449CB5C03F01F0322FA03F3F6
:10126000184680BD001002404097000880B500AFCE
:10127000FFF7DAFF0246064B9B68DB0A03F0070321
:101280000449CB5C03F01F0322FA03F3184680BD28
:10129000001002404097000880B487B000AF1E4B9A
:1012A000DB6803F003033B611B4BDB681B0903F0A6
:1012B0000F030133FB603B69032B0CD1174AFB681A
:1012C000B2FBF3F3144AD268120A02F07F0202FB67
:1012D00003F37B610CE0124AFB68B2FBF3F30E4AA6
:1012E000D268120A02F07F0202FB03F37B6100BFA7
:1012F000094BDB685B0E03F0030301335B00BB604B
:101300007A69BB68B2FBF3F37B607B6818461C37D5
:10131000BD465DF8047B70470010024000127A0061
:101320000024F40080B586B000AF78600023FB7421
:101330000023BB747B681B6803F40023002B00F0C0
:10134000988000237B74434B9B6D03F08053002BEC
:101350000DD1404B9B6D3F4A43F0805393653D4B0D
:101360009B6D03F08053BB60BB6801237B743A4BD9
:101370001B68394A43F480731360FFF799FAF860E9
:1013800009E0FFF795FA0246FB68D31A022B02D94F
:101390000323FB7405E0304B1B6803F48073002BC0
:1013A000EFD0FB7C002B59D12A4BD3F8903003F4BB
:1013B00040737B617B69002B1ED07B681B6D7A6953
:1013C0009A4219D0234BD3F8903023F440737B61B9
:1013D000204BD3F890301F4A43F48033C2F890304A
:1013E0001C4BD3F890301B4A23F48033C2F8903062
:1013F000184A7B69C2F890307B6903F00103002B27
:1014000016D0FFF755FAF8600BE0FFF751FA0246E5
:10141000FB68D31A41F28832934202D90323FB744A
:1014200006E00C4BD3F8903003F00203002BECD015
:10143000FB7C002B0BD1074BD3F8903023F4407288
:101440007B681B6D03491343C1F8903008E0FB7CB7
:10145000BB7405E00010024000700040FB7CBB74D0
:101460007B7C012B05D1A74B9B6DA64A23F08053B3
:1014700093657B681B6803F00103002B0AD0A14B26
:10148000D3F8883023F003027B685B689D491343DF
:10149000C1F888307B681B6803F00203002B0AD078
:1014A000984BD3F8883023F00C027B689B689549F1
:1014B0001343C1F888307B681B6803F00403002BDA
:1014C0000AD0904BD3F8883023F030027B68DB6879
:1014D0008C491343C1F888307B681B6803F008030C
:1014E000002B0AD0874BD3F8883023F0C0027B68EA
:1014F0001B6984491343C1F888307B681B6803F07B
:101500001003002B0AD07F4BD3F8883023F44072AD
:101510007B685B697B491343C1F888307B681B6833
:1015200003F02003002B0AD0764BD3F8883023F445
:1015300040627B689B6973491343C1F888307B68BC
:101540001B6803F04003002B0AD06E4BD3F88830A1
:1015500023F440527B68DB696A491343C1F8883041
:101560007B681B6803F08003002B0AD0654BD3F81F
:10157000883023F440427B681B6A62491343C1F8F8
:1015800088307B681B6803F48073002B0AD05D4BA6
:10159000D3F8883023F440327B685B6A594913439F
:1015A000C1F888307B681B6803F40033002B0AD035
:1015B000544BD3F89C3023F003027B689B6A51495B
:1015C0001343C1F89C307B681B6803F40073002B45
:1015D0000AD04C4BD3F8883023F440227B68DB6A76
:1015E00048491343C1F888307B681B6803F4806363
:1015F000002B15D0434BD3F8883023F440127B687E
:101600001B6B40491343C1F888307B681B6BB3F5F3
:10161000801F05D13B4BDB683A4A43F48013D3600B
:101620007B681B6803F40063002B15D0354BD3F89F
:10163000883023F440027B685B6B32491343C1F866
:1016400088307B685B6BB3F5800F05D12D4BDB6871
:101650002C4A43F48013D3607B681B6803F48053E7
:10166000002B15D0274BD3F8883023F040727B68CD
:101670009B6B24491343C1F888307B689B6BB3F1A3
:10168000807F05D11F4BDB681E4A43F48013D36073
:101690007B681B6803F40053002B15D0194BD3F85B
:1016A000883023F040627B68DB6B16491343C1F836
:1016B00088307B68DB6BB3F1006F05D1114BDB68C1
:1016C000104A43F48013D3607B681B6803F48043A3
:1016D000002B19D00B4BD3F8883023F040627B6885
:1016E0001B6C08491343C1F888307B681B6CB3F14D
:1016F000006F09D1034BDB68024A43F48013D360C7
:1017000002E000BF001002407B681B6803F4004346
:10171000002B15D0294BD3F8883023F040527B683A
:101720005B6C26491343C1F888307B685B6CB3F16E
:10173000805F05D1214BDB68204A43F48033D360BE
:101740007B681B6803F48033002B15D01B4BD3F848
:10175000883023F040427B689B6C18491343C1F8E2
:1017600088307B689B6CB3F1804F05D1134BDB68ED
:10177000124A43F48033D3607B681B6803F48023F0
:10178000002B15D00D4BD3F89C3023F440127B680E
:10179000DB6C0A491343C1F89C307B68DB6CB3F502
:1017A000001F05D1054BDB68044A43F48013D36066
:1017B000BB7C18461837BD4680BD00BF00100240F4
:1017C00080B487B000AF7860396000237B6164E14A
:1017D0003B681A6801217B6901FA03F31340FB603F
:1017E000FB68002B00F056813B685B6803F0030345
:1017F000012B05D03B685B6803F00303022B30D15B
:101800007B689B683B617B695B00032202FA03F300
:10181000DB433A6913403B613B68DA687B695B00F4
:1018200002FA03F33A6913433B617B683A699A60B1
:101830007B685B683B6101227B6902FA03F3DB434F
:101840003A6913403B613B685B681B0903F0010286
:101850007B6902FA03F33A6913433B617B683A6997
:101860005A603B685B6803F00303032B09D13B68B4
:101870005B6803F00303032B1BD13B689B68012BC0
:1018800017D07B68DB683B617B695B00032202FA4F
:1018900003F3DB433A6913403B613B689A687B6919
:1018A0005B0002FA03F33A6913433B617B683A69D0
:1018B000DA603B685B6803F00303022B23D17B698A
:1018C000DA087B68083253F822303B617B6903F009
:1018D00007039B000F2202FA03F3DB433A6913402C
:1018E0003B613B681A697B6903F007039B0002FABE
:1018F00003F33A6913433B617B69DA087B6808327A
:10190000396943F822107B681B683B617B695B0087
:10191000032202FA03F3DB433A6913403B613B685D
:101920005B6803F003027B695B0002FA03F33A6928
:1019300013433B617B683A691A603B685B6803F458
:101940004033002B00F0A6805B4B1B6E5A4A43F0DD
:1019500001031366584B1B6E03F00103BB60BB68A9
:10196000564A7B699B08023352F823303B617B69FE
:1019700003F003039B000F2202FA03F3DB433A69EF
:1019800013403B617B68B3F1904F1FD07B684C4A9A
:10199000934219D07B684B4A934213D07B684A4AE2
:1019A00093420DD07B68494A934207D07B68484AEE
:1019B000934201D105230AE0062308E0042306E050
:1019C000032304E0022302E0012300E000237A69FC
:1019D00002F00302920093403A6913433B61374996
:1019E0007B699B0802333A6941F82320394B9B6895
:1019F0003B61FB68DB433A6913403B613B685B68D2
:101A000003F48013002B03D03A69FB6813433B6156
:101A1000304A3B6993602F4BDB683B61FB68DB43DB
:101A20003A6913403B613B685B6803F40013002B89
:101A300003D03A69FB6813433B61264A3B69D36094
:101A4000244B5B683B61FB68DB433A6913403B61B5
:101A50003B685B6803F40033002B03D03A69FB68F2
:101A600013433B611B4A3B6953601A4B1B683B6144
:101A7000FB68DB433A6913403B613B685B6803F4F6
:101A80008033002B03D03A69FB6813433B61114A52
:101A90003B6913607B6901337B613B681A687B6932
:101AA00022FA03F3002B7FF493AE00BF00BF1C3774
:101AB000BD465DF8047B7047001002400000014005
:101AC0000004004800080048000C004800100048CE
:101AD000001400480004014080B485B000AF786075
:101AE0000B467B807B681A697B881340002B02D0F1
:101AF0000123FB7301E00023FB73FB7B18461437C3
:101B0000BD465DF8047B704780B483B000AF786059
:101B10000B467B8013467B707B78002B03D07A8842
:101B20007B689A6102E07A887B689A6200BF0C3712
:101B3000BD465DF8047B704780B584B000AF786027
:101B40007B68002B01D101238EE07B681B681A465D
:101B5000474B9A420FD87B681B681A46454B134483
:101B6000454AA2FB03231B099A007B685A647B68E1
:101B7000424A1A640EE07B681B681A46404B1344C5
:101B80003D4AA2FB03231B099A007B685A647B68C9
:101B90003C4A1A647B68022283F825207B681B6814
:101BA0001B68FB60FB6823F4FF4323F07003FB60BA
:101BB0007B689A687B68DB681A437B681B691A43F9
:101BC0007B685B691A437B689B691A437B68DB69A6
:101BD0001A437B681B6A1343FA681343FB607B68F4
:101BE0001B68FA681A60786800F07CFA7B689B686A
:101BF000B3F5804F02D17B6800225A607B685A6837
:101C00007B689B6C02F07F021A607B68DB6C7A68F1
:101C1000126D5A607B685B68002B10D07B685B6834
:101C2000042B0CD8786800F0A5FA7B685B6D002265
:101C30001A607B689B6D7A68D26D5A6008E07B6899
:101C400000225A657B6800229A657B680022DA656B
:101C50007B680022DA637B68012283F825207B6899
:101C6000002283F82420002318461037BD4680BD8B
:101C700007040240F8FFFDBFCDCCCCCC00000240F1
:101C8000F8FBFDBF0004024080B586B000AFF860ED
:101C9000B9607A603B600023FB75FB6893F82430E1
:101CA000012B01D1022366E0FB68012283F8242086
:101CB000FB6893F82530DBB2012B55D1FB6802227B
:101CC00083F82520FB680022DA63FB681B681A682A
:101CD000FB681B6822F001021A603B687A68B968E9
:101CE000F86800F0C0F9FB681B6B002B08D0FB689C
:101CF0001B681A68FB681B6842F00E021A600FE04E
:101D0000FB681B681A68FB681B6822F004021A60F3
:101D1000FB681B681A68FB681B6842F00A021A60BD
:101D2000FB689B6C1B6803F48033002B07D0FB68B7
:101D30009B6C1A68FB689B6C42F480721A60FB68AB
:101D40005B6D002B07D0FB685B6D1A68FB685B6DF1
:101D500042F480721A60FB681B681A68FB681B6893
:101D600042F001021A6005E0FB68002283F824209B
:101D70000223FB75FB7D18461837BD4680BD80B435
:101D800085B000AF78600023FB737B68002B01D126
:101D900001234CE07B6893F82530DBB2022B05D0A1
:101DA0007B680422DA630123FB7337E07B681B68DE
:101DB0001A687B681B6822F001021A607B681B6846
:101DC0001A687B681B6822F00E021A607B689B6CA5
:101DD0001A687B689B6C22F480721A607B685B6C6B
:101DE00003F01F027B681B6C012101FA02F25A60AA
:101DF0007B68DB6C7A68126D5A607B685B6D002BC8
:101E00000CD07B685B6D1A687B685B6D22F4807216
:101E10001A607B689B6D7A68D26D5A607B6801227C
:101E200083F825207B68002283F82420FB7B18465A
:101E30001437BD465DF8047B704780B584B000AFB1
:101E400078600023FB737B6893F82530DBB2022BAC
:101E50000DD07B680422DA637B68012283F8252099
:101E60007B68002283F824200123FB7347E07B6812
:101E70001B681A687B681B6822F001021A607B6885
:101E80001B681A687B681B6822F00E021A607B6868
:101E90009B6C1A687B689B6C22F480721A607B686A
:101EA0005B6C03F01F027B681B6C012101FA02F2DC
:101EB0005A607B68DB6C7A68126D5A607B685B6D78
:101EC000002B0CD07B685B6D1A687B685B6D22F41D
:101ED00080721A607B689B6D7A68D26D5A607B68ED
:101EE000012283F825207B68002283F824207B6868
:101EF0009B6B002B03D07B689B6B78689847FB7BC0
:101F000018461037BD4680BD80B584B000AF7860FC
:101F10007B681B6C1B68FB607B681B681B68BB6075
:101F20007B685B6C03F01F0304229A40FB6813403C
:101F3000002B26D0BB6803F00403002B21D07B6864
:101F40001B681B6803F02003002B07D17B681B680C
:101F50001A687B681B6822F004021A607B685B6C5D
:101F600003F01F027B681B6C042101FA02F25A6025
:101F70007B681B6B002B71D07B681B6B7868984764
:101F80006CE07B685B6C03F01F0302229A40FB68E5
:101F90001340002B2ED0BB6803F00203002B29D086
:101FA0007B681B681B6803F02003002B0BD17B6848
:101FB0001B681A687B681B6822F00A021A607B683B
:101FC000012283F825207B685B6C03F01F027B688D
:101FD0001B6C022101FA02F25A607B68002283F82E
:101FE00024207B68DB6A002B38D07B68DB6A78684A
:101FF000984733E07B685B6C03F01F0308229A402C
:10200000FB681340002B2AD0BB6803F00803002BA9
:1020100025D07B681B681A687B681B6822F00E025B
:102020001A607B685B6C03F01F027B681B6C0121EC
:1020300001FA02F25A607B680122DA637B680122AE
:1020400083F825207B68002283F824207B685B6B63
:10205000002B04D07B685B6B7868984700BF00BF9B
:102060001037BD4680BD80B485B000AFF860B96060
:102070007A603B60FB68DB6CFA68126D5A60FB6843
:102080005B6D002B04D0FB689B6DFA68D26D5A60C3
:10209000FB685B6C03F01F02FB681B6C012101FAFB
:1020A00002F25A60FB681B683A685A60FB689B68DA
:1020B000102B08D1FB681B687A689A60FB681B6864
:1020C000BA68DA6007E0FB681B68BA689A60FB6868
:1020D0001B687A68DA6000BF1437BD465DF8047B80
:1020E0007047000080B487B000AF78607B681B68E1
:1020F0001A461B4B9A420BD81A4B3B617B681B68F4
:10210000DBB2083B184AA2FB03231B097B610BE0EF
:10211000164B3B617B681B68DBB2083B124AA2FB93
:1021200003231B0908337B613B69FB607B685B6CA5
:102130009B089A00FB6813441A467B689A647B6884
:102140000B4ADA647B6903F01F0301229A407B6823
:102150001A6500BF1C37BD465DF8047B704700BFA1
:102160000704024000080240CDCCCCCC200802403D
:102170008008024080B485B000AF78607B685B68FF
:1021800003F07F03FB60FA680B4B13449B001A4675
:102190007B685A657B68094A9A65FB68013B03F0D6
:1021A0001F0301229A407B68DA6500BF1437BD46E1
:1021B0005DF8047B704700BF3F8200104009024079
:1021C00080B485B000AF78607B68002B41D14B4B69
:1021D0001B6803F4C063B3F5806F31D1474BD3F86C
:1021E0008030464A23F48073C2F88030434B1B682A
:1021F00023F4C063414A43F400731360404B1B68EF
:10220000322202FB03F33F4AA2FB03239B0C013360
:10221000FB6002E0FB68013BFB60384B5B6903F449
:102220008063B3F5806F02D1FB68002BF2D1334B92
:102230005B6903F48063B3F5806F58D1032357E0E3
:102240002E4BD3F880302D4A23F48073C2F88030AF
:102250004DE07B68B3F5007F41D1284B1B6803F448
:10226000C063B3F5806F31D1244BD3F88030234A5B
:1022700043F48073C2F88030204B1B6823F4C063A2
:102280001E4A43F4007313601D4B1B68322202FB8D
:1022900003F31C4AA2FB03239B0C0133FB6002E007
:1022A000FB68013BFB60154B5B6903F48063B3F58E
:1022B000806F02D1FB68002BF2D1104B5B6903F4F5
:1022C0008063B3F5806F12D1032311E00B4BD3F879
:1022D00080300A4A43F48073C2F8803007E0074B2D
:1022E0001B6823F4C063054A43F480631360002332
:1022F00018461437BD465DF8047B704700700040F7
:102300000400002083DE1B4380B400AF054B9B68B4
:10231000044A43F48043936000BFBD465DF8047BEC
:10232000704700BF0070004080B485B000AF786097
:102330007B6803F00703FB600C4BDB68BB60BA688B
:102340004FF6FF031340BB60FB681A02BB681343E0
:1023500043F0BF6343F40033BB60044ABB68D360FF
:1023600000BF1437BD465DF8047B704700ED00E008
:1023700080B400AF044BDB681B0A03F00703184668
:10238000BD465DF8047B704700ED00E080B483B08B
:1023900000AF0346FB7197F90730002B0BDBFB798D
:1023A00003F01F02074997F907305B09012000FA83
:1023B00002F241F8232000BF0C37BD465DF8047BD4
:1023C000704700BF00E100E080B483B000AF034677
:1023D0003960FB7197F90730002B0ADB3B68DAB2F2
:1023E0000C4997F907301201D2B20B4483F800234D
:1023F0000AE03B68DAB20849FB7903F00F03043BBB
:102400001201D2B20B441A7600BF0C37BD465DF8FC
:10241000047B704700E100E000ED00E080B489B08B
:1024200000AFF860B9607A60FB6803F00703FB61F6
:10243000FB69C3F10703042B28BF0423BB61FB69BD
:102440000433062B02D9FB69033B00E000237B61C8
:102450004FF0FF32BB6902FA03F3DA43BB681A405C
:102460007B699A404FF0FF317B6901FA03F3D9434E
:102470007B680B40134318462437BD465DF8047B48
:102480007047000080B582B000AF78607B68013B88
:10249000B3F1807F01D301230FE00A4A7B68013B3F
:1024A00053600F214FF0FF30FFF78EFF054B0022E6
:1024B0009A60044B07221A60002318460837BD466D
:1024C00080BD00BF10E000E080B582B000AF786052
:1024D0007868FFF729FF00BF0837BD4680BD80B58B
:1024E00086B000AF0346B9607A60FB73FFF740FF28
:1024F00078617A68B9687869FFF790FF024697F9C2
:102500000F3011461846FFF75FFF00BF1837BD4672
:1025100080BD80B582B000AF0346FB7197F90730EC
:102520001846FFF733FF00BF0837BD4680BD80B5B2
:1025300082B000AF78607868FFF7A4FF03461846C2
:102540000837BD4680BD000080B584B000AF78601C
:102550000023FB737B68002B01D10123BBE07B6868
:1025600093F83A30DBB2052B01D10123B3E07B684D
:1025700093F83A30DBB2022B01D10123ABE0584B88
:102580001B6E574A43F001031366554B1B6E03F055
:102590000103BB60BB687B6893F83A30DBB2002B69
:1025A00003D17B68002283F83920786802F000FCB0
:1025B0007B689B68402B03D07B689B68602B33D182
:1025C0007B681B681B6823F010017B68DA6A7B68F4
:1025D0001B680A431A607B681B681A68414B1340EA
:1025E0007A6851687A68926811437A6812690A4376
:1025F0007968097D012902D14FF4807100E0002142
:1026000011437A68526A11437A68926A11437A6870
:10261000126BD20411437A68526B120611437A6826
:1026200012680B43136035E07B681B681B6823F05E
:1026300010017B68DA6A7B681B680A431A607B6852
:102640001B681A68274B13407A6851687A68926849
:1026500011437A68D26811437A6812690A4379682B
:10266000097D012902D14FF4807100E0002111435E
:102670007A68526A11437A68926A11437A68126BD7
:10268000D20411437A68526B120611437A681268B9
:102690000B4313607B681B689B69002B10DB7B6816
:1026A0001B689B6923F03F017B689A697B68DB6943
:1026B0001A437B681B6A1A437B681B680A439A614A
:1026C0007B6893F83A30DBB2002B03D17B680122A0
:1026D00083F83A20FB7B18461037BD4680BD00BF0B
:1026E00000100240113E00E080B582B000AF78607B
:1026F0007B68002B01D1012342E07B68D3F888304E
:10270000002B06D17B68002283F88420786802F0D1
:10271000EFFB7B682422C3F888207B681B681A685B
:102720007B681B6822F001021A607B689B6A002BA1
:1027300002D0786800F00EFF786800F00FFC0346C6
:10274000012B01D101231BE07B681B685A687B6861
:102750001B6822F490425A607B681B689A687B6809
:102760001B6822F02A029A607B681B681A687B68E3
:102770001B6842F001021A60786800F08DFF034682
:1027800018460837BD4680BD80B58AB000AFF860F6
:10279000B9601346FB80FB68D3F88830202B67D1E3
:1027A000BB68002B02D0FB88002B01D1012360E025
:1027B000FB68BA681A65FB68FA88A3F85420FB68BE
:1027C000FA88A3F85620FB680022C3F89020FB6823
:1027D0002122C3F88820FB68DB6F002B28D0FB6820
:1027E000DB6F264ADA62FB68DB6F254A1A63FB68F7
:1027F000DB6F244A5A63FB68DB6F00229A63FB6835
:10280000D86FFB681B6D1946FB681B6828331A4696
:10281000FB88FFF739FA0346002B09D0FB6810222A
:10282000C3F89020FB682022C3F88820012320E011
:10283000FB681B6840221A62FB681B6808337B61D7
:102840007B6953E8003F3B613B6943F080037B6257
:10285000FB681B6808337A6A3A62FB61F9693A6A75
:1028600041E80023BB61BB69002BE5D1002300E0F8
:10287000022318462837BD4680BD00BF633B0008D1
:10288000FD3B0008ED3D000880B5BAB000AF7860B0
:102890007B681B68DB69C7F8E4307B681B681B68D2
:1028A000C7F8E0307B681B689B68C7F8DC30D7F856
:1028B000E42040F60F031340C7F8D830D7F8D830DB
:1028C000002B1BD1D7F8E43003F02003002B15D0E8
:1028D000D7F8E03003F02003002B05D1D7F8DC3027
:1028E00003F08053002B09D07B685B6F002B00F056
:1028F00000837B685B6F78689847FAE2D7F8D83036
:10290000002B00F02381D7F8DC208D4B1340002BE7
:1029100006D1D7F8E0208B4B1340002B00F0168136
:10292000D7F8E43003F00103002B11D0D7F8E030E2
:1029300003F48073002B0BD07B681B6801221A62A2
:102940007B68D3F8903043F001027B68C3F8902095
:10295000D7F8E43003F00203002B11D0D7F8DC30B5
:1029600003F00103002B0BD07B681B6802221A6264
:102970007B68D3F8903043F004027B68C3F8902062
:10298000D7F8E43003F00403002B11D0D7F8DC3083
:1029900003F00103002B0BD07B681B6804221A6232
:1029A0007B68D3F8903043F002027B68C3F8902034
:1029B000D7F8E43003F00803002B17D0D7F8E03045
:1029C00003F02003002B05D1D7F8DC205C4B13402B
:1029D000002B0BD07B681B6808221A627B68D3F837
:1029E000903043F008027B68C3F89020D7F8E430B9
:1029F00003F40063002B12D0D7F8E03003F08063BB
:102A0000002B0CD07B681B684FF400621A627B6855
:102A1000D3F8903043F020027B68C3F890207B68A5
:102A2000D3F89030002B00F06682D7F8E43003F042
:102A30002003002B13D0D7F8E03003F02003002B45
:102A400005D1D7F8DC3003F08053002B07D07B682A
:102A50005B6F002B03D07B685B6F786898477B685F
:102A6000D3F89030C7F8D4307B681B689B6803F0BC
:102A70004003402B05D0D7F8D43003F02803002BB7
:102A800054D0786801F007F87B681B689B6803F0F6
:102A90004003402B46D17B681B680833C7F89C3045
:102AA000D7F89C3053E8003FC7F89830D7F89830F3
:102AB00023F04003C7F8D0307B681B680833D7F891
:102AC000D020C7F8A820C7F8A430D7F8A410D7F8AA
:102AD000A82041E80023C7F8A030D7F8A030002B89
:102AE000D9D17B68D3F88030002B17D07B68D3F81E
:102AF0008030154A9A637B68D3F880301846FFF718
:102B00009CF90346002B19D07B68D3F880309B6B6F
:102B10007A68D2F88020104698470FE0786800F075
:102B200013FA0BE0786800F00FFA07E0786800F01D
:102B30000BFA7B680022C3F89020DCE100BFDAE1E9
:102B400001000010200100045D3E00087B68DB6E80
:102B5000012B40F07081D7F8E43003F01003002B14
:102B600000F06981D7F8E03003F01003002B00F08B
:102B700062817B681B6810221A627B681B689B68F5
:102B800003F04003402B40F0D8807B68D3F88030BE
:102B90001B685B68A7F8BE30B7F8BE30002B00F0AA
:102BA000AF807B68B3F85C30B7F8BE209A4280F003
:102BB000A7807B68B7F8BE20A3F85E207B68D3F8B7
:102BC00080301B681B6803F02003002B40F08780D7
:102BD0007B681B68C7F88830D7F8883053E8003F17
:102BE000C7F88430D7F8843023F48073C7F8B8303E
:102BF0007B681B681A46D7F8B830C7F89430C7F816
:102C00009020D7F89010D7F8942041E80023C7F817
:102C10008C30D7F88C30002BDAD17B681B680833F6
:102C20007B677B6F53E8003F3B673B6F23F00103FB
:102C3000C7F8B4307B681B680833D7F8B420C7F8EE
:102C40008020FB67F96FD7F8802041E80023BB673D
:102C5000BB6F002BE1D17B681B6808333B663B6E82
:102C600053E8003FFB65FB6D23F04003C7F8B0302D
:102C70007B681B680833D7F8B020FA66BB66B96E6C
:102C8000FA6E41E800237B667B6E002BE3D17B6804
:102C90002022C3F88C207B680022DA667B681B68E0
:102CA000FB64FB6C53E8003FBB64BB6C23F0100378
:102CB000C7F8AC307B681B681A46D7F8AC30BB65E8
:102CC0007A65796DBA6D41E800233B653B6D002B59
:102CD000E4D17B68D3F880301846FFF750F87B6862
:102CE00002221A677B68B3F85C207B68B3F85E3019
:102CF0009BB2D31A9BB21946786801F071FDFCE0D3
:102D00007B68B3F85C30B7F8BE209A4240F0F5809B
:102D10007B68D3F880301B681B6803F02003202BEE
:102D200040F0EB807B6802221A677B68B3F85C3066
:102D30001946786801F054FDDFE07B68B3F85C2049
:102D40007B68B3F85E309BB2D31AA7F8CE307B68AD
:102D5000B3F85E309BB2002B00F0D180B7F8CE30D4
:102D6000002B00F0CC807B681B68BB63BB6B53E817
:102D7000003F7B637B6B23F49073C7F8C8307B689C
:102D80001B681A46D7F8C8307B643A64396C7A6C91
:102D900041E80023FB63FB6B002BE4D17B681B68DD
:102DA00008337B627B6A53E8003F3B623B6A23F057
:102DB000805323F00103C7F8C4307B681B680833D5
:102DC000D7F8C4203A63FB62F96A3A6B41E8002302
:102DD000BB62BB6A002BE1D17B682022C3F88C2048
:102DE0007B680022DA667B6800225A677B681B6872
:102DF0003B613B6953E8003FFB60FB6823F0100335
:102E0000C7F8C0307B681B681A46D7F8C030FB6132
:102E1000BA61B969FA6941E800237B617B69002BDB
:102E2000E4D17B6802221A67B7F8CE301946786879
:102E300001F0D6FC63E0D7F8E43003F48013002BF4
:102E40000ED0D7F8DC3003F48003002B08D07B6869
:102E50001B684FF480121A62786801F038F851E06C
:102E6000D7F8E43003F08003002B14D0D7F8E0301B
:102E700003F08003002B05D1D7F8DC3003F4000306
:102E8000002B08D07B689B6F002B3AD07B689B6F30
:102E90007868984735E0D7F8E43003F04003002B1A
:102EA00009D0D7F8E03003F04003002B03D0786856
:102EB00000F0E2FF26E0D7F8E43003F40003002B33
:102EC00009D0D7F8E03003F08043002B03D07868B6
:102ED00001F011F816E0D7F8E43003F08073002B0E
:102EE00010D0D7F8E030002B0CDA786800F0F9FF4A
:102EF00008E000BF06E000BF04E000BF02E000BF42
:102F000000E000BFE837BD4680BD00BF80B483B09D
:102F100000AF786000BF0C37BD465DF8047B70479A
:102F200080B483B000AF786000BF0C37BD465DF859
:102F3000047B704780B483B000AF786000BF0C376B
:102F4000BD465DF8047B704780B483B000AF786005
:102F500000BF0C37BD465DF8047B70472DE9B04FCC
:102F60008CB000AF7861002387F82A307B699A68BB
:102F70007B691B691A437B695B691A437B69DB695F
:102F80001343FB627B691B681A68AA4B13407A697A
:102F90001268F96A0B4313607B691B685B6823F452
:102FA00040517B69DA687B691B680A435A607B6918
:102FB0009B69FB627B691B689F4A934204D07B69D3
:102FC0001B6AFA6A1343FB627B691B689B6823F0E8
:102FD0006E4323F430637A691268F96A0B43936095
:102FE0007B691B68DB6A23F00F017B695A6A7B6986
:102FF0001B680A43DA627B691B68904A934225D1B9
:103000008F4BD3F8883003F00303032B1AD801A2A7
:1030100052F823F025300008353000082D30000824
:103020003D300008012387F82B3016E1022387F892
:103030002B3012E1042387F82B300EE1082387F8A8
:103040002B300AE1102387F82B3006E17B691B68DF
:103050007C4A934238D17A4BD3F8883003F00C0382
:103060000C2B2DD801A252F823F000BFA13000088C
:10307000C1300008C1300008C1300008B13000087C
:10308000C1300008C1300008C1300008A930000874
:10309000C1300008C1300008C1300008B930000854
:1030A000002387F82B30D8E0022387F82B30D4E0B8
:1030B000042387F82B30D0E0082387F82B30CCE0AE
:1030C000102387F82B30C8E07B691B685E4A934267
:1030D00025D15B4BD3F8883003F03003302B16D06A
:1030E000302B18D8202B0AD0202B14D8002B02D03C
:1030F000102B08D00FE0002387F82B30ADE002231F
:1031000087F82B30A9E0042387F82B30A5E00823AB
:1031100087F82B30A1E0102387F82B309DE07B69E6
:103120001B684A4A934225D1454BD3F8883003F0B7
:10313000C003C02B16D0C02B18D8802B0AD0802BF0
:1031400014D8002B02D0402B08D00FE0002387F8C2
:103150002B3082E0022387F82B307EE0042387F8AF
:103160002B307AE0082387F82B3076E0102387F89D
:103170002B3072E07B691B68354A93422AD1304B71
:10318000D3F8883003F44073B3F5407F1AD0B3F519
:10319000407F1BD8B3F5007F0CD0B3F5007F15D866
:1031A000002B03D0B3F5807F08D00FE0002387F811
:1031B0002B3052E0022387F82B304EE0042387F8AF
:1031C0002B304AE0082387F82B3046E0102387F89D
:1031D0002B3042E07B691B68174A93423AD1184B67
:1031E000D3F8883003F44063B3F5406F1AD0B3F5D9
:1031F000406F1BD8B3F5006F0CD0B3F5006F15D836
:10320000002B03D0B3F5806F08D00FE0002387F8C0
:103210002B3022E0022387F82B301EE0042387F8AE
:103220002B301AE0082387F82B3016E0102387F89C
:103230002B3012E0F369FFCF0080004000380140DE
:10324000001002400044004000480040004C004094
:1032500000500040102387F82B307B691B68AE4A72
:10326000934240F0978097F82B30082B23D801A287
:1032700052F823F099320008B7320008A132000852
:10328000B7320008A7320008B7320008B73200088A
:10329000B7320008AF320008FDF7D2FF786210E0C5
:1032A0009E4B7B620DE0FDF75DFF786209E04FF415
:1032B00000437B6205E000237B62012387F82A300C
:1032C00000BF7B6A002B00F030817B695B6A944A07
:1032D00032F813301A467B6AB3FBF2F3BB617B69A9
:1032E0005A6813465B001344BA699A4205D37B6956
:1032F0005B681B03BA699A4203D9012387F82A3015
:1033000013E17B6A0022BB60FA607B695B6A844AD6
:1033100032F813309BB200223B607A60D7E9002379
:10332000D7E90201FCF77CFF02460B46104619461E
:103330004FF000024FF000030B0243EA1063020259
:1033400079694968490800200C46054612EB0408D3
:1033500043EB05097B695B6800229A469346524617
:103360005B4640464946FCF75BFF02460B46134668
:103370003B623B6AB3F5407F08D33B6AB3F5801FDD
:1033800004D27B691B683A6ADA60CEE0012387F8D1
:103390002A30CAE07B69DB69B3F5004F66D197F844
:1033A0002B30082B27D801A252F823F0D133000884
:1033B000D9330008E1330008F7330008E733000889
:1033C000F7330008F7330008F7330008EF3300083D
:1033D000FDF736FF786214E0FDF748FF786210E0F1
:1033E0004E4B7B620DE0FDF7BDFE786209E04FF4C5
:1033F00000437B6205E000237B62012387F82A30CB
:1034000000BF7B6A002B00F090807B695B6A444AB6
:1034100032F813301A467B6AB3FBF2F35A007B6929
:103420005B685B081A447B695B68B2FBF3F33B6241
:103430003B6A0F2B16D93B6AB3F5803F12D23B6A29
:103440009BB223F00F03FB833B6A5B089BB203F044
:1034500007039AB2FB8B1343FB837B691B68FA8BD0
:10346000DA6062E0012387F82A305EE097F82B30BB
:10347000082B28D801A252F823F000BFA13400087D
:10348000A9340008B1340008C7340008B734000874
:10349000C7340008C7340008C7340008BF34000828
:1034A000FDF7CEFE786214E0FDF7E0FE786210E0F2
:1034B0001A4B7B620DE0FDF755FE786209E04FF490
:1034C00000437B6205E000237B62012387F82A30FA
:1034D00000BF7B6A002B28D07B695B6A104A32F8F8
:1034E00013301A467B6AB3FBF2F27B695B685B08B8
:1034F0001A447B695B68B2FBF3F33B623B6A0F2BB8
:1035000010D93B6AB3F5803F0CD23B6A9AB27B6913
:103510001B68DA6009E000BF008000400024F4006E
:1035200048970008012387F82A307B690122A3F815
:103530006A207B690122A3F868207B6900225A6710
:103540007B6900229A6797F82A3018463037BD46C3
:10355000BDE8B08F80B483B000AF78607B689B6AB1
:1035600003F00803002B0AD07B681B685B6823F418
:1035700000417B689A6B7B681B680A435A607B68D2
:103580009B6A03F00103002B0AD07B681B685B6811
:1035900023F400317B68DA6A7B681B680A435A604F
:1035A0007B689B6A03F00203002B0AD07B681B68D0
:1035B0005B6823F480317B681A6B7B681B680A4365
:1035C0005A607B689B6A03F00403002B0AD07B6877
:1035D0001B685B6823F480217B685A6B7B681B68DF
:1035E0000A435A607B689B6A03F01003002B0AD0E1
:1035F0007B681B689B6823F480517B68DA6B7B686F
:103600001B680A439A607B689B6A03F02003002BC7
:103610000AD07B681B689B6823F400517B681A6C96
:103620007B681B680A439A607B689B6A03F04003CF
:10363000002B1AD07B681B685B6823F480117B68C1
:103640005A6C7B681B680A435A607B685B6CB3F5F5
:10365000801F0AD17B681B685B6823F4C0017B680C
:103660009A6C7B681B680A435A607B689B6A03F00C
:103670008003002B0AD07B681B685B6823F4002161
:103680007B68DA6C7B681B680A435A6000BF0C37A2
:10369000BD465DF8047B704780B598B002AF786096
:1036A0007B680022C3F89020FDF702F978657B68FB
:1036B0001B681B6803F00803082B2FD16FF07E43B3
:1036C00000937B6D00224FF40011786800F08EF8B3
:1036D0000346002B22D07B681B68BB63BB6B53E89F
:1036E000003F7B637B6B23F080033B657B681B683B
:1036F0001A463B6D7B643A64396C7A6C41E800236E
:10370000FB63FB6B002BE6D17B682022C3F888208B
:103710007B68002283F88420032363E07B681B68B6
:103720001B6803F00403042B49D16FF07E43009320
:103730007B6D00224FF48001786800F057F8034653
:10374000002B3CD07B681B687B627B6A53E8003FA0
:103750003B623B6A23F49073FB647B681B681A46E8
:10376000FB6C3B63FA62F96A3A6B41E80023BB6287
:10377000BB6A002BE6D17B681B6808333B613B6961
:1037800053E8003FFB60FB6823F00103BB647B68E8
:103790001B680833BA6CFA61BB61B969FA6941E820
:1037A00000237B617B69002BE5D17B682022C3F875
:1037B0008C207B68002283F88420032312E07B683E
:1037C0002022C3F888207B682022C3F88C207B68E5
:1037D0000022DA667B6800221A677B68002283F881
:1037E0008420002318465837BD4680BD80B584B07C
:1037F00000AFF860B9603B601346FB714FE0BB69F6
:10380000B3F1FF3F4BD0FDF753F802463B68D31AA4
:10381000BA699A4202D3BB69002B01D103234EE05F
:10382000FB681B681B6803F00403002B37D0BB68E0
:10383000802B34D0BB68402B31D0FB681B68DB6920
:1038400003F00803082B10D1FB681B6808221A62DA
:10385000F86800F020F9FB680822C3F89020FB68A4
:10386000002283F88420012329E0FB681B68DB69C0
:1038700003F40063B3F5006F11D1FB681B684FF4CC
:1038800000621A62F86800F006F9FB682022C3F8AB
:103890009020FB68002283F8842003230FE0FB685C
:1038A0001B68DA69BB681340BA689A420CBF0123EF
:1038B0000023DBB21A46FB799A42A0D000231846B7
:1038C0001037BD4680BD000080B596B000AFF860EF
:1038D000B9601346FB80FB68BA689A65FB68FA8892
:1038E000A3F85C20FB680022C3F89020FB6822222A
:1038F000C3F88C20FB68D3F88030002B2DD0FB68F8
:10390000D3F88030404ADA62FB68D3F880303F4A0F
:103910001A63FB68D3F880303D4A5A63FB68D3F8DA
:10392000803000229A63FB68D3F88000FB681B6834
:1039300024331946FB689B6D1A46FB88FEF7A4F9F1
:103940000346002B09D0FB681022C3F89020FB68C7
:103950002022C3F88C20012351E0FB681B69002B57
:1039600018D0FB681B68FB63FB6B53E8003FBB632D
:10397000BB6B43F480737B65FB681B681A467B6DE9
:10398000BB647A64796CBA6C41E800233B643B6C9D
:10399000002BE6D1FB681B680833BB62BB6A53E8A7
:1039A000003F7B627B6A43F001033B65FB681B6859
:1039B00008333A6D7A633B63396B7A6B41E80023D5
:1039C000FB62FB6A002BE5D1FB681B6808337B6157
:1039D0007B6953E8003F3B613B6943F04003FB6474
:1039E000FB681B680833FA6C3A62FB61F9693A6A52
:1039F00041E80023BB61BB69002BE5D100231846D9
:103A00005837BD4680BD00BF193C00087B3D00080B
:103A1000ED3D000880B48FB000AF78607B681B6814
:103A20003B623B6A53E8003FFB61FB6923F0C00344
:103A30007B637B681B681A467B6BFB62BA62B96A60
:103A4000FA6A41E800237B627B6A002BE6D17B683F
:103A50001B680833FB60FB6853E8003FBB60BB6832
:103A600023F400033B637B681B6808333A6BBA613D
:103A70007B617969BA6941E800233B613B69002BAE
:103A8000E5D17B682022C3F8882000BF3C37BD46C3
:103A90005DF8047B704780B495B000AF78607B68B8
:103AA0001B687B637B6B53E8003F3B633B6B23F4FA
:103AB0009073FB647B681B681A46FB6C3B64FA637B
:103AC000F96B3A6C41E80023BB63BB6B002BE6D17A
:103AD0007B681B6808333B623B6A53E8003FFB612D
:103AE000FB6923F0805323F00103BB647B681B68F0
:103AF0000833BA6CFA62BB62B96AFA6A41E8002319
:103B00007B627B6A002BE3D17B68DB6E012B18D1D3
:103B10007B681B68FB60FB6853E8003FBB60BB68C9
:103B200023F010037B647B681B681A467B6CBB61C7
:103B30007A617969BA6941E800233B613B69002BEE
:103B4000E6D17B682022C3F88C207B680022DA66ED
:103B50007B6800225A6700BF5437BD465DF8047B7E
:103B6000704780B590B000AF78607B689B6AFB635C
:103B70007B681B681B6803F02003002B37D1FB6BAD
:103B80000022A3F85620FB6B1B6808337B627B6A1C
:103B900053E8003F3B623B6A23F08003BB63FB6B4F
:103BA0001B680833BA6B3A63FB62F96A3A6B41E807
:103BB0000023BB62BB6A002BE5D1FB6B1B683B613A
:103BC0003B6953E8003FFB60FB6843F040037B63C5
:103BD000FB6B1B681A467B6BFB61BA61B969FA69BA
:103BE00041E800237B617B69002BE6D102E0F86BA2
:103BF00000F0E6FD00BF4037BD4680BD80B584B013
:103C000000AF78607B689B6AFB60F868FFF77EF91D
:103C100000BF1037BD4680BD80B59CB000AF786056
:103C20007B689B6AFB667B681B681B6803F020034C
:103C3000002B71D1FB6E0022A3F85E20FB6E1B6887
:103C4000BB64BB6C53E8003F7B647B6C23F48073E4
:103C5000BB66FB6E1B681A46BB6E7B653A65396DA9
:103C60007A6D41E80023FB64FB6C002BE6D1FB6E10
:103C70001B6808337B637B6B53E8003F3B633B6B04
:103C800023F001037B66FB6E1B6808337A6E3A648F
:103C9000FB63F96B3A6C41E80023BB63BB6B002B01
:103CA000E5D1FB6E1B6808333B623B6A53E8003F7B
:103CB000FB61FB6923F040033B66FB6E1B68083326
:103CC0003A6EFA62BB62B96AFA6A41E800237B6223
:103CD0007B6A002BE5D1FB6E2022C3F88C20FB6EA3
:103CE000DB6E012B18D1FB6E1B68FB60FB6853E891
:103CF000003FBB60BB6823F01003FB65FB6E1B68D5
:103D00001A46FB6DBB617A617969BA6941E80023A3
:103D10003B613B69002BE6D1FB6E00221A67FB6E0C
:103D2000DB6E012B22D1FB6E0022A3F85E207B68A4
:103D30001B685B68A7F85A30FB6EB3F85C30B7F8C5
:103D40005A209A4204D2FB6EB7F85A20A3F85E209C
:103D5000FB6EB3F85C20FB6EB3F85E309BB2D31AF7
:103D60009BB21946F86E00F03BFD02E0F86EFFF7DB
:103D7000D7F800BF7037BD4680BD80B584B000AFB6
:103D800078607B689B6AFB60FB6801221A67FB68AE
:103D9000DB6E012B23D1FB68B3F85C305B089AB271
:103DA000FB68A3F85E207B681B685B687B81FB680F
:103DB000B3F85C307A899A4203D8FB687A89A3F811
:103DC0005E20FB68B3F85C20FB68B3F85E309BB202
:103DD000D31A9BB21946F86800F002FD02E0F868B9
:103DE000FFF7A8F800BF1037BD4680BD80B586B08C
:103DF00000AF78607B689B6A7B617B69D3F8883011
:103E00003B617B69D3F88C30FB607B691B689B68E6
:103E100003F08003802B05D13B69212B02D1786907
:103E2000FFF7F8FD7B691B689B6803F04003402B9C
:103E300005D1FB68222B02D17869FFF72CFE7B6944
:103E4000D3F8903043F010027B69C3F89020786972
:103E5000FFF77AF800BF1837BD4680BD80B584B043
:103E600000AF78607B689B6AFB60F868FFF76CF8CE
:103E700000BF1037BD4680BD80B588B000AF786008
:103E80007B681B68FB60FB6853E8003FBB60BB6856
:103E900023F04003FB617B681B681A46FB69BB612A
:103EA0007A617969BA6941E800233B613B69002B7B
:103EB000E6D17B682022C3F888207B6800229A67BD
:103EC000786800F07DFC00BF2037BD4680BD80B41F
:103ED00083B000AF786000BF0C37BD465DF8047B4F
:103EE000704780B483B000AF786000BF0C37BD4628
:103EF0005DF8047B704780B483B000AF786000BF8A
:103F00000C37BD465DF8047B704780B485B000AFC8
:103F100078607B6893F88430012B01D1022327E07D
:103F20007B68012283F884207B682422C3F88820E0
:103F30007B681B681B68FB607B681B681A687B6872
:103F40001B6822F001021A60FB6823F00053FB603B
:103F50007B6800225A667B681B68FA681A607B6877
:103F60002022C3F888207B68002283F88420002365
:103F700018461437BD465DF8047B704780B584B0A1
:103F800000AF786039607B6893F88430012B01D1F1
:103F900002232DE07B68012283F884207B682422A1
:103FA000C3F888207B681B681B68FB607B681B6804
:103FB0001A687B681B6822F001021A607B681B6824
:103FC0009B6823F060417B681B683A680A439A60EB
:103FD000786800F0A3F87B681B68FA681A607B6851
:103FE0002022C3F888207B68002283F884200023E5
:103FF00018461037BD4680BD80B584B000AF7860EC
:1040000039607B6893F88430012B01D102232DE0C5
:104010007B68012283F884207B682422C3F88820EF
:104020007B681B681B68FB607B681B681A687B6881
:104030001B6822F001021A607B681B689B6823F0F2
:1040400060617B681B683A680A439A60786800F090
:1040500065F87B681B68FA681A607B682022C3F8E1
:1040600088207B68002283F88420002318461037BC
:10407000BD4680BD80B58CB000AFF860B960134616
:10408000FB80FB68D3F88C30202B42D1BB68002B1F
:1040900002D0FB88002B01D101233BE0FB68012209
:1040A000DA66FB6800221A67FB881A46B968F86866
:1040B000FFF70AFC034687F82F3097F82F30002BC4
:1040C00024D1FB68DB6E012B1DD1FB681B6810221D
:1040D0001A62FB681B68BB61BB6953E8003F7B61E8
:1040E0007B6943F01003BB62FB681B681A46BB6A1E
:1040F0007B623A62396A7A6A41E80023FB61FB69B4
:10410000002BE6D102E0012387F82F3097F82F30FB
:1041100000E0022318463037BD4680BD80B485B02C
:1041200000AF78607B685B6E002B08D17B68012252
:10413000A3F86A207B680122A3F8682031E00823F5
:10414000FB730823BB737B681B689B685B0EDBB249
:1041500003F007037B737B681B689B685B0FDBB214
:1041600003F007033B73BB7B3A7B11498A5C02FB7C
:1041700003F33A7B0F498A5C93FBF2F39AB27B68B4
:10418000A3F86A20FB7B7A7B09498A5C02FB03F374
:104190007A7B08498A5C93FBF2F39AB27B68A3F8B6
:1041A000682000BF1437BD465DF8047B704700BF30
:1041B000609700086897000880B400AF0023184695
:1041C000BD465DF8047B704780B582B000AF786073
:1041D0007B680B4A1A607B680A4A5A607B680A4A05
:1041E0009A607B68094ADA607B68103307220021F5
:1041F000184604F025FC7B6818460837BD4680BD8C
:10420000A8940008AC940008B0940008B494000886
:1042100080B582B000AF786039607B680C4A1A6064
:104220007B680C4A5A607B680B4A9A607B680B4A31
:10423000DA607B6803F110003B68103307221946EF
:1042400004F0D6FB7B6818460837BD4680BD00BF2A
:10425000A8940008AC940008B0940008B494000836
:1042600080B400AF114BDB68104A43F08073D36019
:104270000F4B00225A600E4B1B680D4A43F001039E
:1042800013600C4B1B680C4AA2FB03239B0C0B4ACC
:1042900013600A4B1B684FF0FF32B2FBF3F3084A7E
:1042A000136000BFBD465DF8047B7047F0ED00E091
:1042B000001000E00400002083DE1B439800002073
:1042C0009C00002080B582B000AF7860786800F074
:1042D00005F87B6818460837BD4680BD80B483B0BA
:1042E00000AF78607A687B685A607B685A687B6840
:1042F0001A607B6800229A6000BF0C37BD465DF8EB
:10430000047B704780B582B000AF78600B46FB70CD
:10431000084A7B681A607B68FA781A717B68002209
:104320005A71786800F08EFF7B6818460837BD46E2
:1043300080BD00BF7897000880B483B000AF78607C
:104340003960002318460C37BD465DF8047B704782
:1043500080B483B000AF78607B685B7918460C3717
:10436000BD465DF8047B704780B582B000AF7860D1
:10437000786800F07BFA7B6818460837BD4680BD38
:1043800080B582B000AF78607B68184600F05EFAB6
:104390007B6818460837BD4680BD80B582B000AF47
:1043A00078607B681846FFF7EBFF7B681846083794
:1043B000BD4680BD80B582B000AF78607B6818468E
:1043C00000F05FFA7B6818460837BD4680BD0000E4
:1043D00080B582B000AF78600B46FB707B68FA78DE
:1043E00011461846FFF78EFF064A7B681A607B6805
:1043F00008331846FFF7D1FF7B6818460837BD46DB
:1044000080BD00BF8C97000880B582B000AF786097
:104410000B46FB707B68FA7811461846FFF772FF6F
:10442000034A7B681A607B6818460837BD4680BD22
:10443000A097000880B483B000AF78607B6893F8E1
:10444000DC3018460C37BD465DF8047B704780B4FD
:1044500083B000AF78607B6893F8DD3018460C3786
:10446000BD465DF8047B704780B582B000AF7860D0
:10447000064A7B681A607B6808331846FFF79AFF84
:104480007B6818460837BD4680BD00BF8C97000882
:10449000B0B590B000AFFCF7A7F900F03BF900F021
:1044A000BFFA00F003FC00F033FC00F059FC00F010
:1044B000D3FC00F0B9FBFFF7D3FE874B1B6803F07A
:1044C0000103002B07D1854A0021854801F098FBA4
:1044D000814B01221A60834B814A1A60824B1B6810
:1044E00003F00103002B0BD101218048FFF770FF7F
:1044F0007D4B01221A607E4A7E497C4804F0C8F94F
:104500007D4B7A4A1A607D4B1B6803F00103002B38
:1045100006D102217A48FFF777FF784B01221A6013
:10452000784B774A1A60012387F83F30002387F8D9
:104530003E3097F83E30022B1ED897F83E30724A34
:1045400052F823301B681B6897F83E206E4951F8DB
:1045500022201046984703461A4697F83F301340EA
:10456000002B14BF0123002387F83F3097F83E301B
:10457000013387F83E30DCE797F83F3083F00103E2
:10458000DBB2002B07D0574B1B686049184601F07F
:1045900088FC00F03FF908215D48FDF79DFA0346CD
:1045A000002B0CBF01230023DBB2002B06D001221D
:1045B00001214FF09040FDF7A7FA05E0002201210C
:1045C0004FF09040FDF7A0FA464B1B681846FFF7E6
:1045D0003EFF0346002B09D1424B1B681846FFF7EC
:1045E00029FF0346002B01D1012300E00023002B0B
:1045F00004D03C4B1B68184601F0A4FC394B1B68E7
:104600001846FFF717FF0346002B47D03B461846D6
:10461000FFF7DAFD334B1A6807F118031146184605
:1046200001F0DAFC384607F118030ECB02F009F965
:104630000346002B0CBF01230023DBB2002B25D146
:10464000002387F83D3097F83D30022B20D897F8AB
:104650003D302D4A52F823301B6808331C6897F808
:104660003D30294A52F823503A4607F124031146B7
:104670001846FFF7CDFD07F1240319462846A04749
:1046800097F83D30013387F83D30DCE700BF00E0AC
:1046900000BF144B1B68184601F054FC002387F838
:1046A0003C3097F83C30022B3FF675AF97F83C3022
:1046B000154A52F823301B6804331B6897F83C20D6
:1046C000114951F822201046984797F83C300133A1
:1046D00087F83C30E5E700BF80010020440200205D
:1046E000A0000020EC03002098010020840100209D
:1046F0000000002069440008A8030020A401002055
:104700009C010020E80300209C030020B8940008CE
:104710000008004880B594B000AF07F118033822B4
:104720000021184604F08CF93B1D00221A605A60E3
:104730009A60DA601A610020FDF742FD0223BB6136
:104740004FF480737B624023BB6202237B630223AE
:10475000BB630423FB6355233B6402237B64022376
:10476000BB640223FB6407F118031846FCF7ACF89E
:104770000346002B14BF01230023DBB2002B01D022
:1047800000F048F80F237B600323BB600023FB602D
:1047900000233B6100237B613B1D04211846FCF78D
:1047A000A5FB0346002B14BF01230023DBB2002B23
:1047B00001D000F02FF800BF5037BD4680BD00008B
:1047C00080B582B000AF7860044B1B6879681846EA
:1047D00001F058FB00BF0837BD4680BDEC03002048
:1047E00080B582B000AF78600B467B807B88002B61
:1047F00005D1074B1B68184601F0A4FB05E0044BEC
:104800001B687968184601F023FB0837BD4680BD58
:10481000EC03002080B500AF0A4B1B681846FFF779
:1048200097FD0346012B14BF01230023DBB2002BAD
:1048300005D0044B1B680449184601F032FB72B6E0
:1048400000BFFEE7EC030020F894000880B582B0BA
:1048500000AF7860786800F024F87B681846FFF7AE
:1048600031FD7B6818460837BD4680BD80B483B0F3
:1048700000AF78607B6818460C37BD465DF8047B56
:10488000704780B582B000AF7860786800F015F8A6
:104890007B681846FFF768FD7B6818460837BD46F9
:1048A00080BD80B582B000AF7860786800F02AF8EB
:1048B0007B6818460837BD4680BD80B586B000AF1E
:1048C00078607B681B687B617B687A699A4215D047
:1048D0007B693B613B691B687B61386900F01DF8AF
:1048E000F860786800F027F80346F968184600F089
:1048F0002DF83969786800F035F8E5E700BF18371A
:10490000BD4680BD80B483B000AF78607B68184638
:104910000C37BD465DF8047B704780B582B000AFB0
:1049200078607B680833184600F02BF80346184679
:104930000837BD4680BD80B483B000AF78607B6827
:1049400018460C37BD465DF8047B704780B582B0D1
:1049500000AF78603960386800F01FF800BF083792
:10496000BD4680BD80B582B000AF786039607B689D
:1049700001223968184600F01AF800BF0837BD4612
:1049800080BD80B582B000AF7860786800F02EF806
:10499000034618460837BD4680BD80B483B000AFDB
:1049A000786000BF0C37BD465DF8047B704780B56A
:1049B00088B000AFF860B9607A60FB68FB61BB68E3
:1049C000BB617B687B61FFF7F7FB0346002B03D0DD
:1049D000B86903F062FF05E07A69B969F86900F027
:1049E00010F800BF00BF2037BD4680BD80B483B043
:1049F00000AF78607B6818460C37BD465DF8047BD5
:104A0000704780B584B000AFF860B9607A607B68A9
:104A10005B011946B86803F042FF1037BD4680BD00
:104A200080B58CB000AF07F11C0300221A605A60F9
:104A30009A60DA601A61764BDB6C754A43F00403C6
:104A4000D364734BDB6C03F00403BB61BB69704B35
:104A5000DB6C6F4A43F02003D3646D4BDB6C03F0D7
:104A600020037B617B696A4BDB6C694A43F040033E
:104A7000D364674BDB6C03F040033B613B69644BE1
:104A8000DB6C634A43F00103D364614BDB6C03F0DE
:104A90000103FB60FB685E4BDB6C5D4A43F0020385
:104AA000D3645B4BDB6C03F00203BB60BB68584B09
:104AB000DB6C574A43F00803D364554BDB6C03F0BF
:104AC00008037B607B6800224FF6C3715148FDF7F5
:104AD0001BF8002203215048FDF716F800224FF47E
:104AE00080614E48FDF710F8002249F611114FF091
:104AF0009040FDF709F800224FF6F8314848FDF7DD
:104B000003F8002204214748FCF7FEFF4FF6C37369
:104B1000FB6101233B6200237B620023BB6207F140
:104B20001C0319463B48FCF74BFE0323FB610123A2
:104B30003B6200237B620023BB6207F11C03194622
:104B40003548FCF73DFE4FF48063FB6101233B6277
:104B500000237B620023BB6207F11C0319462F4828
:104B6000FCF72EFE0C23FB6100233B6200237B62DB
:104B700007F11C0319462748FCF722FE49F61113DA
:104B8000FB6101233B6200237B620023BB6207F1D0
:104B90001C0319464FF09040FCF712FE3023FB61D6
:104BA00003233B6200237B6207F11C03194619486B
:104BB000FCF706FE0323FB6103233B6200237B62B9
:104BC00007F11C0319461648FCF7FAFD4FF6F833B7
:104BD000FB6101233B6200237B620023BB6207F180
:104BE0001C0319460E48FCF7EBFD0423FB6101236F
:104BF0003B6200237B620023BB6207F11C03194662
:104C00000848FCF7DDFD00BF3037BD4680BD00BF62
:104C10000010024000080048001400480018004836
:104C200000040048000C004880B500AF0D4B0E4A50
:104C30001A600C4B00221A710A4B00225A71094B60
:104C400000225A61074B00229A61064B01221A6228
:104C50000448FBF7D7FC0346002B01D0FFF7DAFD31
:104C600000BF80BDA80100200030024080B485B0A4
:104C700000AF78607B681B680A4A93420BD10A4BED
:104C80009B6C094A43F480539364074B9B6C03F479
:104C90008053FB60FB6800BF1437BD465DF8047BA2
:104CA000704700BF003002400010024080B582B063
:104CB00000AF164B9B6C154A43F004039364134BEF
:104CC0009B6C03F004037B607B68104B9B6C0F4A6A
:104CD00043F0010393640D4B9B6C03F001033B60B5
:104CE0003B68002200210B20FDF7F9FB0B20FDF7AC
:104CF00010FC002200210C20FDF7F1FB0C20FDF739
:104D000008FC00BF0837BD4680BD00BF0010024050
:104D100080B500AF104B114A1A600F4B00225A6049
:104D20000D4B00229A600C4B0022DA600A4B0022E5
:104D30001A61094B00221A75074B00229A61064B33
:104D40000022DA620448FDF7FFFB0346002B01D086
:104D5000FFF760FD00BF80BDCC01002000030140D3
:104D600080B500AF104B114A1A600F4B00225A60F9
:104D70000D4B00229A600C4B0022DA600A4B002295
:104D80001A61094B00221A75074B00229A61064BE3
:104D90000022DA620448FDF7D7FB0346002B01D05E
:104DA000FFF738FD00BF80BD08020020040301406A
:104DB00080B58AB000AF786007F1140300221A6052
:104DC0005A609A60DA601A617B681B681F4A9342D6
:104DD00019D11F4BDB6C1E4A43F00103D3641C4BFB
:104DE000DB6C03F001033B613B690E237B61032312
:104DF000BB610023FB6107F1140319464FF090409B
:104E0000FCF7DEFC1DE07B681B68124A934218D158
:104E10000F4BDB6C0E4A43F00103D3640C4BDB6C8D
:104E200003F00103FB60FB68E0237B610323BB61AC
:104E30000023FB6107F1140319464FF09040FCF783
:104E4000BFFC00BF2837BD4680BD00BF0003014046
:104E5000001002400403014080B500AF224B234AFA
:104E60001A60214B4FF4E1325A601F4B00229A60C6
:104E70001D4B0022DA601C4B00221A611A4B0C22D7
:104E80005A61194B00229A61174B0022DA61164BC6
:104E900000221A62144B00225A62134B00229A62BB
:104EA0001148FDF721FC0346002B01D0FFF7B2FCAF
:104EB00000210D48FFF762F80346002B01D0FFF7F1
:104EC000A9FC00210848FFF797F80346002B01D002
:104ED000FFF7A0FC0448FFF718F80346002B01D0A9
:104EE000FFF798FC00BF80BD44020020003801405D
:104EF00080B59EB000AF786007F1640300221A60AD
:104F00005A609A60DA601A6107F110035422002196
:104F1000184603F095FD7B681B684D4A934240F0AC
:104F2000938001233B6100237B6107F11003184646
:104F3000FCF7F8F90346002B01D0FFF76BFC454B5B
:104F40001B6E444A43F480431366424B1B6E03F4CA
:104F50008043FB60FB683F4BDB6C3E4A43F0010340
:104F6000D3643C4BDB6C03F00103BB60BB684FF4C4
:104F7000C0637B660223BB660023FB6600233B679E
:104F800007237B6707F1640319464FF09040FCF755
:104F900017FC314B314A1A602F4B18225A602E4BA6
:104FA00000229A602C4B0022DA602B4B80221A617F
:104FB000294B00225A61284B00229A61264B00227D
:104FC000DA61254B00221A622348FCF7B5FD03463F
:104FD000002B01D0FFF71EFC7B681F4AC3F880201E
:104FE0001D4A7B6893621E4B1E4A1A601C4B192295
:104FF0005A601B4B10229A60194B0022DA60184B42
:1050000080221A61164B00225A61154B00229A61C8
:10501000134B0022DA61124B00221A621048FCF78F
:105020008BFD0346002B01D0FFF7F4FB7B680C4A95
:10503000DA670B4A7B689362002200212520FDF786
:105040004EFA2520FDF765FA00BF7837BD4680BDD2
:105050000038014000100240D80200200800024041
:10506000380300201C00024080B400AFFEE780B48B
:1050700000AFFEE780B400AFFEE780B400AFFEE70C
:1050800080B400AFFEE780B400AF00BFBD465DF85E
:10509000047B704780B400AF00BFBD465DF8047B61
:1050A000704780B400AF00BFBD465DF8047B704719
:1050B00080B500AFFBF7EAFB00BF80BD80B500AF55
:1050C0000248FCF721FF00BF80BD00BFD8020020CE
:1050D00080B500AF0248FCF717FF00BF80BD00BFDE
:1050E0003803002080B500AF0248FDF7CDFB00BFBC
:1050F00080BD00BF4402002080B582B000AF0F4BDE
:105100001B6E0E4A43F0010313660C4B1B6E03F03B
:1051100001037B607B68094B9B6D084A43F0805319
:105120009365064B9B6D03F080533B603B68FDF736
:10513000EBF800BF0837BD4680BD00BF001002403D
:1051400080B586B000AF7860144A154BD31A7B61E6
:105150007B693B61134B1B68002B02D1114B124A38
:105160001A60104B1A687B6813443A699A4207D256
:1051700003F0F4FB03460C221A604FF0FF3309E002
:10518000084B1B68FB60074B1A687B681344054A91
:105190001360FB6818461837BD4680BD000002202A
:1051A0000004000098030020F804002080B400AF41
:1051B00001231846BD465DF8047B704780B582B078
:1051C00000AF7860396003F0C9FB034616221A600D
:1051D0004FF0FF3318460837BD4680BD80B582B01A
:1051E00000AF78604FF0FF317868FFF7E7FFFEE728
:1051F0000D488546FBF7F4F90C480D490D4A00238C
:1052000002E0D458C4500433C4188C42F9D30A4A7B
:105210000A4C002301E013600432A242FBD303F0E6
:10522000A3FBFFF735F9FEE7000002200000002095
:10523000780000205C9B000878000020F804002023
:10524000FEE7000080B582B000AF78607B681B7914
:105250001A460C4B53F82230002B07D00A4B1B6820
:105260000A49184600F01DFEFFF7D4FA7B681B7947
:105270001946044A7B6842F8213000BF0837BD4612
:1052800080BD00BF9C030020EC0300202095000897
:1052900080B483B000AF786039603B6818460C3743
:1052A000BD465DF8047B704780B582B000AF786082
:1052B0000B46FB701346BB70094A7B681A607B681B
:1052C000FA781A717B6800225A717B68BA789A71F1
:1052D000786801F031FC7B6818460837BD4680BD10
:1052E000E499000880B582B000AF78600B46FB708F
:1052F0007B68F97802221846FFF7D6FF034A7B68DD
:105300001A607B6818460837BD4680BDC8970008FC
:1053100080B582B000AF78600B46FB707B68F9788F
:1053200001221846FFF7C0FF034A7B681A607B68BA
:1053300018460837BD4680BDF497000880B584B094
:1053400000AFF860B9607A607B80FB687A689A6029
:10535000FB687A889A81FB68BA691A61FB68BA8B24
:105360009A827B68002B02D0BB69002B01D1FFF72A
:1053700051FAB968F86803F02FF9FB68184610373E
:10538000BD4680BD80B584B002AF78600B46FB702F
:105390007B68F97803221846FFF786FF0A4A7B6884
:1053A0001A607B6803F10800102301934FF09043CB
:1053B00000930423054A0121FFF7C0FF7B681846CC
:1053C0000837BD4680BD00BF20980008000800488F
:1053D00080B483B000AF786000BF0C37BD465DF885
:1053E000047B704780B584B000AF78602F4B1B689A
:1053F00003F00103002B06D100212D48FFF7C2FF67
:105400002A4B01221A602B4B1B6803F00103002B6F
:1054100006D101212848FFF77BFF264B01221A60A5
:10542000264B1B6803F00103002B06D10221244800
:10543000FFF758FF214B01221A600123FB73002361
:10544000BB73BB7B022B18D8BB7B1E4A52F82330A0
:105450001B681B68BA7B1B4951F8222010469847ED
:1054600003461A46FB7B1340002B14BF0123002385
:10547000FB73BB7B0133BB73E3E7FB7B83F001036F
:10548000DBB2002B04D07B6803225A71002309E0B1
:105490007B6801225A710C4B1B680C49184600F0BE
:1054A00000FD012318461037BD4680BDCC03002007
:1054B000AC030020D8030020D0030020E403002028
:1054C000DC030020F0030020EC03002050950008CE
:1054D00090B593B000AF786039603B681B7C072BB8
:1054E00000F2A08001A252F823F000BF0D55000881
:1054F000A75500080D560008395500089B550008AF
:105500002956000829560008295600083B685C7C8B
:10551000032000F091F803469C422CBF0123002396
:10552000DBB2002B01D0002382E07B6808333968AE
:10553000184600F08DF87AE03B685B7C1C467B687F
:105540000833184600F096F803469C422CBF01230E
:105550000023DBB2002B01D0002369E07B68083315
:10556000184600F093F80346FB603B685A7C07F14D
:105570000C031146184600F09AF87B6803F1080402
:1055800007F10C0207F110031146184600F0A3F8CA
:105590003969204600F0AFF849E07B6808331846C7
:1055A00000F0C4F843E07B680833184600F06EF85A
:1055B0000346BB607B680833184600F0C7F8034613
:1055C0007B6107F1140207F108031146184600F049
:1055D000CDF8034683F00103DBB2002B26D007F1A0
:1055E0000803184600F0E6F8024607F118031146D2
:1055F0001846FEF70DFE07F11803184601F07EFB72
:1056000007F10803184600F0C5F8D3E707F13003A7
:1056100039681846FEF7FCFD07F13003184601F023
:105620006DFB04E0002303E000BF00E000BF0123A6
:1056300018464C37BD4690BD80B483B000AF0346DA
:10564000FB71FB7918460C37BD465DF8047B70474B
:1056500080B582B000AF78603960786800F076F885
:1056600003463A681946786800F0B2F800BF083778
:10567000BD4680BD80B582B000AF7860786800F02C
:10568000C5F8034618460837BD4680BD80B584B0CE
:1056900000AF78607B681A6807F10C031146184662
:1056A00000F0C1F8FB6818461037BD4680BD90B5C4
:1056B00085B000AF78600B46FB70FB78FB607868C4
:1056C00000F0C0F82246F968786800F0C5F800BF1D
:1056D0001437BD4690BD80B483B000AF78603960A8
:1056E0003B681A687B681A607B6818460C37BD46B1
:1056F0005DF8047B704780B584B000AF7860396096
:105700003B681A6807F10C031146184600F08BF845
:105710003B46184600F0EFF803461946786800F05B
:10572000C4F8FB6818461037BD4680BD80B582B00E
:1057300000AF78607B681846FFF7BFF87B681846B3
:1057400000F0EAF800BF0837BD4680BD80B584B0E0
:1057500000AF78607A6807F10C031146184600F034
:1057600062F8FB6818461037BD4680BD80B483B030
:1057700000AF786039607B681A683B681B689A42A2
:105780000CBF01230023DBB218460C37BD465DF881
:10579000047B704780B483B000AF78607B681B687F
:1057A0001A687B681A607B6818460C37BD465DF83E
:1057B000047B704780B582B000AF78607B681B685F
:1057C0001846FFF7AAF8034618460837BD4680BDBD
:1057D00080B586B000AFF860B9607A60786800F094
:1057E000A7F803461946F86800F0ADF878617B69C0
:1057F000BA681146184603F06BF8FB680121184699
:1058000000F0D5F800BF1837BD4680BD80B582B026
:1058100000AF78607B68184600F0DAF80346184657
:105820000837BD4680BD80B483B000AF7860396072
:105830007B683A681A607B6818460C37BD465DF88D
:10584000047B704780B483B000AF786018460C3793
:10585000BD465DF8047B704780B584B000AFF8604A
:10586000B9603A71BB68002B0DDDBB685A1EBA6087
:10587000002B14BF01230023DBB2002B11D0F868EA
:10588000FFF788FFF1E7BB685A1CBA60002B14BF12
:1058900001230023DBB2002B03D0F86800F0A4F84A
:1058A000F1E700BF1037BD4680BD90B585B000AFB1
:1058B000786039607B680121184600F0A5F83B68E4
:1058C000184603F00CF83B68FB607B681846FFF74E
:1058D00032F80446F868FFF720F8034619462046D8
:1058E000FFF734F87B68F9681846FFF73BF800BF0C
:1058F0001437BD4690BD80B584B000AF78607B683A
:105900001A6807F10C0311461846FFF78CFFFB6875
:1059100018461037BD4680BD80B582B000AF7860B4
:105920007B681846FEF7DAFC00BF0837BD4680BD2D
:1059300080B483B000AF78607B6818460C37BD46F2
:105940005DF8047B704790B587B000AF7860396030
:105950007B68184600F069F878617B681846FEF7A6
:10596000EAFF386107F108037A693969184600F0DF
:105970006AF87869FEF7D1FF04463868FFF7D8FF68
:1059800003461A462146386900F09EF807F10803DD
:105990000021184600F0AAF87C6907F108031846B0
:1059A00000F065F8234618461C37BD4690BD80B40C
:1059B00083B000AF786039607B689A683B681A44AE
:1059C0007B689A6000BF0C37BD465DF8047B70476A
:1059D00080B483B000AF78607B689B6818460C3752
:1059E000BD465DF8047B704780B483B000AF78603B
:1059F0007B681B685A687B681A607B6818460C379E
:105A0000BD465DF8047B704780B483B000AF78601A
:105A100039607B689A683B68D21A7B689A6000BFDD
:105A20000C37BD465DF8047B704780B582B000AF8F
:105A300078607B680121184600F067F80346184635
:105A40000837BD4680BD80B584B000AFF860B9604E
:105A50007A60B86800F079F80246FB681A60FB6863
:105A60007A685A60FB6818461037BD4680BD80B51D
:105A700082B000AF78607B685B68002B07D07B68E2
:105A800018687B685B6801221946FEF790FF7B6807
:105A900018460837BD4680BDB0B582B000AF78600B
:105AA00039603868FFF744FF05467B6819461820BF
:105AB000FFF7EEFB044629462046FEF7A9FB2346E6
:105AC00018460837BD46B0BD80B584B000AFF86059
:105AD000B9607A607868FFF72BFF03461946B8680B
