:020000040800F2
:1000000000000220511A0008B5190008BB190008A9
:10001000C1190008C7190008CD1900080000000028
:10002000000000000000000000000000D3190008DC
:10003000E119000800000000EF190008FD19000890
:10004000A11A0008A11A0008A11A0008A11A0008A4
:10005000A11A0008A11A0008A11A0008A11A000894
:10006000A11A0008A11A0008A11A0008A11A000884
:10007000A11A0008A11A0008A11A0008A11A000874
:10008000A11A0008A11A0008A11A0008A11A000864
:10009000A11A0008A11A0008A11A0008A11A000854
:1000A000A11A0008A11A0008A11A0008A11A000844
:1000B000A11A0008A11A0008A11A0008A11A000834
:1000C000A11A0008A11A0008A11A0008A11A000824
:1000D000A11A0008A11A0008A11A0008A11A000814
:1000E000A11A0008A11A0008A11A0008A11A000804
:1000F000A11A0008A11A0008A11A0008A11A0008F4
:10010000A11A0008A11A0008A11A0008A11A0008E3
:10011000A11A0008A11A0008A11A0008A11A0008D3
:10012000A11A0008A11A0008A11A0008A11A0008C3
:10013000A11A0008A11A0008A11A0008A11A0008B3
:10014000A11A0008A11A0008A11A0008A11A0008A3
:10015000A11A0008A11A0008A11A0008A11A000893
:10016000A11A0008A11A0008A11A0008A11A000883
:10017000A11A0008A11A0008A11A0008A11A000873
:10018000A11A0008A11A0008A11A0008A11A000863
:10019000A11A000800000000A11A0008A11A000816
:1001A000A11A0008A11A0008A11A0008A11A000843
:1001B000A11A0008A11A0008A11A0008A11A000833
:1001C000A11A0008A11A0008A11A0008A11A000823
:0801D000A11A0008A11A0008A1
:1001D80010B5054C237833B9044B13B10448AFF379
:1001E80000800123237010BD0C00002000000000D7
:1001F800FC1A000808B5034B1BB103490348AFF3C9
:10020800008008BD0000000010000020FC1A000853
:1002180080B400AF064BD3F88830054A43F4700326
:10022800C2F8883000BFBD465DF8047B704700BF48
:1002380000ED00E080B584B000AF78600023FB7368
:100248007B68002B01D10123BBE07B6893F83A302F
:10025800DBB2052B01D10123B3E07B6893F83A3078
:10026800DBB2022B01D10123ABE0584B1B6E574A7E
:1002780043F001031366554B1B6E03F00103BB608B
:10028800BB687B6893F83A30DBB2002B03D17B68FC
:10029800002283F83920786801F034FB7B689B687A
:1002A800402B03D07B689B68602B33D17B681B682D
:1002B8001B6823F010017B68DA6A7B681B680A43B5
:1002C8001A607B681B681A68414B13407A6851684A
:1002D8007A68926811437A6812690A437968097DD5
:1002E800012902D14FF4807100E0002111437A689E
:1002F800526A11437A68926A11437A68126BD2047F
:1003080011437A68526B120611437A6812680B43DC
:10031800136035E07B681B681B6823F010017B685D
:10032800DA6A7B681B680A431A607B681B681A686C
:10033800274B13407A6851687A68926811437A6843
:10034800D26811437A6812690A437968097D0129DC
:1003580002D14FF4807100E0002111437A68526A9B
:1003680011437A68926A11437A68126BD204114376
:100378007A68526B120611437A6812680B4313604D
:100388007B681B689B69002B10DB7B681B689B697B
:1003980023F03F017B689A697B68DB691A437B68B5
:1003A8001B6A1A437B681B680A439A617B6893F847
:1003B8003A30DBB2002B03D17B68012283F83A2064
:1003C800FB7B18461037BD4680BD00BF00100240B9
:1003D800113E00E080B582B000AF0023FB7103201E
:1003E80001F080F80F2000F00DF80346002B02D032
:1003F8000123FB7101E001F003FBFB791846083784
:10040800BD4680BD80B584B000AF78600023FB7323
:10041800164B1B68002B22D0154B1A68134B1B6810
:100428004FF47A71B1FBF3F3B2FBF3F3184601F022
:100438007EF80346002B0FD17B680F2B09D80022CA
:1004480079684FF0FF3001F058F80A4A7B6813606A
:1004580007E00123FB7304E00123FB7301E00123A0
:10046800FB73FB7B18461037BD4680BD0800002093
:10047800000000200400002080B400AF054B1A687B
:10048800054B1B681344034A136000BFBD465DF863
:10049800047B7047280000200800002080B400AFCB
:1004A800034B1B681846BD465DF8047B704700BFC8
:1004B8002800002080B588B000AF78607B68002BEA
:1004C80001D10123FEE27B681B6803F00103002BC6
:1004D80075D0974B9B6803F00C03BB61944BDB68AA
:1004E80003F003037B61BB690C2B02D17B69032BEF
:1004F80002D0BB69082B0BD18D4B1B6803F400336A
:10050800002B5BD07B685B68002B57D10123D9E2B5
:100518007B685B68B3F5803F06D1854B1B68844ACE
:1005280043F4803313601DE07B685B68B3F5A02F4C
:100538000CD17F4B1B687E4A43F4802313607C4BAD
:100548001B687B4A43F4803313600BE0784B1B68CD
:10055800774A23F480331360754B1B68744A23F47D
:10056800802313607B685B68002B13D0FFF796FF2E
:10057800386108E0FFF792FF02463B69D31A642B03
:1005880001D903239EE26A4B1B6803F40033002B56
:10059800F0D014E0FFF782FF386108E0FFF77EFF34
:1005A80002463B69D31A642B01D903238AE2604BC4
:1005B8001B6803F40033002BF0D100E000BF7B6818
:1005C8001B6803F00203002B75D0594B9B6803F09E
:1005D8000C03BB61564BDB6803F003037B61BB690B
:1005E8000C2B02D17B69022B02D0BB69042B1FD1D3
:1005F8004F4B1B6803F48063002B05D07B68DB68D6
:10060800002B01D101235DE2494B5B6823F0FE42D8
:100618007B681B691B06464913434B60454B1B68A7
:100628001846FFF7EFFE0346002B43D0012349E2AB
:100638007B68DB68002B23D03D4B1B683C4A43F4A6
:1006480080731360FFF72AFF386108E0FFF726FF81
:1006580002463B69D31A022B01D9032332E2344BF9
:100668001B6803F48063002BF0D0314B5B6823F0E8
:10067800FE427B681B691B062D4913434B601AE039
:100688002B4B1B682A4A23F480731360FFF706FF7D
:10069800386108E0FFF702FF02463B69D31A022BD4
:1006A80001D903230EE2224B1B6803F48063002B5D
:1006B800F0D100E000BF7B681B6803F00803002B43
:1006C80041D07B685B69002B1CD0194BD3F8943060
:1006D800174A43F00103C2F89430FFF7DFFE386190
:1006E80008E0FFF7DBFE02463B69D31A022B01D96B
:1006F8000323E7E10E4BD3F8943003F00203002BF9
:10070800EFD020E00A4BD3F89430094A23F00103D4
:10071800C2F89430FFF7C2FE38610DE0FFF7BEFE65
:1007280002463B69D31A022B06D90323CAE100BF4C
:1007380000100240040000208C4BD3F8943003F0E2
:100748000203002BEAD17B681B6803F00403002B2B
:1007580000F0A6800023FB77844B9B6D03F0805349
:10076800002B01D1012300E00023002B0DD07F4B8B
:100778009B6D7E4A43F0805393657C4B9B6D03F0E1
:100788008053FB60FB680123FB77794B1B6803F4FC
:100798008073002B18D1764B1B68754A43F480731D
:1007A8001360FFF77BFE386108E0FFF777FE02462B
:1007B8003B69D31A022B01D9032383E16C4B1B68D5
:1007C80003F48073002BF0D07B689B68012B08D161
:1007D800664BD3F89030654A43F00103C2F8903075
:1007E80024E07B689B68052B10D1604BD3F89030D0
:1007F8005E4A43F00403C2F890305C4BD3F8903063
:100808005A4A43F00103C2F890300FE0574BD3F82F
:100818009030564A23F00103C2F89030534BD3F876
:100828009030524A23F00403C2F890307B689B68EA
:10083800002B16D0FFF732FE38610AE0FFF72EFED4
:1008480002463B69D31A41F28832934201D9032305
:1008580038E1464BD3F8903003F00203002BEDD07B
:1008680015E0FFF71BFE38610AE0FFF717FE0246A6
:100878003B69D31A41F28832934201D9032321E11B
:100888003A4BD3F8903003F00203002BEDD1FB7FF5
:10089800012B05D1354B9B6D344A23F0805393656A
:1008A8007B681B6803F02003002B3CD07B689B69A6
:1008B800002B1CD02D4BD3F898302C4A43F0010361
:1008C800C2F89830FFF7EAFD386108E0FFF7E6FD67
:1008D80002463B69D31A022B01D90323F2E0234BCA
:1008E800D3F8983003F00203002BEFD01BE01F4B26
:1008F800D3F898301D4A23F00103C2F89830FFF767
:10090800CDFD386108E0FFF7C9FD02463B69D31AFF
:10091800022B01D90323D5E0144BD3F8983003F008
:100928000203002BEFD17B68DB69002B00F0C98044
:100938000E4B9B6803F00C030C2B00F083807B6844
:10094800DB69022B5ED1094B1B68084A23F08073D0
:100958001360FFF7A3FD38610CE0FFF79FFD024627
:100968003B69D31A022B05D90323ABE000100240E0
:1009780000700040554B1B6803F00073002BECD14E
:10098800524BDA68524B13407A68116A7A68526A95
:10099800013A120111437A68926A120211437A6885
:1009A800126B5208013A520511437A68526B520889
:1009B800013A520611437A68D26AD2060A43434979
:1009C8001343CB60414B1B68404A43F0807313606C
:1009D8003E4BDB683D4A43F08073D360FFF75EFD12
:1009E800386108E0FFF75AFD02463B69D31A022B2B
:1009F80001D9032366E0354B1B6803F00073002B15
:100A0800F0D05EE0314B1B68304A23F080731360EE
:100A1800FFF744FD386108E0FFF740FD02463B69F7
:100A2800D31A022B01D903234CE0284B1B6803F08F
:100A38000073002BF0D1254BDA682449254B13406D
:100A4800CB603EE07B68DB69012B01D1012339E0F3
:100A58001E4BDB687B617B6903F003027B681B6AC2
:100A68009A422CD17B6903F0F0027B685B6A013BF8
:100A78001B019A4223D17B6903F4FE427B689B6A7F
:100A88001B029A421BD17B6903F078427B68DB6AC0
:100A9800DB069A4213D17B6903F4C0027B681B6BA7
:100AA8005B08013B5B059A4209D17B6903F0C06290
:100AB8007B685B6B5B08013B5B069A4201D00123B4
:100AC80000E0002318462037BD4680BD00100240D4
:100AD8000C809F01FCFFEEFE80B586B000AF786009
:100AE800396000237B617B68002B01D101231EE163
:100AF800914B1B6803F00F033A689A4210D98E4B4A
:100B08001B6823F00F028C493B6813430B608A4B28
:100B18001B6803F00F033A689A4201D0012306E1EB
:100B28007B681B6803F00103002B73D07B685B684C
:100B3800032B29D1814B1B6803F00073002B01D1D3
:100B48000123F4E000F066F938613B697C4A93427E
:100B58003FD97A4B9B6803F0F003002B09D07B68E0
:100B68001B6803F00203002B33D07B689B68002BC3
:100B78002FD1724B9B6823F0F003704A43F0800337
:100B8800936080237B6124E07B685B68022B07D13C
:100B98006A4B1B6803F40033002B09D10123C6E01C
:100BA800664B1B6803F48063002B01D10123BEE070
:100BB80000F0CEF838613B69614A934209D95F4B2E
:100BC8009B6823F0F0035D4A43F080039360802321
:100BD8007B615A4B9B6823F003027B685B6857492B
:100BE80013438B60FFF75AFCF8600AE0FFF756FCE6
:100BF8000246FB68D31A41F28832934201D9032393
:100C080095E04E4B9B6803F00C027B685B689B0089
:100C18009A42EBD17B681B6803F00203002B23D0B8
:100C28007B681B6803F00403002B05D0434B9B68CB
:100C3800424A43F4E06393607B681B6803F008034F
:100C4800002B07D03D4B9B6823F47C533B4A43F46D
:100C5800E0639360394B9B6823F0F0027B689B68E4
:100C6800364913438B6008E07B69802B05D1334BF1
:100C78009B68324A23F0F00393602F4B1B6803F004
:100C88000F033A689A421DD22B4B1B6823F00F02C0
:100C980029493B6813430B60FFF700FCF8600AE042
:100CA800FFF7FCFB0246FB68D31A41F288329342F5
:100CB80001D903233BE0204B1B6803F00F033A687C
:100CC8009A42EDD17B681B6803F00403002B08D01F
:100CD8001A4B9B6823F4E0627B68DB68174913436F
:100CE8008B607B681B6803F00803002B09D0134B4B
:100CF8009B6823F460527B681B69DB000F49134330
:100D08008B6000F025F802460C4B9B681B0903F02A
:100D18000F030C49CB5C03F01F0322FA03F30A4AC2
:100D280013600A4B1B681846FFF76CFB034618460E
:100D38001837BD4680BD00BF0020024000100240A9
:100D480000B4C404141B00080000002004000020A4
:100D580080B487B000AF2C4B9B6803F00C03042BC6
:100D680002D12A4B3B6147E0274B9B6803F00C03F9
:100D7800082B02D1264B3B613EE0234B9B6803F0D6
:100D88000C030C2B36D1204BDB6803F00303FB600C
:100D98001D4BDB681B0903F00F030133BB60FB68C5
:100DA800032B0CD11A4ABB68B2FBF3F3164AD2687C
:100DB800120A02F07F0202FB03F37B610CE0134A84
:100DC800BB68B2FBF3F3104AD268120A02F07F0242
:100DD80002FB03F37B6100BF0B4BDB685B0E03F088
:100DE800030301335B007B607A697B68B2FBF3F332
:100DF8003B6101E000233B613B6918461C37BD4657
:100E08005DF8047B704700BF001002400024F40026
:100E180000127A0080B487B000AF1E4BDB6803F085
:100E280003033B611B4BDB681B0903F00F03013312
:100E3800FB603B69032B0CD1174AFB68B2FBF3F349
:100E4800144AD268120A02F07F0202FB03F37B61A4
:100E58000CE0124AFB68B2FBF3F30E4AD268120A9E
:100E680002F07F0202FB03F37B6100BF094BDB68E2
:100E78005B0E03F0030301335B00BB607A69BB6858
:100E8800B2FBF3F37B607B6818461C37BD465DF800
:100E9800047B70470010024000127A000024F4001E
:100EA80080B487B000AF7860396000237B6164E16B
:100EB8003B681A6801217B6901FA03F31340FB6060
:100EC800FB68002B00F056813B685B6803F0030366
:100ED800012B05D03B685B6803F00303022B30D17C
:100EE8007B689B683B617B695B00032202FA03F322
:100EF800DB433A6913403B613B68DA687B695B0016
:100F080002FA03F33A6913433B617B683A699A60D2
:100F18007B685B683B6101227B6902FA03F3DB4370
:100F28003A6913403B613B685B681B0903F00102A7
:100F38007B6902FA03F33A6913433B617B683A69B8
:100F48005A603B685B6803F00303032B09D13B68D5
:100F58005B6803F00303032B1BD13B689B68012BE1
:100F680017D07B68DB683B617B695B00032202FA70
:100F780003F3DB433A6913403B613B689A687B693A
:100F88005B0002FA03F33A6913433B617B683A69F1
:100F9800DA603B685B6803F00303022B23D17B69AB
:100FA800DA087B68083253F822303B617B6903F02A
:100FB80007039B000F2202FA03F3DB433A6913404D
:100FC8003B613B681A697B6903F007039B0002FADF
:100FD80003F33A6913433B617B69DA087B6808329B
:100FE800396943F822107B681B683B617B695B00A9
:100FF800032202FA03F3DB433A6913403B613B687F
:101008005B6803F003027B695B0002FA03F33A6949
:1010180013433B617B683A691A603B685B6803F479
:101028004033002B00F0A6805B4B1B6E5A4A43F0FE
:1010380001031366584B1B6E03F00103BB60BB68CA
:10104800564A7B699B08023352F823303B617B691F
:1010580003F003039B000F2202FA03F3DB433A6910
:1010680013403B617B68B3F1904F1FD07B684C4ABB
:10107800934219D07B684B4A934213D07B684A4A03
:1010880093420DD07B68494A934207D07B68484A0F
:10109800934201D105230AE0062308E0042306E071
:1010A800032304E0022302E0012300E000237A691D
:1010B80002F00302920093403A6913433B613749B7
:1010C8007B699B0802333A6941F82320394B9B68B6
:1010D8003B61FB68DB433A6913403B613B685B68F3
:1010E80003F48013002B03D03A69FB6813433B6178
:1010F800304A3B6993602F4BDB683B61FB68DB43FD
:101108003A6913403B613B685B6803F40013002BAA
:1011180003D03A69FB6813433B61264A3B69D360B5
:10112800244B5B683B61FB68DB433A6913403B61D6
:101138003B685B6803F40033002B03D03A69FB6813
:1011480013433B611B4A3B6953601A4B1B683B6165
:10115800FB68DB433A6913403B613B685B6803F417
:101168008033002B03D03A69FB6813433B61114A73
:101178003B6913607B6901337B613B681A687B6953
:1011880022FA03F3002B7FF493AE00BF00BF1C3795
:10119800BD465DF8047B7047001002400000014026
:1011A8000004004800080048000C004800100048EF
:1011B800001400480004014080B485B000AF786096
:1011C8000B467B807B681A697B881340002B02D012
:1011D8000123FB7301E00023FB73FB7B18461437E4
:1011E800BD465DF8047B704780B483B000AF78607B
:1011F8000B467B8013467B707B78002B03D07A8864
:101208007B689A6102E07A887B689A6200BF0C3733
:10121800BD465DF8047B704780B485B000AF786048
:101228007B68002B41D14B4B1B6803F4C063B3F5BB
:10123800806F31D1474BD3F88030464A23F480730E
:10124800C2F88030434B1B6823F4C063414A43F41F
:1012580000731360404B1B68322202FB03F33F4AC2
:10126800A2FB03239B0C0133FB6002E0FB68013BFC
:10127800FB60384B5B6903F48063B3F5806F02D180
:10128800FB68002BF2D1334B5B6903F48063B3F541
:10129800806F58D1032357E02E4BD3F880302D4A66
:1012A80023F48073C2F880304DE07B68B3F5007F8B
:1012B80041D1284B1B6803F4C063B3F5806F31D16B
:1012C800244BD3F88030234A43F48073C2F880302B
:1012D800204B1B6823F4C0631E4A43F40073136059
:1012E8001D4B1B68322202FB03F31C4AA2FB03239B
:1012F8009B0C0133FB6002E0FB68013BFB60154B74
:101308005B6903F48063B3F5806F02D1FB68002B3F
:10131800F2D1104B5B6903F48063B3F5806F12D18F
:10132800032311E00B4BD3F880300A4A43F480734F
:10133800C2F8803007E0074B1B6823F4C063054AF6
:1013480043F480631360002318461437BD465DF8E4
:10135800047B7047007000400000002083DE1B43C0
:1013680080B400AF054B9B68044A43F48043936004
:1013780000BFBD465DF8047B704700BF00700040A9
:1013880080B485B000AF78607B6803F00703FB602A
:101398000C4BDB68BB60BA684FF6FF031340BB60B9
:1013A800FB681A02BB68134343F0BF6343F400337E
:1013B800BB60044ABB68D36000BF1437BD465DF804
:1013C800047B704700ED00E080B400AF044BDB689D
:1013D8001B0A03F007031846BD465DF8047B7047F7
:1013E80000ED00E080B483B000AF03463960FB71C4
:1013F80097F90730002B0ADB3B68DAB20C4997F9FA
:1014080007301201D2B20B4483F800230AE03B688C
:10141800DAB20849FB7903F00F03043B1201D2B298
:101428000B441A7600BF0C37BD465DF8047B704745
:1014380000E100E000ED00E080B489B000AFF860A2
:10144800B9607A60FB6803F00703FB61FB69C3F1CD
:101458000703042B28BF0423BB61FB690433062B55
:1014680002D9FB69033B00E000237B614FF0FF32A8
:10147800BB6902FA03F3DA43BB681A407B699A40F6
:101488004FF0FF317B6901FA03F3D9437B680B40C6
:10149800134318462437BD465DF8047B70470000A7
:1014A80080B582B000AF78607B68013BB3F1807F84
:1014B80001D301230FE00A4A7B68013B53600F21E7
:1014C8004FF0FF30FFF78EFF054B00229A60044B68
:1014D80007221A60002318460837BD4680BD00BFA2
:1014E80010E000E080B582B000AF78607868FFF760
:1014F80047FF00BF0837BD4680BD80B586B000AF46
:101508000346B9607A60FB73FFF75EFF78617A681B
:10151800B9687869FFF790FF024697F90F301146CE
:101528001846FFF75FFF00BF1837BD4680BD80B57E
:1015380082B000AF78607868FFF7B2FF03461846BC
:101548000837BD4680BD000080B500AFFEF742FFFA
:1015580000F022F800F070F800F084F900F0AAF921
:1015680008210C48FFF728FE0346002B0CBF012377
:101578000023DBB2002B06D0012201214FF090405E
:10158800FFF732FEECE7002201214FF09040FFF711
:101598002BFEE5E70008004880B594B000AF07F1DE
:1015A800180338220021184600F09CFA3B1D00223F
:1015B8001A605A609A60DA601A614FF40070FFF797
:1015C8002BFE0223BB614FF480737B624023BB6216
:1015D80000237B6307F118031846FEF76BFF0346E9
:1015E800002B14BF01230023DBB2002B01D000F035
:1015F8001DF80F237B600123BB600023FB600023E1
:101608003B6100237B613B1D00211846FFF764FA0C
:101618000346002B14BF01230023DBB2002B01D0AB
:1016280000F004F800BF5037BD4680BD80B400AF5D
:1016380072B600BFFEE7000080B58CB000AF07F1BE
:101648001C0300221A605A609A60DA601A617F4BA4
:10165800DB6C7E4A43F00403D3647C4BDB6C03F001
:101668000403BB61BB69794BDB6C784A43F0200308
:10167800D364764BDB6C03F020037B617B69734B8F
:10168800DB6C724A43F04003D364704BDB6C03F0AD
:1016980040033B613B696D4BDB6C6C4A43F00103D3
:1016A800D3646A4BDB6C03F00103FB60FB68674B98
:1016B800DB6C664A43F00203D364644BDB6C03F0D3
:1016C8000203BB60BB68614BDB6C604A43F00803F4
:1016D800D3645E4BDB6C03F008037B607B680022FD
:1016E8004FF6C3715A48FFF77FFD0022032159487E
:1016F800FFF77AFD00224FF480615748FFF774FD29
:10170800002249F601114FF09040FFF76DFD0022CD
:101718004FF6F8315148FFF767FD00220421504881
:10172800FFF762FD4FF6C373FB6101233B620023A1
:101738007B620023BB6207F11C0319464448FFF78C
:10174800AFFB0323FB6101233B6200237B62002381
:10175800BB6207F11C0319463E48FFF7A1FB4FF493
:101768008063FB6101233B6200237B620023BB6231
:1017780007F11C0319463848FFF792FB0823FB6161
:1017880000233B6200237B6207F11C0319463048A3
:10179800FFF786FB49F60113FB6101233B62002337
:1017A8007B620023BB6207F11C0319464FF090408F
:1017B800FFF776FB3023FB6103233B6200237B6248
:1017C80007F11C0319462248FFF76AFB0323FB6154
:1017D80003233B6200237B6207F11C0319461F4861
:1017E800FFF75EFB4FF6F833FB6101233B620023F2
:1017F8007B620023BB6207F11C0319461748FFF7F9
:101808004FFB4FF4C063FB6102233B6200237B6202
:101818000023BB620723FB6207F11C0319464FF044
:101828009040FFF73DFB0423FB6101233B6200234B
:101838007B620023BB6207F11C0319460848FFF7C7
:101848002FFB00BF3037BD4680BD00BF00100240EF
:101858000008004800140048001800480004004828
:10186800000C004880B500AF104B114A1A600F4BAE
:1018780000225A600D4B00229A600C4B0022DA605D
:101888000A4B00221A61094B00221A75074B0022E5
:101898009A61064B0022DA620448FEF7CBFC034645
:1018A800002B01D0FFF7C2FE00BF80BD2C00002036
:1018B8000003014080B500AF104B114A1A600F4B6E
:1018C80000225A600D4B00229A600C4B0022DA600D
:1018D8000A4B00221A61094B00221A75074B002295
:1018E8009A61064B0022DA620448FEF7A3FC03461D
:1018F800002B01D0FFF79AFE00BF80BD68000020D2
:101908000403014080B58AB000AF786007F1140382
:1019180000221A605A609A60DA601A617B681B6854
:101928001F4A934219D11F4BDB6C1E4A43F0010337
:10193800D3641C4BDB6C03F001033B613B690E2352
:101948007B610323BB610023FB6107F11403194684
:101958004FF09040FFF7A4FA1DE07B681B68124A1D
:10196800934218D10F4BDB6C0E4A43F00103D3644A
:101978000C4BDB6C03F00103FB60FB68E0237B612D
:101988000323BB610023FB6107F1140319464FF0E1
:101998009040FFF785FA00BF2837BD4680BD00BFDD
:1019A80000030140001002400403014080B400AF6E
:1019B800FEE780B400AFFEE780B400AFFEE780B476
:1019C80000AFFEE780B400AFFEE780B400AF00BF11
:1019D800BD465DF8047B704780B400AF00BFBD46CC
:1019E8005DF8047B704780B400AF00BFBD465DF86A
:1019F800047B704780B500AFFEF73EFD00BF80BD99
:101A080080B582B000AF0F4B1B6E0E4A43F0010346
:101A180013660C4B1B6E03F001037B607B68094B5C
:101A28009B6D084A43F080539365064B9B6D03F00A
:101A380080533B603B68FFF793FC00BF0837BD4607
:101A480080BD00BF001002400D488546FEF7E0FB50
:101A58000C480D490D4A002302E0D458C450043301
:101A6800C4188C42F9D30A4A0A4C002301E01360D7
:101A78000432A242FBD300F011F8FFF765FDFEE740
:101A880000000220000000200C0000202C1B000891
:101A98000C000020A4000020FEE7000070B50D4DEA
:101AA8000D4C641BA4100026A64209D10B4D0C4C0A
:101AB80000F020F8641BA4100026A64205D170BDD2
:101AC80055F8043B98470136EEE755F8043B98472C
:101AD8000136F2E7241B0008241B0008241B000819
:101AE800281B000802440346934200D1704703F8BC
:101AF800011BF9E7F8B500BFF8BC08BC9E46704763
:0C1B0800F8B500BFF8BC08BC9E46704752
:101B14000000000000000000010203040607080999
:041B2400FD010008B7
:041B2800D9010008D7
:0C1B2C000024F400100000000100000084
:0400000508001A5184
:00000001FF
