:020000040800F2
:1000000000000220C5350008F1340008F73400086C
:10001000FD34000803350008093500080000000021
:100020000000000000000000000000000F35000884
:100030001D350008000000002B3500083935000888
:100040001536000815360008153600081536000864
:100050001536000815360008153600081536000854
:100060001536000815360008153600084535000815
:1000700059350008153600081536000815360008F1
:100080001536000815360008153600081536000824
:100090001536000815360008153600081536000814
:1000A0001536000815360008153600081536000804
:1000B00015360008153600081536000815360008F4
:1000C00015360008153600081536000815360008E4
:1000D00015360008153600081536000815360008D4
:1000E00015360008153600081536000815360008C4
:1000F00015360008153600081536000815360008B4
:1001000015360008153600081536000815360008A3
:100110001536000815360008153600081536000893
:100120001536000815360008153600081536000883
:100130001536000815360008153600081536000873
:100140001536000815360008153600081536000863
:100150001536000815360008153600081536000853
:100160001536000815360008153600081536000843
:100170001536000815360008153600081536000833
:100180001536000815360008153600081536000823
:100190001536000800000000153600081536000866
:1001A0001536000815360008153600081536000803
:1001B00015360008153600086D350008153600089C
:1001C00015360008153600081536000815360008E3
:0801D000153600081536000881
:1001D80010B5054C237833B9044B13B10448AFF379
:1001E80000800123237010BD0C00002000000000D7
:1001F8007036000808B5034B1BB103490348AFF339
:10020800008008BD000000001000002070360008C3
:1002180053B94AB9002908BF00281CBF4FF0FF3165
:100228004FF0FF3000F074B9ADF1080C6DE904CE61
:1002380000F006F8DDF804E0DDE9022304B07047B9
:100248002DE9F047089D04468E46002B4DD18A4281
:10025800944669D9B2FA82F252B101FA02F3C2F1B4
:10026800200120FA01F10CFA02FC41EA030E944045
:100278004FEA1C48210CBEFBF8F61FFA8CF708FB66
:1002880016E341EA034306FB07F199420AD91CEB3E
:10029800030306F1FF3080F01F81994240F21C8170
:1002A800023E63445B1AA4B2B3FBF8F008FB1033B8
:1002B80044EA034400FB07F7A7420AD91CEB0404ED
:1002C80000F1FF3380F00A81A74240F207816444BD
:1002D800023840EA0640E41B00261DB1D440002342
:1002E800C5E900433146BDE8F0878B4209D9002DA6
:1002F80000F0EF800026C5E9000130463146BDE830
:10030800F087B3FA83F6002E4AD18B4202D3824299
:1003180000F2F980841A61EB030301209E46002D48
:10032800E0D0C5E9004EDDE702B9FFDEB2FA82F29D
:10033800002A40F09280A1EB0C014FEA1C471FFAFB
:100348008CFE0126200CB1FBF7F307FB131140EAE2
:1003580001410EFB03F0884208D91CEB010103F1AF
:10036800FF3802D2884200F2CB804346091AA4B271
:10037800B1FBF7F007FB101144EA01440EFB00FE45
:10038800A64508D91CEB040400F1FF3102D2A645AA
:1003980000F2BB800846A4EB0E0440EA03409CE749
:1003A800C6F12007B34022FA07FC4CEA030C20FAF6
:1003B80007F401FA06F31C43F9404FEA1C4900FA16
:1003C80006F3B1FBF9F8200C1FFA8CFE09FB181193
:1003D80040EA014108FB0EF0884202FA06F20BD906
:1003E8001CEB010108F1FF3A80F08880884240F256
:1003F8008580A8F102086144091AA4B2B1FBF9F09A
:1004080009FB101144EA014100FB0EFE8E4508D994
:100418001CEB010100F1FF346CD28E456AD9023819
:10042800614440EA0840A0FB0294A1EB0E01A142FE
:10043800C846A64656D353D05DB1B3EB080261EB6C
:100448000E0101FA07F722FA06F3F1401F43C5E946
:10045800007100263146BDE8F087C2F12003D8407C
:100468000CFA02FC21FA03F3914001434FEA1C47BE
:100478001FFA8CFEB3FBF7F007FB10360B0C43EAB0
:10048800064300FB0EF69E4204FA02F408D91CEB60
:10049800030300F1FF382FD29E422DD9023863445E
:1004A8009B1B89B2B3FBF7F607FB163341EA0341FE
:1004B80006FB0EF38B4208D91CEB010106F1FF384D
:1004C80016D28B4214D9023E6144C91A46EA004644
:1004D80038E72E46284605E70646E3E61846F8E6D6
:1004E8004B45A9D2B9EB020864EB0C0E0138A3E71F
:1004F8004646EAE7204694E74046D1E7D0467BE700
:10050800023B614432E7304609E76444023842E777
:10051800704700BF80B400AF064BD3F88830054A57
:1005280043F47003C2F8883000BFBD465DF8047B11
:10053800704700BF00ED00E080B584B000AF786080
:100548000023FB737B68002B01D10123BBE07B6890
:1005580093F83A30DBB2052B01D10123B3E07B6875
:1005680093F83A30DBB2022B01D10123ABE0584BB0
:100578001B6E574A43F001031366554B1B6E03F07D
:100588000103BB60BB687B6893F83A30DBB2002B91
:1005980003D17B68002283F83920786802F050FE86
:1005A8007B689B68402B03D07B689B68602B33D1AA
:1005B8007B681B681B6823F010017B68DA6A7B681C
:1005C8001B680A431A607B681B681A68414B134012
:1005D8007A6851687A68926811437A6812690A439E
:1005E8007968097D012902D14FF4807100E000216A
:1005F80011437A68526A11437A68926A11437A6899
:10060800126BD20411437A68526B120611437A684E
:1006180012680B43136035E07B681B681B6823F086
:1006280010017B68DA6A7B681B680A431A607B687A
:100638001B681A68274B13407A6851687A68926871
:1006480011437A68D26811437A6812690A43796853
:10065800097D012902D14FF4807100E00021114386
:100668007A68526A11437A68926A11437A68126BFF
:10067800D20411437A68526B120611437A681268E1
:100688000B4313607B681B689B69002B10DB7B683E
:100698001B689B6923F03F017B689A697B68DB696B
:1006A8001A437B681B6A1A437B681B680A439A6172
:1006B8007B6893F83A30DBB2002B03D17B680122C8
:1006C80083F83A20FB7B18461037BD4680BD00BF33
:1006D80000100240113E00E080B582B000AF002358
:1006E800FB71032001F0EAFC0F2000F00DF803462F
:1006F800002B02D00123FB7101E002F03BFFFB79E4
:1007080018460837BD4680BD80B584B000AF786014
:100718000023FB73164B1B68002B22D0154B1A685D
:10072800134B1B684FF47A71B1FBF3F3B2FBF3F38D
:10073800184601F0F6FC0346002B0FD17B680F2BFF
:1007480009D8002279684FF0FF3001F0C2FC0A4A4C
:100758007B68136007E00123FB7304E00123FB734C
:1007680001E00123FB73FB7B18461037BD4680BDB3
:1007780008000020000000200400002080B400AF22
:10078800054B1A68054B1B681344034A136000BFE6
:10079800BD465DF8047B7047280000200800002053
:1007A80080B400AF034B1B681846BD465DF8047B58
:1007B800704700BF2800002080B588B000AF78607F
:1007C8007B68002B01D10123FEE27B681B6803F0E4
:1007D8000103002B75D0974B9B6803F00C03BB619A
:1007E800944BDB6803F003037B61BB690C2B02D1DC
:1007F8007B69032B02D0BB69082B0BD18D4B1B687F
:1008080003F40033002B5BD07B685B68002B57D167
:100818000123D9E27B685B68B3F5803F06D1854B3D
:100828001B68844A43F4803313601DE07B685B686F
:10083800B3F5A02F0CD17F4B1B687E4A43F480236D
:1008480013607C4B1B687B4A43F4803313600BE0D6
:10085800784B1B68774A23F480331360754B1B6809
:10086800744A23F4802313607B685B68002B13D0E1
:10087800FFF796FF386108E0FFF792FF02463B69F1
:10088800D31A642B01D903239EE26A4B1B6803F435
:100898000033002BF0D014E0FFF782FF386108E046
:1008A800FFF77EFF02463B69D31A642B01D9032365
:1008B8008AE2604B1B6803F40033002BF0D100E0A0
:1008C80000BF7B681B6803F00203002B75D0594BEF
:1008D8009B6803F00C03BB61564BDB6803F0030312
:1008E8007B61BB690C2B02D17B69022B02D0BB69EF
:1008F800042B1FD14F4B1B6803F48063002B05D0DA
:100908007B68DB68002B01D101235DE2494B5B6802
:1009180023F0FE427B681B691B06464913434B6064
:10092800454B1B681846FFF7EFFE0346002B43D0E4
:10093800012349E27B68DB68002B23D03D4B1B6811
:100948003C4A43F480731360FFF72AFF386108E0DC
:10095800FFF726FF02463B69D31A022B01D903236E
:1009680032E2344B1B6803F48063002BF0D0314B28
:100978005B6823F0FE427B681B691B062D49134305
:100988004B601AE02B4B1B682A4A23F480731360D0
:10099800FFF706FF386108E0FFF702FF02463B69F0
:1009A800D31A022B01D903230EE2224B1B6803F44E
:1009B8008063002BF0D100E000BF7B681B6803F068
:1009C8000803002B41D07B685B69002B1CD0194BB6
:1009D800D3F89430174A43F00103C2F89430FFF774
:1009E800DFFE386108E0FFF7DBFE02463B69D31AF9
:1009F800022B01D90323E7E10E4BD3F8943003F01F
:100A08000203002BEFD020E00A4BD3F89430094AB8
:100A180023F00103C2F89430FFF7C2FE38610DE0FD
:100A2800FFF7BEFE02463B69D31A022B06D9032301
:100A3800CAE100BF00100240040000208C4BD3F82C
:100A4800943003F00203002BEAD17B681B6803F0A3
:100A58000403002B00F0A6800023FB77844B9B6DDA
:100A680003F08053002B01D1012300E00023002B69
:100A78000DD07F4B9B6D7E4A43F0805393657C4B32
:100A88009B6D03F08053FB60FB680123FB77794B78
:100A98001B6803F48073002B18D1764B1B68754ACA
:100AA80043F480731360FFF77BFE386108E0FFF7BB
:100AB80077FE02463B69D31A022B01D9032383E14F
:100AC8006C4B1B6803F48073002BF0D07B689B6829
:100AD800012B08D1664BD3F89030654A43F00103E7
:100AE800C2F8903024E07B689B68052B10D1604BDE
:100AF800D3F890305E4A43F00403C2F890305C4B60
:100B0800D3F890305A4A43F00103C2F890300FE00E
:100B1800574BD3F89030564A23F00103C2F890306F
:100B2800534BD3F89030524A23F00403C2F8903064
:100B38007B689B68002B16D0FFF732FE38610AE00D
:100B4800FFF72EFE02463B69D31A41F288329342E0
:100B580001D9032338E1464BD3F8903003F0020360
:100B6800002BEDD015E0FFF71BFE38610AE0FFF718
:100B780017FE02463B69D31A41F28832934201D9E3
:100B8800032321E13A4BD3F8903003F00203002B02
:100B9800EDD1FB7F012B05D1354B9B6D344A23F0FA
:100BA800805393657B681B6803F02003002B3CD0BF
:100BB8007B689B69002B1CD02D4BD3F898302C4AAE
:100BC80043F00103C2F89830FFF7EAFD386108E006
:100BD800FFF7E6FD02463B69D31A022B01D903232E
:100BE800F2E0234BD3F8983003F00203002BEFD048
:100BF8001BE01F4BD3F898301D4A23F00103C2F8BD
:100C08009830FFF7CDFD386108E0FFF7C9FD0246CF
:100C18003B69D31A022B01D90323D5E0144BD3F82F
:100C2800983003F00203002BEFD17B68DB69002BBF
:100C380000F0C9800E4B9B6803F00C030C2B00F0EE
:100C480083807B68DB69022B5ED1094B1B68084AED
:100C580023F080731360FFF7A3FD38610CE0FFF702
:100C68009FFD02463B69D31A022B05D90323ABE04B
:100C78000010024000700040554B1B6803F00073E1
:100C8800002BECD1524BDA68524B13407A68116A48
:100C98007A68526A013A120111437A68926A12021A
:100CA80011437A68126B5208013A520511437A6867
:100CB800526B5208013A520611437A68D26AD20638
:100CC8000A4343491343CB60414B1B68404A43F0F6
:100CD800807313603E4BDB683D4A43F08073D360FA
:100CE800FFF75EFD386108E0FFF75AFD02463B69F1
:100CF800D31A022B01D9032366E0354B1B6803F096
:100D08000073002BF0D05EE0314B1B68304A23F0B3
:100D180080731360FFF744FD386108E0FFF740FD7A
:100D280002463B69D31A022B01D903234CE0284B16
:100D38001B6803F00073002BF0D1254BDA682449B7
:100D4800254B1340CB603EE07B68DB69012B01D16A
:100D5800012339E01E4BDB687B617B6903F00302EA
:100D68007B681B6A9A422CD17B6903F0F0027B688E
:100D78005B6A013B1B019A4223D17B6903F4FE4263
:100D88007B689B6A1B029A421BD17B6903F07842FD
:100D98007B68DB6ADB069A4213D17B6903F4C002E5
:100DA8007B681B6B5B08013B5B059A4209D17B6939
:100DB80003F0C0627B685B6B5B08013B5B069A4291
:100DC80001D0012300E0002318462037BD4680BD2E
:100DD800001002400C809F01FCFFEEFE80B586B03B
:100DE80000AF7860396000237B617B68002B01D1FC
:100DF80001231EE1914B1B6803F00F033A689A42E6
:100E080010D98E4B1B6823F00F028C493B681343A3
:100E18000B608A4B1B6803F00F033A689A4201D0B3
:100E2800012306E17B681B6803F00103002B73D0E4
:100E38007B685B68032B29D1814B1B6803F0007327
:100E4800002B01D10123F4E000F09EF938613B69E1
:100E58007C4A93423FD97A4B9B6803F0F003002BFE
:100E680009D07B681B6803F00203002B33D07B6832
:100E78009B68002B2FD1724B9B6823F0F003704ABC
:100E880043F08003936080237B6124E07B685B6888
:100E9800022B07D16A4B1B6803F40033002B09D1DE
:100EA8000123C6E0664B1B6803F48063002B01D165
:100EB8000123BEE000F0CEF838613B69614A9342F5
:100EC80009D95F4B9B6823F0F0035D4A43F0800328
:100ED800936080237B615A4B9B6823F003027B68F5
:100EE8005B68574913438B60FFF75AFCF8600AE0C8
:100EF800FFF756FC0246FB68D31A41F28832934248
:100F080001D9032395E04E4B9B6803F00C027B68E4
:100F18005B689B009A42EBD17B681B6803F0020375
:100F2800002B23D07B681B6803F00403002B05D03B
:100F3800434B9B68424A43F4E06393607B681B68B9
:100F480003F00803002B07D03D4B9B6823F47C5328
:100F58003B4A43F4E0639360394B9B6823F0F0020B
:100F68007B689B68364913438B6008E07B69802B5C
:100F780005D1334B9B68324A23F0F00393602F4B23
:100F88001B6803F00F033A689A421DD22B4B1B686B
:100F980023F00F0229493B6813430B60FFF700FC5D
:100FA800F8600AE0FFF7FCFB0246FB68D31A41F23F
:100FB8008832934201D903233BE0204B1B6803F09E
:100FC8000F033A689A42EDD17B681B6803F004036B
:100FD800002B08D01A4B9B6823F4E0627B68DB681F
:100FE800174913438B607B681B6803F00803002BC9
:100FF80009D0134B9B6823F460527B681B69DB00A4
:101008000F4913438B6000F025F802460C4B9B6890
:101018001B0903F00F030C49CB5C03F01F0322FAF2
:1010280003F30A4A13600A4B1B681846FFF76CFB68
:10103800034618461837BD4680BD00BF0020024051
:101048000010024000B4C4048836000800000020E4
:101058000400002080B487B000AF2C4B9B6803F0DD
:101068000C03042B02D12A4B3B6147E0274B9B68BA
:1010780003F00C03082B02D1264B3B613EE0234BC7
:101088009B6803F00C030C2B36D1204BDB6803F074
:101098000303FB601D4BDB681B0903F00F030133DF
:1010A800BB60FB68032B0CD11A4ABB68B2FBF3F395
:1010B800164AD268120A02F07F0202FB03F37B6130
:1010C8000CE0134ABB68B2FBF3F3104AD268120A69
:1010D80002F07F0202FB03F37B6100BF0B4BDB686E
:1010E8005B0E03F0030301335B007B607A697B6866
:1010F800B2FBF3F33B6101E000233B613B69184617
:101108001C37BD465DF8047B704700BF00100240E5
:101118000024F40000127A0080B400AF034B1B686F
:101128001846BD465DF8047B704700BF00000020EC
:1011380080B500AFFFF7F0FF0246064B9B681B0A1D
:1011480003F007030449CB5C03F01F0322FA03F3FF
:10115800184680BD001002409836000880B500AFE0
:10116800FFF7DAFF0246064B9B68DB0A03F007032A
:101178000449CB5C03F01F0322FA03F3184680BD31
:10118800001002409836000880B487B000AF1E4BAC
:10119800DB6803F003033B611B4BDB681B0903F0AF
:1011A8000F030133FB603B69032B0CD1174AFB6823
:1011B800B2FBF3F3144AD268120A02F07F0202FB70
:1011C80003F37B610CE0124AFB68B2FBF3F30E4AAF
:1011D800D268120A02F07F0202FB03F37B6100BFB0
:1011E800094BDB685B0E03F0030301335B00BB6054
:1011F8007A69BB68B2FBF3F37B607B6818461C37DF
:10120800BD465DF8047B70470010024000127A006A
:101218000024F40080B586B000AF78600023FB742A
:101228000023BB747B681B6803F40023002B00F0C9
:10123800988000237B74434B9B6D03F08053002BF5
:101248000DD1404B9B6D3F4A43F0805393653D4B16
:101258009B6D03F08053BB60BB6801237B743A4BE2
:101268001B68394A43F480731360FFF799FAF860F2
:1012780009E0FFF795FA0246FB68D31A022B02D958
:101288000323FB7405E0304B1B6803F48073002BC9
:10129800EFD0FB7C002B59D12A4BD3F8903003F4C4
:1012A80040737B617B69002B1ED07B681B6D7A695C
:1012B8009A4219D0234BD3F8903023F440737B61C2
:1012C800204BD3F890301F4A43F48033C2F8903053
:1012D8001C4BD3F890301B4A23F48033C2F890306B
:1012E800184A7B69C2F890307B6903F00103002B30
:1012F80016D0FFF755FAF8600BE0FFF751FA0246EF
:10130800FB68D31A41F28832934202D90323FB7453
:1013180006E00C4BD3F8903003F00203002BECD01E
:10132800FB7C002B0BD1074BD3F8903023F4407291
:101338007B681B6D03491343C1F8903008E0FB7CC0
:10134800BB7405E00010024000700040FB7CBB74D9
:101358007B7C012B05D1A74B9B6DA64A23F08053BC
:1013680093657B681B6803F00103002B0AD0A14B2F
:10137800D3F8883023F003027B685B689D491343E8
:10138800C1F888307B681B6803F00203002B0AD081
:10139800984BD3F8883023F00C027B689B689549FA
:1013A8001343C1F888307B681B6803F00403002BE3
:1013B8000AD0904BD3F8883023F030027B68DB6882
:1013C8008C491343C1F888307B681B6803F0080315
:1013D800002B0AD0874BD3F8883023F0C0027B68F3
:1013E8001B6984491343C1F888307B681B6803F084
:1013F8001003002B0AD07F4BD3F8883023F44072B7
:101408007B685B697B491343C1F888307B681B683C
:1014180003F02003002B0AD0764BD3F8883023F44E
:1014280040627B689B6973491343C1F888307B68C5
:101438001B6803F04003002B0AD06E4BD3F88830AA
:1014480023F440527B68DB696A491343C1F888304A
:101458007B681B6803F08003002B0AD0654BD3F828
:10146800883023F440427B681B6A62491343C1F801
:1014780088307B681B6803F48073002B0AD05D4BAF
:10148800D3F8883023F440327B685B6A59491343A8
:10149800C1F888307B681B6803F40033002B0AD03E
:1014A800544BD3F89C3023F003027B689B6A514964
:1014B8001343C1F89C307B681B6803F40073002B4E
:1014C8000AD04C4BD3F8883023F440227B68DB6A7F
:1014D80048491343C1F888307B681B6803F480636C
:1014E800002B15D0434BD3F8883023F440127B6887
:1014F8001B6B40491343C1F888307B681B6BB3F5FD
:10150800801F05D13B4BDB683A4A43F48013D36014
:101518007B681B6803F40063002B15D0354BD3F8A8
:10152800883023F440027B685B6B32491343C1F86F
:1015380088307B685B6BB3F5800F05D12D4BDB687A
:101548002C4A43F48013D3607B681B6803F48053F0
:10155800002B15D0274BD3F8883023F040727B68D6
:101568009B6B24491343C1F888307B689B6BB3F1AC
:10157800807F05D11F4BDB681E4A43F48013D3607C
:101588007B681B6803F40053002B15D0194BD3F864
:10159800883023F040627B68DB6B16491343C1F83F
:1015A80088307B68DB6BB3F1006F05D1114BDB68CA
:1015B800104A43F48013D3607B681B6803F48043AC
:1015C800002B19D00B4BD3F8883023F040627B688E
:1015D8001B6C08491343C1F888307B681B6CB3F156
:1015E800006F09D1034BDB68024A43F48013D360D0
:1015F80002E000BF001002407B681B6803F4004350
:10160800002B15D0294BD3F8883023F040527B6843
:101618005B6C26491343C1F888307B685B6CB3F177
:10162800805F05D1214BDB68204A43F48033D360C7
:101638007B681B6803F48033002B15D01B4BD3F851
:10164800883023F040427B689B6C18491343C1F8EB
:1016580088307B689B6CB3F1804F05D1134BDB68F6
:10166800124A43F48033D3607B681B6803F48023F9
:10167800002B15D00D4BD3F89C3023F440127B6817
:10168800DB6C0A491343C1F89C307B68DB6CB3F50B
:10169800001F05D1054BDB68044A43F48013D3606F
:1016A800BB7C18461837BD4680BD00BF00100240FD
:1016B80080B487B000AF7860396000237B6164E153
:1016C8003B681A6801217B6901FA03F31340FB6048
:1016D800FB68002B00F056813B685B6803F003034E
:1016E800012B05D03B685B6803F00303022B30D164
:1016F8007B689B683B617B695B00032202FA03F30A
:10170800DB433A6913403B613B68DA687B695B00FD
:1017180002FA03F33A6913433B617B683A699A60BA
:101728007B685B683B6101227B6902FA03F3DB4358
:101738003A6913403B613B685B681B0903F001028F
:101748007B6902FA03F33A6913433B617B683A69A0
:101758005A603B685B6803F00303032B09D13B68BD
:101768005B6803F00303032B1BD13B689B68012BC9
:1017780017D07B68DB683B617B695B00032202FA58
:1017880003F3DB433A6913403B613B689A687B6922
:101798005B0002FA03F33A6913433B617B683A69D9
:1017A800DA603B685B6803F00303022B23D17B6993
:1017B800DA087B68083253F822303B617B6903F012
:1017C80007039B000F2202FA03F3DB433A69134035
:1017D8003B613B681A697B6903F007039B0002FAC7
:1017E80003F33A6913433B617B69DA087B68083283
:1017F800396943F822107B681B683B617B695B0091
:10180800032202FA03F3DB433A6913403B613B6866
:101818005B6803F003027B695B0002FA03F33A6931
:1018280013433B617B683A691A603B685B6803F461
:101838004033002B00F0A6805B4B1B6E5A4A43F0E6
:1018480001031366584B1B6E03F00103BB60BB68B2
:10185800564A7B699B08023352F823303B617B6907
:1018680003F003039B000F2202FA03F3DB433A69F8
:1018780013403B617B68B3F1904F1FD07B684C4AA3
:10188800934219D07B684B4A934213D07B684A4AEB
:1018980093420DD07B68494A934207D07B68484AF7
:1018A800934201D105230AE0062308E0042306E059
:1018B800032304E0022302E0012300E000237A6905
:1018C80002F00302920093403A6913433B6137499F
:1018D8007B699B0802333A6941F82320394B9B689E
:1018E8003B61FB68DB433A6913403B613B685B68DB
:1018F80003F48013002B03D03A69FB6813433B6160
:10190800304A3B6993602F4BDB683B61FB68DB43E4
:101918003A6913403B613B685B6803F40013002B92
:1019280003D03A69FB6813433B61264A3B69D3609D
:10193800244B5B683B61FB68DB433A6913403B61BE
:101948003B685B6803F40033002B03D03A69FB68FB
:1019580013433B611B4A3B6953601A4B1B683B614D
:10196800FB68DB433A6913403B613B685B6803F4FF
:101978008033002B03D03A69FB6813433B61114A5B
:101988003B6913607B6901337B613B681A687B693B
:1019980022FA03F3002B7FF493AE00BF00BF1C377D
:1019A800BD465DF8047B704700100240000001400E
:1019B8000004004800080048000C004800100048D7
:1019C800001400480004014080B485B000AF78607E
:1019D8000B467B807B681A697B881340002B02D0FA
:1019E8000123FB7301E00023FB73FB7B18461437CC
:1019F800BD465DF8047B704780B483B000AF786063
:101A08000B467B8013467B707B78002B03D07A884B
:101A18007B689A6102E07A887B689A6200BF0C371B
:101A2800BD465DF8047B704780B584B000AF786030
:101A38007B68002B01D101238EE07B681B681A4666
:101A4800474B9A420FD87B681B681A46454B13448C
:101A5800454AA2FB03231B099A007B685A647B68EA
:101A6800424A1A640EE07B681B681A46404B1344CE
:101A78003D4AA2FB03231B099A007B685A647B68D2
:101A88003C4A1A647B68022283F825207B681B681D
:101A98001B68FB60FB6823F4FF4323F07003FB60C3
:101AA8007B689A687B68DB681A437B681B691A4302
:101AB8007B685B691A437B689B691A437B68DB69AF
:101AC8001A437B681B6A1343FA681343FB607B68FD
:101AD8001B68FA681A60786800F0FEF87B689B68F3
:101AE800B3F5804F02D17B6800225A607B685A6840
:101AF8007B689B6C02F07F021A607B68DB6C7A68FB
:101B0800126D5A607B685B68002B10D07B685B683D
:101B1800042B0CD8786800F027F97B685B6D0022ED
:101B28001A607B689B6D7A68D26D5A6008E07B68A2
:101B380000225A657B6800229A657B680022DA6574
:101B48007B680022DA637B68012283F825207B68A2
:101B5800002283F82420002318461037BD4680BD94
:101B680007040240F8FFFDBFCDCCCCCC00000240FA
:101B7800F8FBFDBF0004024080B584B000AF786078
:101B88007B681B6C1B68FB607B681B681B68BB6001
:101B98007B685B6C03F01F0304229A40FB681340C8
:101BA800002B26D0BB6803F00403002B21D07B68F0
:101BB8001B681B6803F02003002B07D17B681B6898
:101BC8001A687B681B6822F004021A607B685B6CE9
:101BD80003F01F027B681B6C042101FA02F25A60B1
:101BE8007B681B6B002B71D07B681B6B78689847F0
:101BF8006CE07B685B6C03F01F0302229A40FB6871
:101C08001340002B2ED0BB6803F00203002B29D011
:101C18007B681B681B6803F02003002B0BD17B68D3
:101C28001B681A687B681B6822F00A021A607B68C6
:101C3800012283F825207B685B6C03F01F027B6818
:101C48001B6C022101FA02F25A607B68002283F8B9
:101C580024207B68DB6A002B38D07B68DB6A7868D5
:101C6800984733E07B685B6C03F01F0308229A40B7
:101C7800FB681340002B2AD0BB6803F00803002B35
:101C880025D07B681B681A687B681B6822F00E02E7
:101C98001A607B685B6C03F01F027B681B6C012178
:101CA80001FA02F25A607B680122DA637B6801223A
:101CB80083F825207B68002283F824207B685B6BEF
:101CC800002B04D07B685B6B7868984700BF00BF27
:101CD8001037BD4680BD000080B487B000AF786083
:101CE8007B681B681A461B4B9A420BD81A4B3B6100
:101CF8007B681B68DBB2083B184AA2FB03231B095D
:101D08007B610BE0164B3B617B681B68DBB2083BD1
:101D1800124AA2FB03231B0908337B613B69FB6062
:101D28007B685B6C9B089A00FB6813441A467B68C7
:101D38009A647B680B4ADA647B6903F01F0301220B
:101D48009A407B681A6500BF1C37BD465DF8047B66
:101D5800704700BF0704024000080240CDCCCCCC3D
:101D6800200802408008024080B485B000AF786047
:101D78007B685B6803F07F03FB60FA680B4B1344D6
:101D88009B001A467B685A657B68094A9A65FB6816
:101D9800013B03F01F0301229A407B68DA6500BF0C
:101DA8001437BD465DF8047B704700BF3F820010C2
:101DB8004009024080B485B000AF78607B68002B92
:101DC80041D14B4B1B6803F4C063B3F5806F31D12D
:101DD800474BD3F88030464A23F48073C2F88030EA
:101DE800434B1B6823F4C063414A43F400731360F8
:101DF800404B1B68322202FB03F33F4AA2FB03233A
:101E08009B0C0133FB6002E0FB68013BFB60384B35
:101E18005B6903F48063B3F5806F02D1FB68002B24
:101E2800F2D1334B5B6903F48063B3F5806F58D10B
:101E3800032357E02E4BD3F880302D4A23F48073C8
:101E4800C2F880304DE07B68B3F5007F41D1284B64
:101E58001B6803F4C063B3F5806F31D1244BD3F80A
:101E68008030234A43F48073C2F88030204B1B68CB
:101E780023F4C0631E4A43F4007313601D4B1B68B0
:101E8800322202FB03F31C4AA2FB03239B0C0133FF
:101E9800FB6002E0FB68013BFB60154B5B6903F4E8
:101EA8008063B3F5806F02D1FB68002BF2D1104B31
:101EB8005B6903F48063B3F5806F12D1032311E0EB
:101EC8000B4BD3F880300A4A43F48073C2F8803051
:101ED80007E0074B1B6823F4C063054A43F480639B
:101EE8001360002318461437BD465DF8047B70471D
:101EF800007000400000002083DE1B4380B400AF68
:101F0800054B9B68044A43F48043936000BFBD4679
:101F18005DF8047B704700BF0070004080B485B056
:101F280000AF78607B6803F00703FB600C4BDB684D
:101F3800BB60BA684FF6FF031340BB60FB681A0228
:101F4800BB68134343F0BF6343F40033BB60044AE8
:101F5800BB68D36000BF1437BD465DF8047B70478B
:101F680000ED00E080B400AF044BDB681B0A03F00F
:101F780007031846BD465DF8047B704700ED00E096
:101F880080B483B000AF0346FB7197F90730002B8C
:101F98000BDBFB7903F01F02074997F907305B0950
:101FA800012000FA02F241F8232000BF0C37BD4699
:101FB8005DF8047B704700BF00E100E080B483B0A7
:101FC80000AF03463960FB7197F90730002B0ADB35
:101FD8003B68DAB20C4997F907301201D2B20B44C8
:101FE80083F800230AE03B68DAB20849FB7903F07A
:101FF8000F03043B1201D2B20B441A7600BF0C3710
:10200800BD465DF8047B704700E100E000ED00E0AC
:1020180080B489B000AFF860B9607A60FB6803F0FB
:102028000703FB61FB69C3F10703042B28BF0423E3
:10203800BB61FB690433062B02D9FB69033B00E053
:1020480000237B614FF0FF32BB6902FA03F3DA43E6
:10205800BB681A407B699A404FF0FF317B6901FAEF
:1020680003F3D9437B680B40134318462437BD4616
:102078005DF8047B7047000080B582B000AF7860DF
:102088007B68013BB3F1807F01D301230FE00A4A4B
:102098007B68013B53600F214FF0FF30FFF78EFF45
:1020A800054B00229A60044B07221A600023184649
:1020B8000837BD4680BD00BF10E000E080B582B0A3
:1020C80000AF78607868FFF729FF00BF0837BD4682
:1020D80080BD80B586B000AF0346B9607A60FB73F7
:1020E800FFF740FF78617A68B9687869FFF790FF71
:1020F800024697F90F3011461846FFF75FFF00BFF9
:102108001837BD4680BD80B582B000AF0346FB716D
:1021180097F907301846FFF733FF00BF0837BD4669
:1021280080BD80B582B000AF78607868FFF7A4FF03
:10213800034618460837BD4680BD80B582B000AF5B
:1021480078607B68002B01D1012342E07B68D3F8DB
:102158008830002B06D17B68002283F884207868B9
:1021680001F00EF97B682422C3F888207B681B687D
:102178001A687B681B6822F001021A607B689B6AF8
:10218800002B02D0786800F025FB786800F026F86C
:102198000346012B01D101231BE07B681B685A68A9
:1021A8007B681B6822F490425A607B681B689A68B7
:1021B8007B681B6822F02A029A607B681B681A6891
:1021C8007B681B6842F001021A60786800F0A4FB83
:1021D800034618460837BD4680BD00002DE9B04FBC
:1021E8008CB000AF7861002387F82A307B699A6841
:1021F8007B691B691A437B695B691A437B69DB69E5
:102208001343FB627B691B681A68AA4B13407A69FF
:102218001268F96A0B4313607B691B685B6823F4D7
:1022280040517B69DA687B691B680A435A607B699D
:102238009B69FB627B691B689F4A934204D07B6958
:102248001B6AFA6A1343FB627B691B689B6823F06D
:102258006E4323F430637A691268F96A0B4393601A
:102268007B691B68DB6A23F00F017B695A6A7B690B
:102278001B680A43DA627B691B68904A934225D13E
:102288008F4BD3F8883003F00303032B1AD801A22D
:1022980052F823F0AD220008BD220008B52200083C
:1022A800C5220008012387F82B3016E1022387F89E
:1022B8002B3012E1042387F82B300EE1082387F82E
:1022C8002B300AE1102387F82B3006E17B691B6865
:1022D8007C4A934238D17A4BD3F8883003F00C0308
:1022E8000C2B2DD801A252F823F000BF2923000897
:1022F8004923000849230008492300083923000816
:10230800492300084923000849230008312300080D
:1023180049230008492300084923000841230008ED
:10232800002387F82B30D8E0022387F82B30D4E03D
:10233800042387F82B30D0E0082387F82B30CCE033
:10234800102387F82B30C8E07B691B685E4A9342EC
:1023580025D15B4BD3F8883003F03003302B16D0EF
:10236800302B18D8202B0AD0202B14D8002B02D0C1
:10237800102B08D00FE0002387F82B30ADE00223A4
:1023880087F82B30A9E0042387F82B30A5E0082331
:1023980087F82B30A1E0102387F82B309DE07B696C
:1023A8001B684A4A934225D1454BD3F8883003F03D
:1023B800C003C02B16D0C02B18D8802B0AD0802B76
:1023C80014D8002B02D0402B08D00FE0002387F848
:1023D8002B3082E0022387F82B307EE0042387F835
:1023E8002B307AE0082387F82B3076E0102387F823
:1023F8002B3072E07B691B68354A93422AD1304BF7
:10240800D3F8883003F44073B3F5407F1AD0B3F59E
:10241800407F1BD8B3F5007F0CD0B3F5007F15D8EB
:10242800002B03D0B3F5807F08D00FE0002387F896
:102438002B3052E0022387F82B304EE0042387F834
:102448002B304AE0082387F82B3046E0102387F822
:102458002B3042E07B691B68174A93423AD1184BEC
:10246800D3F8883003F44063B3F5406F1AD0B3F55E
:10247800406F1BD8B3F5006F0CD0B3F5006F15D8BB
:10248800002B03D0B3F5806F08D00FE0002387F846
:102498002B3022E0022387F82B301EE0042387F834
:1024A8002B301AE0082387F82B3016E0102387F822
:1024B8002B3012E0F369FFCF008000400038014064
:1024C800001002400044004000480040004C00401A
:1024D80000500040102387F82B307B691B68AE4AF8
:1024E800934240F0978097F82B30082B23D801A20D
:1024F80052F823F0212500083F2500082925000867
:102508003F2500082F2500083F2500083F25000823
:102518003F25000837250008FEF70AFE786210E01C
:102528009E4B7B620DE0FEF795FD786209E04FF463
:1025380000437B6205E000237B62012387F82A3091
:1025480000BF7B6A002B00F030817B695B6A944A8C
:1025580032F813301A467B6AB3FBF2F3BB617B692E
:102568005A6813465B001344BA699A4205D37B69DB
:102578005B681B03BA699A4203D9012387F82A309A
:1025880013E17B6A0022BB60FA607B695B6A844A5C
:1025980032F813309BB200223B607A60D7E90023FF
:1025A800D7E90201FDF734FE02460B4610461946EC
:1025B8004FF000024FF000030B0243EA10630202DF
:1025C80079694968490800200C46054612EB040859
:1025D80043EB05097B695B6800229A46934652469D
:1025E8005B4640464946FDF713FE02460B46134636
:1025F8003B623B6AB3F5407F08D33B6AB3F5801F63
:1026080004D27B691B683A6ADA60CEE0012387F856
:102618002A30CAE07B69DB69B3F5004F66D197F8C9
:102628002B30082B27D801A252F823F0592600088E
:1026380061260008692600087F2600086F26000822
:102648007F2600087F2600087F26000877260008D6
:10265800FEF76EFD786214E0FEF780FD786210E008
:102668004E4B7B620DE0FEF7F5FC786209E04FF413
:1026780000437B6205E000237B62012387F82A3050
:1026880000BF7B6A002B00F090807B695B6A444A3C
:1026980032F813301A467B6AB3FBF2F35A007B69AF
:1026A8005B685B081A447B695B68B2FBF3F33B62C7
:1026B8003B6A0F2B16D93B6AB3F5803F12D23B6AAF
:1026C8009BB223F00F03FB833B6A5B089BB203F0CA
:1026D80007039AB2FB8B1343FB837B691B68FA8B56
:1026E800DA6062E0012387F82A305EE097F82B3041
:1026F800082B28D801A252F823F000BF2927000888
:1027080031270008392700084F2700083F2700080D
:102718004F2700084F2700084F27000847270008C1
:10272800FEF706FD786214E0FEF718FD786210E007
:102738001A4B7B620DE0FEF78DFC786209E04FF4DE
:1027480000437B6205E000237B62012387F82A307F
:1027580000BF7B6A002B28D07B695B6A104A32F87D
:1027680013301A467B6AB3FBF2F27B695B685B083D
:102778001A447B695B68B2FBF3F33B623B6A0F2B3D
:1027880010D93B6AB3F5803F0CD23B6A9AB27B6999
:102798001B68DA6009E000BF008000400024F400F4
:1027A800A0360008012387F82A307B690122A3F8A4
:1027B8006A207B690122A3F868207B6900225A6796
:1027C8007B6900229A6797F82A3018463037BD4649
:1027D800BDE8B08F80B483B000AF78607B689B6A37
:1027E80003F00803002B0AD07B681B685B6823F49E
:1027F80000417B689A6B7B681B680A435A607B6858
:102808009B6A03F00103002B0AD07B681B685B6896
:1028180023F400317B68DA6A7B681B680A435A60D4
:102828007B689B6A03F00203002B0AD07B681B6855
:102838005B6823F480317B681A6B7B681B680A43EA
:102848005A607B689B6A03F00403002B0AD07B68FC
:102858001B685B6823F480217B685A6B7B681B6864
:102868000A435A607B689B6A03F01003002B0AD066
:102878007B681B689B6823F480517B68DA6B7B68F4
:102888001B680A439A607B689B6A03F02003002B4D
:102898000AD07B681B689B6823F400517B681A6C1C
:1028A8007B681B680A439A607B689B6A03F0400355
:1028B800002B1AD07B681B685B6823F480117B6847
:1028C8005A6C7B681B680A435A607B685B6CB3F57B
:1028D800801F0AD17B681B685B6823F4C0017B6892
:1028E8009A6C7B681B680A435A607B689B6A03F092
:1028F8008003002B0AD07B681B685B6823F40021E7
:102908007B68DA6C7B681B680A435A6000BF0C3727
:10291800BD465DF8047B704780B598B002AF78601B
:102928007B680022C3F89020FDF73AFF78657B6842
:102938001B681B6803F00803082B2FD16FF07E4338
:1029480000937B6D00224FF40011786800F08EF838
:102958000346002B22D07B681B68BB63BB6B53E824
:10296800003F7B637B6B23F080033B657B681B68C0
:102978001A463B6D7B643A64396C7A6C41E80023F3
:10298800FB63FB6B002BE6D17B682022C3F8882011
:102998007B68002283F88420032363E07B681B683C
:1029A8001B6803F00403042B49D16FF07E430093A6
:1029B8007B6D00224FF48001786800F057F80346D9
:1029C800002B3CD07B681B687B627B6A53E8003F26
:1029D8003B623B6A23F49073FB647B681B681A466E
:1029E800FB6C3B63FA62F96A3A6B41E80023BB620D
:1029F800BB6A002BE6D17B681B6808333B613B69E7
:102A080053E8003FFB60FB6823F00103BB647B686D
:102A18001B680833BA6CFA61BB61B969FA6941E8A5
:102A280000237B617B69002BE5D17B682022C3F8FA
:102A38008C207B68002283F88420032312E07B68C3
:102A48002022C3F888207B682022C3F88C207B686A
:102A58000022DA667B6800221A677B68002283F806
:102A68008420002318465837BD4680BD80B584B001
:102A780000AFF860B9603B601346FB714FE0BB697B
:102A8800B3F1FF3F4BD0FDF78BFE02463B68D31AEC
:102A9800BA699A4202D3BB69002B01D103234EE0E5
:102AA800FB681B681B6803F00403002B37D0BB6866
:102AB800802B34D0BB68402B31D0FB681B68DB69A6
:102AC80003F00803082B10D1FB681B6808221A6260
:102AD800F86800F038F8FB680822C3F89020FB6813
:102AE800002283F88420012329E0FB681B68DB6946
:102AF80003F40063B3F5006F11D1FB681B684FF452
:102B080000621A62F86800F01EF8FB682022C3F819
:102B18009020FB68002283F8842003230FE0FB68E1
:102B28001B68DA69BB681340BA689A420CBF012374
:102B38000023DBB21A46FB799A42A0D0002318463C
:102B48001037BD4680BD80B495B000AF78607B6813
:102B58001B687B637B6B53E8003F3B633B6B23F451
:102B68009073FB647B681B681A46FB6C3B64FA63D2
:102B7800F96B3A6C41E80023BB63BB6B002BE6D1D1
:102B88007B681B6808333B623B6A53E8003FFB6184
:102B9800FB6923F0805323F00103BB647B681B6847
:102BA8000833BA6CFA62BB62B96AFA6A41E8002370
:102BB8007B627B6A002BE3D17B68DB6E012B18D12B
:102BC8007B681B68FB60FB6853E8003FBB60BB6821
:102BD80023F010037B647B681B681A467B6CBB611F
:102BE8007A617969BA6941E800233B613B69002B46
:102BF800E6D17B682022C3F88C207B680022DA6645
:102C08007B6800225A6700BF5437BD465DF8047BD5
:102C1800704780B485B000AF78607B6893F88430E3
:102C2800012B01D1022327E07B68012283F884204D
:102C38007B682422C3F888207B681B681B68FB60BC
:102C48007B681B681A687B681B6822F001021A609F
:102C5800FB6823F00053FB607B6800225A667B68A0
:102C68001B68FA681A607B682022C3F888207B6892
:102C7800002283F88420002318461437BD465DF8E7
:102C8800047B704780B584B000AF786039607B689A
:102C980093F88430012B01D102232DE07B680122B7
:102CA80083F884207B682422C3F888207B681B680B
:102CB8001B68FB607B681B681A687B681B6822F0CE
:102CC80001021A607B681B689B6823F060417B687F
:102CD8001B683A680A439A60786800F04FF87B6886
:102CE8001B68FA681A607B682022C3F888207B6812
:102CF800002283F88420002318461037BD4680BD83
:102D080080B584B000AF786039607B6893F8843010
:102D1800012B01D102232DE07B68012283F8842056
:102D28007B682422C3F888207B681B681B68FB60CB
:102D38007B681B681A687B681B6822F001021A60AE
:102D48007B681B689B6823F060617B681B683A6836
:102D58000A439A60786800F011F87B681B68FA6883
:102D68001A607B682022C3F888207B68002283F8D9
:102D78008420002318461037BD4680BD80B485B036
:102D880000AF78607B685B6E002B08D17B680122FE
:102D9800A3F86A207B680122A3F8682031E00823A1
:102DA800FB730823BB737B681B689B685B0EDBB2F5
:102DB80003F007037B737B681B689B685B0FDBB2C0
:102DC80003F007033B73BB7B3A7B11498A5C02FB28
:102DD80003F33A7B0F498A5C93FBF2F39AB27B6860
:102DE800A3F86A20FB7B7A7B09498A5C02FB03F320
:102DF8007A7B08498A5C93FBF2F39AB27B68A3F862
:102E0800682000BF1437BD465DF8047B704700BFDB
:102E1800B8360008C036000880B500AFFDF75CFC86
:102E280000F026F800F07EF800F080F900F0B8F91C
:102E380000F0DEF900F058FA08210C48FEF7C4FD4E
:102E48000346002B0CBF01230023DBB2002B06D066
:102E5800012201214FF09040FEF7CEFDECE7002261
:102E680001214FF09040FEF7C7FDE5E70008004854
:102E780080B594B000AF07F1180338220021184636
:102E880000F0EAFB3B1D00221A605A609A60DA6083
:102E98001A610020FEF78EFF0223BB614FF4807396
:102EA8007B624023BB6202237B630223BB63042350
:102EB800FB6355233B6402237B640223BB64022328
:102EC800FB6407F118031846FDF776FC0346002B50
:102ED80014BF01230023DBB2002B01D000F01DF842
:102EE8000F237B600323BB600023FB6000233B614F
:102EF80000237B613B1D04211846FDF76FFF034645
:102F0800002B14BF01230023DBB2002B01D000F0FB
:102F180004F800BF5037BD4680BD80B400AF72B61C
:102F280000BFFEE780B58CB000AF07F11C0300229C
:102F38001A605A609A60DA601A61764BDB6C754ADF
:102F480043F00403D364734BDB6C03F00403BB61ED
:102F5800BB69704BDB6C6F4A43F02003D3646D4B45
:102F6800DB6C03F020037B617B696A4BDB6C694A8D
:102F780043F04003D364674BDB6C03F040033B61D1
:102F88003B69644BDB6C634A43F00103D364614BD8
:102F9800DB6C03F00103FB60FB685E4BDB6C5D4A96
:102FA80043F00203D3645B4BDB6C03F00203BB60AA
:102FB800BB68584BDB6C574A43F00803D364554B46
:102FC800DB6C03F008037B607B6800224FF6C3715B
:102FD8005148FEF711FD002203215048FEF70CFD71
:102FE80000224FF480614E48FEF706FD002249F6A4
:102FF80001114FF09040FEF7FFFC00224FF6F83128
:103008004848FEF7F9FC002204214748FEF7F4FC83
:103018004FF6C373FB6101233B6200237B620023ED
:10302800BB6207F11C0319463B48FEF741FB03232B
:10303800FB6101233B6200237B620023BB6207F133
:103048001C0319463548FEF733FB4FF48063FB61D8
:1030580001233B6200237B620023BB6207F11C0350
:1030680019462F48FEF724FB0823FB6100233B6227
:1030780000237B6207F11C0319462748FEF718FB5B
:1030880049F60113FB6101233B6200237B620023A5
:10309800BB6207F11C0319464FF09040FEF708FB8E
:1030A8003023FB6103233B6200237B6207F11C038F
:1030B80019461948FEF7FCFA0323FB6103233B6218
:1030C80000237B6207F11C0319461648FEF7F0FA45
:1030D8004FF6F833FB6101233B6200237B62002338
:1030E800BB6207F11C0319460E48FEF7E1FA0423F8
:1030F800FB6101233B6200237B620023BB6207F173
:103108001C0319460848FEF7D3FA00BF3037BD46FE
:1031180080BD00BF001002400008004800140048AD
:103128000018004800040048000C004880B582B030
:1031380000AF1A4B9B6C194A43F004039364174B76
:103148009B6C03F004037B607B68144B9B6C134AF5
:1031580043F001039364114B9B6C03F001033B6044
:103168003B68002200210B20FEF7B3FF0B20FEF77F
:10317800CAFF002200210C20FEF7ABFF0C20FEF74F
:10318800C2FF002200215E20FEF7A3FF5E20FEF7AB
:10319800BAFF00BF0837BD4680BD00BF001002401F
:1031A80080B500AF104B114A1A600F4B00225A60CD
:1031B8000D4B00229A600C4B0022DA600A4B002269
:1031C8001A61094B00221A75074B00229A61064BB7
:1031D8000022DA620448FDF7AFF90346002B01D05C
:1031E800FFF79BFE00BF80BD2C00002000030140BC
:1031F80080B500AF104B114A1A600F4B00225A607D
:103208000D4B00229A600C4B0022DA600A4B002218
:103218001A61094B00221A75074B00229A61064B66
:103228000022DA620448FDF787F90346002B01D033
:10323800FFF773FE00BF80BD680000200403014053
:1032480080B58AB000AF786007F1140300221A60D5
:103258005A609A60DA601A617B681B681F4A934259
:1032680019D11F4BDB6C1E4A43F00103D3641C4B7E
:10327800DB6C03F001033B613B690E237B61032395
:10328800BB610023FB6107F1140319464FF090401E
:10329800FEF70EFA1DE07B681B68124A934218D1AC
:1032A8000F4BDB6C0E4A43F00103D3640C4BDB6C11
:1032B80003F00103FB60FB68E0237B610323BB6130
:1032C8000023FB6107F1140319464FF09040FEF705
:1032D800EFF900BF2837BD4680BD00BF000301409D
:1032E800001002400403014080B500AF224B234A7E
:1032F8001A60214B4FF4E1325A601F4B00229A604A
:103308001D4B0022DA601C4B00221A611A4B0C225A
:103318005A61194B00229A61174B0022DA61164B49
:1033280000221A62144B00225A62134B00229A623E
:103338001148FEF702FF0346002B01D0FFF7EDFD11
:1033480000210D48FFF79EFC0346002B01D0FFF734
:10335800E4FD00210848FFF7D3FC0346002B01D009
:10336800FFF7DBFD0448FFF754FC0346002B01D0B0
:10337800FFF7D3FD00BF80BDA40000200038014046
:1033880080B59EB000AF786007F1640300221A6030
:103398005A609A60DA601A6107F11003542200211A
:1033A800184600F059F97B681B68494A934240F077
:1033B8008B8001233B6100237B6107F110031846D2
:1033C800FDF728FF0346002B01D0FFF7A6FD414B70
:1033D8001B6E404A43F4804313663E4B1B6E03F456
:1033E8008043FB60FB683B4BDB6C3A4A43F00103CC
:1033F800D364384BDB6C03F00103BB60BB684FF44C
:10340800C0637B660223BB660023FB6600233B6721
:1034180007237B6707F1640319464FF09040FEF7D6
:1034280047F92D4B2D4A1A602B4B18225A602A4B0C
:1034380000229A60284B0022DA60274B80221A610A
:10344800254B00225A61244B00229A61224B00220C
:10345800DA61214B00221A621F48FEF7E5FA03469B
:10346800002B01D0FFF759FD7B681B4AC3F8802069
:10347800194A7B6893621A4B1A4A1A60184B192228
:103488005A60174B10229A60154B0022DA60144BD1
:1034980080221A61124B00225A61114B00229A6154
:1034A8000F4B0022DA610E4B00221A620C48FEF71D
:1034B800BBFA0346002B01D0FFF72FFD7B68084AB3
:1034C800DA67074A7B68936200BF7837BD4680BDDC
:1034D8000038014000100240380100200800024076
:1034E800980100201C00024080B400AFFEE780B4C1
:1034F80000AFFEE780B400AFFEE780B400AFFEE7A0
:1035080080B400AFFEE780B400AF00BFBD465DF8F1
:10351800047B704780B400AF00BFBD465DF8047BF4
:10352800704780B400AF00BFBD465DF8047B7047AC
:1035380080B500AFFDF722F900BF80BD80B500AFB0
:103548000248FEF719FB00BF80BD00BF380100200C
:1035580080B500AF0248FEF70FFB00BF80BD00BF7B
:103568009801002080B400AF00BFBD465DF8047B21
:103578007047000080B582B000AF0F4B1B6E0E4A3B
:1035880043F0010313660C4B1B6E03F001037B60D1
:103598007B68094B9B6D084A43F080539365064B43
:1035A8009B6D03F080533B603B68FEF7A7FC00BFB0
:1035B8000837BD4680BD00BF001002400D48854653
:1035C800FCF7A8FF0C480D490D4A002302E0D45827
:1035D800C4500433C4188C42F9D30A4A0A4C002355
:1035E80001E013600432A242FBD300F011F8FFF7A8
:1035F80013FCFEE700000220000000200C00002061
:10360800D83600080C000020F8010020FEE7000072
:1036180070B50D4D0D4C641BA4100026A64209D1AF
:103628000B4D0C4C00F020F8641BA4100026A64299
:1036380005D170BD55F8043B98470136EEE755F8BB
:10364800043B98470136F2E7D0360008D036000828
:10365800D0360008D436000802440346934200D10D
:10366800704703F8011BF9E7F8B500BFF8BC08BCC0
:103678009E467047F8B500BFF8BC08BC9E46704728
:10368800000000000000000001020304060708090A
:10369800000000000102030401000200040006000B
:1036A80008000A000C001000200040008000000103
:1036B80001010103070100000804020408010101D7
:0836C80080CBFF7F0100000030
:0436D000FD010008F0
:0436D400D901000810
:0C36D8000024F4001000000001000000BD
:04000005080035C5F5
:00000001FF
