:020000040800F2
:10000000000002202D3C0008153B00081B3B0008A7
:10001000213B0008273B00082D3B000800000000A2
:10002000000000000000000000000000333B00085A
:10003000413B0008000000004F3B00085D3B00080A
:100040007D3C00087D3C00087D3C00087D3C0008AC
:100050007D3C00087D3C00087D3C00087D3C00089C
:100060007D3C00087D3C00087D3C0008693B0008A1
:100070007D3B00087D3C00087D3C00087D3C00087D
:100080007D3C00087D3C00087D3C00087D3C00086C
:100090007D3C00087D3C00087D3C00087D3C00085C
:1000A0007D3C00087D3C00087D3C00087D3C00084C
:1000B0007D3C00087D3C00087D3C00087D3C00083C
:1000C0007D3C00087D3C00087D3C00087D3C00082C
:1000D0007D3C00087D3C00087D3C00087D3C00081C
:1000E0007D3C00087D3C00087D3C00087D3C00080C
:1000F0007D3C00087D3C00087D3C00087D3C0008FC
:100100007D3C00087D3C00087D3C00087D3C0008EB
:100110007D3C00087D3C00087D3C00087D3C0008DB
:100120007D3C00087D3C00087D3C00087D3C0008CB
:100130007D3C00087D3C00087D3C00087D3C0008BB
:100140007D3C00087D3C00087D3C00087D3C0008AB
:100150007D3C00087D3C00087D3C00087D3C00089B
:100160007D3C00087D3C00087D3C00087D3C00088B
:100170007D3C00087D3C00087D3C00087D3C00087B
:100180007D3C00087D3C00087D3C00087D3C00086B
:100190007D3C0008000000007D3C00087D3C00081C
:1001A0007D3C00087D3C00087D3C00087D3C00084B
:1001B0007D3C00087D3C0008913B00087D3C000828
:1001C0007D3C00087D3C00087D3C00087D3C00082B
:0801D0007D3C00087D3C0008A5
:1001D80010B5054C237833B9044B13B10448AFF379
:1001E80000800123237010BD74000020000000006F
:1001F800E043000808B5034B1BB103490348AFF3BC
:10020800008008BD0000000078000020E0430008DE
:1002180053B94AB9002908BF00281CBF4FF0FF3165
:100228004FF0FF3000F074B9ADF1080C6DE904CE61
:1002380000F006F8DDF804E0DDE9022304B07047B9
:100248002DE9F047089D04468E46002B4DD18A4281
:10025800944669D9B2FA82F252B101FA02F3C2F1B4
:10026800200120FA01F10CFA02FC41EA030E944045
:100278004FEA1C48210CBEFBF8F61FFA8CF708FB66
:1002880016E341EA034306FB07F199420AD91CEB3E
:10029800030306F1FF3080F01F81994240F21C8170
:1002A800023E63445B1AA4B2B3FBF8F008FB1033B8
:1002B80044EA034400FB07F7A7420AD91CEB0404ED
:1002C80000F1FF3380F00A81A74240F207816444BD
:1002D800023840EA0640E41B00261DB1D440002342
:1002E800C5E900433146BDE8F0878B4209D9002DA6
:1002F80000F0EF800026C5E9000130463146BDE830
:10030800F087B3FA83F6002E4AD18B4202D3824299
:1003180000F2F980841A61EB030301209E46002D48
:10032800E0D0C5E9004EDDE702B9FFDEB2FA82F29D
:10033800002A40F09280A1EB0C014FEA1C471FFAFB
:100348008CFE0126200CB1FBF7F307FB131140EAE2
:1003580001410EFB03F0884208D91CEB010103F1AF
:10036800FF3802D2884200F2CB804346091AA4B271
:10037800B1FBF7F007FB101144EA01440EFB00FE45
:10038800A64508D91CEB040400F1FF3102D2A645AA
:1003980000F2BB800846A4EB0E0440EA03409CE749
:1003A800C6F12007B34022FA07FC4CEA030C20FAF6
:1003B80007F401FA06F31C43F9404FEA1C4900FA16
:1003C80006F3B1FBF9F8200C1FFA8CFE09FB181193
:1003D80040EA014108FB0EF0884202FA06F20BD906
:1003E8001CEB010108F1FF3A80F08880884240F256
:1003F8008580A8F102086144091AA4B2B1FBF9F09A
:1004080009FB101144EA014100FB0EFE8E4508D994
:100418001CEB010100F1FF346CD28E456AD9023819
:10042800614440EA0840A0FB0294A1EB0E01A142FE
:10043800C846A64656D353D05DB1B3EB080261EB6C
:100448000E0101FA07F722FA06F3F1401F43C5E946
:10045800007100263146BDE8F087C2F12003D8407C
:100468000CFA02FC21FA03F3914001434FEA1C47BE
:100478001FFA8CFEB3FBF7F007FB10360B0C43EAB0
:10048800064300FB0EF69E4204FA02F408D91CEB60
:10049800030300F1FF382FD29E422DD9023863445E
:1004A8009B1B89B2B3FBF7F607FB163341EA0341FE
:1004B80006FB0EF38B4208D91CEB010106F1FF384D
:1004C80016D28B4214D9023E6144C91A46EA004644
:1004D80038E72E46284605E70646E3E61846F8E6D6
:1004E8004B45A9D2B9EB020864EB0C0E0138A3E71F
:1004F8004646EAE7204694E74046D1E7D0467BE700
:10050800023B614432E7304609E76444023842E777
:10051800704700BF034613F8012B002AFBD1181AB5
:100528000138704780B400AF064BD3F88830054ACD
:1005380043F47003C2F8883000BFBD465DF8047B01
:10054800704700BF00ED00E080B584B000AF786070
:100558000023FB737B68002B01D10123BBE07B6880
:1005680093F83A30DBB2052B01D10123B3E07B6865
:1005780093F83A30DBB2022B01D10123ABE0584BA0
:100588001B6E574A43F001031366554B1B6E03F06D
:100598000103BB60BB687B6893F83A30DBB2002B81
:1005A80003D17B68002283F83920786803F05AF970
:1005B8007B689B68402B03D07B689B68602B33D19A
:1005C8007B681B681B6823F010017B68DA6A7B680C
:1005D8001B680A431A607B681B681A68414B134002
:1005E8007A6851687A68926811437A6812690A438E
:1005F8007968097D012902D14FF4807100E000215A
:1006080011437A68526A11437A68926A11437A6888
:10061800126BD20411437A68526B120611437A683E
:1006280012680B43136035E07B681B681B6823F076
:1006380010017B68DA6A7B681B680A431A607B686A
:100648001B681A68274B13407A6851687A68926861
:1006580011437A68D26811437A6812690A43796843
:10066800097D012902D14FF4807100E00021114376
:100678007A68526A11437A68926A11437A68126BEF
:10068800D20411437A68526B120611437A681268D1
:100698000B4313607B681B689B69002B10DB7B682E
:1006A8001B689B6923F03F017B689A697B68DB695B
:1006B8001A437B681B6A1A437B681B680A439A6162
:1006C8007B6893F83A30DBB2002B03D17B680122B8
:1006D80083F83A20FB7B18461037BD4680BD00BF23
:1006E80000100240113E00E080B582B000AF002348
:1006F800FB71032001F0A2FD0F2000F00DF8034666
:10070800002B02D00123FB7101E003F045FAFB79CD
:1007180018460837BD4680BD80B584B000AF786004
:100728000023FB73164B1B68002B22D0154B1A684D
:10073800134B1B684FF47A71B1FBF3F3B2FBF3F37D
:10074800184601F0AEFD0346002B0FD17B680F2B36
:1007580009D8002279684FF0FF3001F07AFD0A4A83
:100768007B68136007E00123FB7304E00123FB733C
:1007780001E00123FB73FB7B18461037BD4680BDA3
:1007880008000020000000200400002080B400AF12
:10079800054B1A68054B1B681344034A136000BFD6
:1007A800BD465DF8047B70479000002008000020DB
:1007B80080B400AF034B1B681846BD465DF8047B48
:1007C800704700BF9000002080B588B000AF786007
:1007D8007B68002B01D10123FEE27B681B6803F0D4
:1007E8000103002B75D0974B9B6803F00C03BB618A
:1007F800944BDB6803F003037B61BB690C2B02D1CC
:100808007B69032B02D0BB69082B0BD18D4B1B686E
:1008180003F40033002B5BD07B685B68002B57D157
:100828000123D9E27B685B68B3F5803F06D1854B2D
:100838001B68844A43F4803313601DE07B685B685F
:10084800B3F5A02F0CD17F4B1B687E4A43F480235D
:1008580013607C4B1B687B4A43F4803313600BE0C6
:10086800784B1B68774A23F480331360754B1B68F9
:10087800744A23F4802313607B685B68002B13D0D1
:10088800FFF796FF386108E0FFF792FF02463B69E1
:10089800D31A642B01D903239EE26A4B1B6803F425
:1008A8000033002BF0D014E0FFF782FF386108E036
:1008B800FFF77EFF02463B69D31A642B01D9032355
:1008C8008AE2604B1B6803F40033002BF0D100E090
:1008D80000BF7B681B6803F00203002B75D0594BDF
:1008E8009B6803F00C03BB61564BDB6803F0030302
:1008F8007B61BB690C2B02D17B69022B02D0BB69DF
:10090800042B1FD14F4B1B6803F48063002B05D0C9
:100918007B68DB68002B01D101235DE2494B5B68F2
:1009280023F0FE427B681B691B06464913434B6054
:10093800454B1B681846FFF7EFFE0346002B43D0D4
:10094800012349E27B68DB68002B23D03D4B1B6801
:100958003C4A43F480731360FFF72AFF386108E0CC
:10096800FFF726FF02463B69D31A022B01D903235E
:1009780032E2344B1B6803F48063002BF0D0314B18
:100988005B6823F0FE427B681B691B062D491343F5
:100998004B601AE02B4B1B682A4A23F480731360C0
:1009A800FFF706FF386108E0FFF702FF02463B69E0
:1009B800D31A022B01D903230EE2224B1B6803F43E
:1009C8008063002BF0D100E000BF7B681B6803F058
:1009D8000803002B41D07B685B69002B1CD0194BA6
:1009E800D3F89430174A43F00103C2F89430FFF764
:1009F800DFFE386108E0FFF7DBFE02463B69D31AE9
:100A0800022B01D90323E7E10E4BD3F8943003F00E
:100A18000203002BEFD020E00A4BD3F89430094AA8
:100A280023F00103C2F89430FFF7C2FE38610DE0ED
:100A3800FFF7BEFE02463B69D31A022B06D90323F1
:100A4800CAE100BF00100240040000208C4BD3F81C
:100A5800943003F00203002BEAD17B681B6803F093
:100A68000403002B00F0A6800023FB77844B9B6DCA
:100A780003F08053002B01D1012300E00023002B59
:100A88000DD07F4B9B6D7E4A43F0805393657C4B22
:100A98009B6D03F08053FB60FB680123FB77794B68
:100AA8001B6803F48073002B18D1764B1B68754ABA
:100AB80043F480731360FFF77BFE386108E0FFF7AB
:100AC80077FE02463B69D31A022B01D9032383E13F
:100AD8006C4B1B6803F48073002BF0D07B689B6819
:100AE800012B08D1664BD3F89030654A43F00103D7
:100AF800C2F8903024E07B689B68052B10D1604BCE
:100B0800D3F890305E4A43F00403C2F890305C4B4F
:100B1800D3F890305A4A43F00103C2F890300FE0FE
:100B2800574BD3F89030564A23F00103C2F890305F
:100B3800534BD3F89030524A23F00403C2F8903054
:100B48007B689B68002B16D0FFF732FE38610AE0FD
:100B5800FFF72EFE02463B69D31A41F288329342D0
:100B680001D9032338E1464BD3F8903003F0020350
:100B7800002BEDD015E0FFF71BFE38610AE0FFF708
:100B880017FE02463B69D31A41F28832934201D9D3
:100B9800032321E13A4BD3F8903003F00203002BF2
:100BA800EDD1FB7F012B05D1354B9B6D344A23F0EA
:100BB800805393657B681B6803F02003002B3CD0AF
:100BC8007B689B69002B1CD02D4BD3F898302C4A9E
:100BD80043F00103C2F89830FFF7EAFD386108E0F6
:100BE800FFF7E6FD02463B69D31A022B01D903231E
:100BF800F2E0234BD3F8983003F00203002BEFD038
:100C08001BE01F4BD3F898301D4A23F00103C2F8AC
:100C18009830FFF7CDFD386108E0FFF7C9FD0246BF
:100C28003B69D31A022B01D90323D5E0144BD3F81F
:100C3800983003F00203002BEFD17B68DB69002BAF
:100C480000F0C9800E4B9B6803F00C030C2B00F0DE
:100C580083807B68DB69022B5ED1094B1B68084ADD
:100C680023F080731360FFF7A3FD38610CE0FFF7F2
:100C78009FFD02463B69D31A022B05D90323ABE03B
:100C88000010024000700040554B1B6803F00073D1
:100C9800002BECD1524BDA68524B13407A68116A38
:100CA8007A68526A013A120111437A68926A12020A
:100CB80011437A68126B5208013A520511437A6857
:100CC800526B5208013A520611437A68D26AD20628
:100CD8000A4343491343CB60414B1B68404A43F0E6
:100CE800807313603E4BDB683D4A43F08073D360EA
:100CF800FFF75EFD386108E0FFF75AFD02463B69E1
:100D0800D31A022B01D9032366E0354B1B6803F085
:100D18000073002BF0D05EE0314B1B68304A23F0A3
:100D280080731360FFF744FD386108E0FFF740FD6A
:100D380002463B69D31A022B01D903234CE0284B06
:100D48001B6803F00073002BF0D1254BDA682449A7
:100D5800254B1340CB603EE07B68DB69012B01D15A
:100D6800012339E01E4BDB687B617B6903F00302DA
:100D78007B681B6A9A422CD17B6903F0F0027B687E
:100D88005B6A013B1B019A4223D17B6903F4FE4253
:100D98007B689B6A1B029A421BD17B6903F07842ED
:100DA8007B68DB6ADB069A4213D17B6903F4C002D5
:100DB8007B681B6B5B08013B5B059A4209D17B6929
:100DC80003F0C0627B685B6B5B08013B5B069A4281
:100DD80001D0012300E0002318462037BD4680BD1E
:100DE800001002400C809F01FCFFEEFE80B586B02B
:100DF80000AF7860396000237B617B68002B01D1EC
:100E080001231EE1914B1B6803F00F033A689A42D5
:100E180010D98E4B1B6823F00F028C493B68134393
:100E28000B608A4B1B6803F00F033A689A4201D0A3
:100E3800012306E17B681B6803F00103002B73D0D4
:100E48007B685B68032B29D1814B1B6803F0007317
:100E5800002B01D10123F4E000F09EF938613B69D1
:100E68007C4A93423FD97A4B9B6803F0F003002BEE
:100E780009D07B681B6803F00203002B33D07B6822
:100E88009B68002B2FD1724B9B6823F0F003704AAC
:100E980043F08003936080237B6124E07B685B6878
:100EA800022B07D16A4B1B6803F40033002B09D1CE
:100EB8000123C6E0664B1B6803F48063002B01D155
:100EC8000123BEE000F0CEF838613B69614A9342E5
:100ED80009D95F4B9B6823F0F0035D4A43F0800318
:100EE800936080237B615A4B9B6823F003027B68E5
:100EF8005B68574913438B60FFF75AFCF8600AE0B8
:100F0800FFF756FC0246FB68D31A41F28832934237
:100F180001D9032395E04E4B9B6803F00C027B68D4
:100F28005B689B009A42EBD17B681B6803F0020365
:100F3800002B23D07B681B6803F00403002B05D02B
:100F4800434B9B68424A43F4E06393607B681B68A9
:100F580003F00803002B07D03D4B9B6823F47C5318
:100F68003B4A43F4E0639360394B9B6823F0F002FB
:100F78007B689B68364913438B6008E07B69802B4C
:100F880005D1334B9B68324A23F0F00393602F4B13
:100F98001B6803F00F033A689A421DD22B4B1B685B
:100FA80023F00F0229493B6813430B60FFF700FC4D
:100FB800F8600AE0FFF7FCFB0246FB68D31A41F22F
:100FC8008832934201D903233BE0204B1B6803F08E
:100FD8000F033A689A42EDD17B681B6803F004035B
:100FE800002B08D01A4B9B6823F4E0627B68DB680F
:100FF800174913438B607B681B6803F00803002BB9
:1010080009D0134B9B6823F460527B681B69DB0093
:101018000F4913438B6000F025F802460C4B9B6880
:101028001B0903F00F030C49CB5C03F01F0322FAE2
:1010380003F30A4A13600A4B1B681846FFF76CFB58
:10104800034618461837BD4680BD00BF0020024041
:101058000010024000B4C404C4440008000000208A
:101068000400002080B487B000AF2C4B9B6803F0CD
:101078000C03042B02D12A4B3B6147E0274B9B68AA
:1010880003F00C03082B02D1264B3B613EE0234BB7
:101098009B6803F00C030C2B36D1204BDB6803F064
:1010A8000303FB601D4BDB681B0903F00F030133CF
:1010B800BB60FB68032B0CD11A4ABB68B2FBF3F385
:1010C800164AD268120A02F07F0202FB03F37B6120
:1010D8000CE0134ABB68B2FBF3F3104AD268120A59
:1010E80002F07F0202FB03F37B6100BF0B4BDB685E
:1010F8005B0E03F0030301335B007B607A697B6856
:10110800B2FBF3F33B6101E000233B613B69184606
:101118001C37BD465DF8047B704700BF00100240D5
:101128000024F40000127A0080B400AF034B1B685F
:101138001846BD465DF8047B704700BF00000020DC
:1011480080B500AFFFF7F0FF0246064B9B681B0A0D
:1011580003F007030449CB5C03F01F0322FA03F3EF
:10116800184680BD00100240D444000880B500AF86
:10117800FFF7DAFF0246064B9B68DB0A03F007031A
:101188000449CB5C03F01F0322FA03F3184680BD21
:1011980000100240D444000880B487B000AF1E4B52
:1011A800DB6803F003033B611B4BDB681B0903F09F
:1011B8000F030133FB603B69032B0CD1174AFB6813
:1011C800B2FBF3F3144AD268120A02F07F0202FB60
:1011D80003F37B610CE0124AFB68B2FBF3F30E4A9F
:1011E800D268120A02F07F0202FB03F37B6100BFA0
:1011F800094BDB685B0E03F0030301335B00BB6044
:101208007A69BB68B2FBF3F37B607B6818461C37CE
:10121800BD465DF8047B70470010024000127A005A
:101228000024F40080B586B000AF78600023FB741A
:101238000023BB747B681B6803F40023002B00F0B9
:10124800988000237B74434B9B6D03F08053002BE5
:101258000DD1404B9B6D3F4A43F0805393653D4B06
:101268009B6D03F08053BB60BB6801237B743A4BD2
:101278001B68394A43F480731360FFF799FAF860E2
:1012880009E0FFF795FA0246FB68D31A022B02D948
:101298000323FB7405E0304B1B6803F48073002BB9
:1012A800EFD0FB7C002B59D12A4BD3F8903003F4B4
:1012B80040737B617B69002B1ED07B681B6D7A694C
:1012C8009A4219D0234BD3F8903023F440737B61B2
:1012D800204BD3F890301F4A43F48033C2F8903043
:1012E8001C4BD3F890301B4A23F48033C2F890305B
:1012F800184A7B69C2F890307B6903F00103002B20
:1013080016D0FFF755FAF8600BE0FFF751FA0246DE
:10131800FB68D31A41F28832934202D90323FB7443
:1013280006E00C4BD3F8903003F00203002BECD00E
:10133800FB7C002B0BD1074BD3F8903023F4407281
:101348007B681B6D03491343C1F8903008E0FB7CB0
:10135800BB7405E00010024000700040FB7CBB74C9
:101368007B7C012B05D1A74B9B6DA64A23F08053AC
:1013780093657B681B6803F00103002B0AD0A14B1F
:10138800D3F8883023F003027B685B689D491343D8
:10139800C1F888307B681B6803F00203002B0AD071
:1013A800984BD3F8883023F00C027B689B689549EA
:1013B8001343C1F888307B681B6803F00403002BD3
:1013C8000AD0904BD3F8883023F030027B68DB6872
:1013D8008C491343C1F888307B681B6803F0080305
:1013E800002B0AD0874BD3F8883023F0C0027B68E3
:1013F8001B6984491343C1F888307B681B6803F074
:101408001003002B0AD07F4BD3F8883023F44072A6
:101418007B685B697B491343C1F888307B681B682C
:1014280003F02003002B0AD0764BD3F8883023F43E
:1014380040627B689B6973491343C1F888307B68B5
:101448001B6803F04003002B0AD06E4BD3F888309A
:1014580023F440527B68DB696A491343C1F888303A
:101468007B681B6803F08003002B0AD0654BD3F818
:10147800883023F440427B681B6A62491343C1F8F1
:1014880088307B681B6803F48073002B0AD05D4B9F
:10149800D3F8883023F440327B685B6A5949134398
:1014A800C1F888307B681B6803F40033002B0AD02E
:1014B800544BD3F89C3023F003027B689B6A514954
:1014C8001343C1F89C307B681B6803F40073002B3E
:1014D8000AD04C4BD3F8883023F440227B68DB6A6F
:1014E80048491343C1F888307B681B6803F480635C
:1014F800002B15D0434BD3F8883023F440127B6877
:101508001B6B40491343C1F888307B681B6BB3F5EC
:10151800801F05D13B4BDB683A4A43F48013D36004
:101528007B681B6803F40063002B15D0354BD3F898
:10153800883023F440027B685B6B32491343C1F85F
:1015480088307B685B6BB3F5800F05D12D4BDB686A
:101558002C4A43F48013D3607B681B6803F48053E0
:10156800002B15D0274BD3F8883023F040727B68C6
:101578009B6B24491343C1F888307B689B6BB3F19C
:10158800807F05D11F4BDB681E4A43F48013D3606C
:101598007B681B6803F40053002B15D0194BD3F854
:1015A800883023F040627B68DB6B16491343C1F82F
:1015B80088307B68DB6BB3F1006F05D1114BDB68BA
:1015C800104A43F48013D3607B681B6803F480439C
:1015D800002B19D00B4BD3F8883023F040627B687E
:1015E8001B6C08491343C1F888307B681B6CB3F146
:1015F800006F09D1034BDB68024A43F48013D360C0
:1016080002E000BF001002407B681B6803F400433F
:10161800002B15D0294BD3F8883023F040527B6833
:101628005B6C26491343C1F888307B685B6CB3F167
:10163800805F05D1214BDB68204A43F48033D360B7
:101648007B681B6803F48033002B15D01B4BD3F841
:10165800883023F040427B689B6C18491343C1F8DB
:1016680088307B689B6CB3F1804F05D1134BDB68E6
:10167800124A43F48033D3607B681B6803F48023E9
:10168800002B15D00D4BD3F89C3023F440127B6807
:10169800DB6C0A491343C1F89C307B68DB6CB3F5FB
:1016A800001F05D1054BDB68044A43F48013D3605F
:1016B800BB7C18461837BD4680BD00BF00100240ED
:1016C80080B487B000AF7860396000237B6164E143
:1016D8003B681A6801217B6901FA03F31340FB6038
:1016E800FB68002B00F056813B685B6803F003033E
:1016F800012B05D03B685B6803F00303022B30D154
:101708007B689B683B617B695B00032202FA03F3F9
:10171800DB433A6913403B613B68DA687B695B00ED
:1017280002FA03F33A6913433B617B683A699A60AA
:101738007B685B683B6101227B6902FA03F3DB4348
:101748003A6913403B613B685B681B0903F001027F
:101758007B6902FA03F33A6913433B617B683A6990
:101768005A603B685B6803F00303032B09D13B68AD
:101778005B6803F00303032B1BD13B689B68012BB9
:1017880017D07B68DB683B617B695B00032202FA48
:1017980003F3DB433A6913403B613B689A687B6912
:1017A8005B0002FA03F33A6913433B617B683A69C9
:1017B800DA603B685B6803F00303022B23D17B6983
:1017C800DA087B68083253F822303B617B6903F002
:1017D80007039B000F2202FA03F3DB433A69134025
:1017E8003B613B681A697B6903F007039B0002FAB7
:1017F80003F33A6913433B617B69DA087B68083273
:10180800396943F822107B681B683B617B695B0080
:10181800032202FA03F3DB433A6913403B613B6856
:101828005B6803F003027B695B0002FA03F33A6921
:1018380013433B617B683A691A603B685B6803F451
:101848004033002B00F0A6805B4B1B6E5A4A43F0D6
:1018580001031366584B1B6E03F00103BB60BB68A2
:10186800564A7B699B08023352F823303B617B69F7
:1018780003F003039B000F2202FA03F3DB433A69E8
:1018880013403B617B68B3F1904F1FD07B684C4A93
:10189800934219D07B684B4A934213D07B684A4ADB
:1018A80093420DD07B68494A934207D07B68484AE7
:1018B800934201D105230AE0062308E0042306E049
:1018C800032304E0022302E0012300E000237A69F5
:1018D80002F00302920093403A6913433B6137498F
:1018E8007B699B0802333A6941F82320394B9B688E
:1018F8003B61FB68DB433A6913403B613B685B68CB
:1019080003F48013002B03D03A69FB6813433B614F
:10191800304A3B6993602F4BDB683B61FB68DB43D4
:101928003A6913403B613B685B6803F40013002B82
:1019380003D03A69FB6813433B61264A3B69D3608D
:10194800244B5B683B61FB68DB433A6913403B61AE
:101958003B685B6803F40033002B03D03A69FB68EB
:1019680013433B611B4A3B6953601A4B1B683B613D
:10197800FB68DB433A6913403B613B685B6803F4EF
:101988008033002B03D03A69FB6813433B61114A4B
:101998003B6913607B6901337B613B681A687B692B
:1019A80022FA03F3002B7FF493AE00BF00BF1C376D
:1019B800BD465DF8047B70470010024000000140FE
:1019C8000004004800080048000C004800100048C7
:1019D800001400480004014080B485B000AF78606E
:1019E8000B467B807B681A697B881340002B02D0EA
:1019F8000123FB7301E00023FB73FB7B18461437BC
:101A0800BD465DF8047B704780B483B000AF786052
:101A18000B467B8013467B707B78002B03D07A883B
:101A28007B689A6102E07A887B689A6200BF0C370B
:101A3800BD465DF8047B704780B584B000AF786020
:101A48007B68002B01D101238EE07B681B681A4656
:101A5800474B9A420FD87B681B681A46454B13447C
:101A6800454AA2FB03231B099A007B685A647B68DA
:101A7800424A1A640EE07B681B681A46404B1344BE
:101A88003D4AA2FB03231B099A007B685A647B68C2
:101A98003C4A1A647B68022283F825207B681B680D
:101AA8001B68FB60FB6823F4FF4323F07003FB60B3
:101AB8007B689A687B68DB681A437B681B691A43F2
:101AC8007B685B691A437B689B691A437B68DB699F
:101AD8001A437B681B6A1343FA681343FB607B68ED
:101AE8001B68FA681A60786800F0B6F97B689B682A
:101AF800B3F5804F02D17B6800225A607B685A6830
:101B08007B689B6C02F07F021A607B68DB6C7A68EA
:101B1800126D5A607B685B68002B10D07B685B682D
:101B2800042B0CD8786800F0DFF97B685B6D002225
:101B38001A607B689B6D7A68D26D5A6008E07B6892
:101B480000225A657B6800229A657B680022DA6564
:101B58007B680022DA637B68012283F825207B6892
:101B6800002283F82420002318461037BD4680BD84
:101B780007040240F8FFFDBFCDCCCCCC00000240EA
:101B8800F8FBFDBF0004024080B586B000AFF860E6
:101B9800B9607A603B600023FB75FB6893F82430DA
:101BA800012B01D1022366E0FB68012283F824207F
:101BB800FB6893F82530DBB2012B55D1FB68022274
:101BC80083F82520FB680022DA63FB681B681A6823
:101BD800FB681B6822F001021A603B687A68B968E2
:101BE800F86800F0FBF8FB681B6B002B08D0FB685B
:101BF8001B681A68FB681B6842F00E021A600FE047
:101C0800FB681B681A68FB681B6822F004021A60EC
:101C1800FB681B681A68FB681B6842F00A021A60B6
:101C2800FB689B6C1B6803F48033002B07D0FB68B0
:101C38009B6C1A68FB689B6C42F480721A60FB68A4
:101C48005B6D002B07D0FB685B6D1A68FB685B6DEA
:101C580042F480721A60FB681B681A68FB681B688C
:101C680042F001021A6005E0FB68002283F8242094
:101C78000223FB75FB7D18461837BD4680BD80B52D
:101C880084B000AF78607B681B6C1B68FB607B6866
:101C98001B681B68BB607B685B6C03F01F03042236
:101CA8009A40FB681340002B26D0BB6803F004035E
:101CB800002B21D07B681B681B6803F02003002BD6
:101CC80007D17B681B681A687B681B6822F00402CE
:101CD8001A607B685B6C03F01F027B681B6C042135
:101CE80001FA02F25A607B681B6B002B71D07B688B
:101CF8001B6B786898476CE07B685B6C03F01F038C
:101D080002229A40FB681340002B2ED0BB6803F0D8
:101D18000203002B29D07B681B681B6803F0200393
:101D2800002B0BD17B681B681A687B681B6822F044
:101D38000A021A607B68012283F825207B685B6CA5
:101D480003F01F027B681B6C022101FA02F25A6041
:101D58007B68002283F824207B68DB6A002B38D05C
:101D68007B68DB6A7868984733E07B685B6C03F0D4
:101D78001F0308229A40FB681340002B2AD0BB6837
:101D880003F00803002B25D07B681B681A687B6862
:101D98001B6822F00E021A607B685B6C03F01F025E
:101DA8007B681B6C012101FA02F25A607B680122F0
:101DB800DA637B68012283F825207B68002283F898
:101DC80024207B685B6B002B04D07B685B6B786896
:101DD800984700BF00BF1037BD4680BD80B485B0AE
:101DE80000AFF860B9607A603B60FB68DB6CFA684A
:101DF800126D5A60FB685B6D002B04D0FB689B6D0D
:101E0800FA68D26D5A60FB685B6C03F01F02FB68CE
:101E18001B6C012101FA02F25A60FB681B683A68E0
:101E28005A60FB689B68102B08D1FB681B687A68AE
:101E38009A60FB681B68BA68DA6007E0FB681B6891
:101E4800BA689A60FB681B687A68DA6000BF143762
:101E5800BD465DF8047B704780B487B000AF7860FA
:101E68007B681B681A461B4B9A420BD81A4B3B617E
:101E78007B681B68DBB2083B184AA2FB03231B09DB
:101E88007B610BE0164B3B617B681B68DBB2083B50
:101E9800124AA2FB03231B0908337B613B69FB60E1
:101EA8007B685B6C9B089A00FB6813441A467B6846
:101EB8009A647B680B4ADA647B6903F01F0301228A
:101EC8009A407B681A6500BF1C37BD465DF8047BE5
:101ED800704700BF0704024000080240CDCCCCCCBC
:101EE800200802408008024080B485B000AF7860C6
:101EF8007B685B6803F07F03FB60FA680B4B134455
:101F08009B001A467B685A657B68094A9A65FB6894
:101F1800013B03F01F0301229A407B68DA6500BF8A
:101F28001437BD465DF8047B704700BF3F82001040
:101F38004009024080B485B000AF78607B68002B10
:101F480041D14B4B1B6803F4C063B3F5806F31D1AB
:101F5800474BD3F88030464A23F48073C2F8803068
:101F6800434B1B6823F4C063414A43F40073136076
:101F7800404B1B68322202FB03F33F4AA2FB0323B8
:101F88009B0C0133FB6002E0FB68013BFB60384BB4
:101F98005B6903F48063B3F5806F02D1FB68002BA3
:101FA800F2D1334B5B6903F48063B3F5806F58D18A
:101FB800032357E02E4BD3F880302D4A23F4807347
:101FC800C2F880304DE07B68B3F5007F41D1284BE3
:101FD8001B6803F4C063B3F5806F31D1244BD3F889
:101FE8008030234A43F48073C2F88030204B1B684A
:101FF80023F4C0631E4A43F4007313601D4B1B682F
:10200800322202FB03F31C4AA2FB03239B0C01337D
:10201800FB6002E0FB68013BFB60154B5B6903F466
:102028008063B3F5806F02D1FB68002BF2D1104BAF
:102038005B6903F48063B3F5806F12D1032311E069
:102048000B4BD3F880300A4A43F48073C2F88030CF
:1020580007E0074B1B6823F4C063054A43F4806319
:102068001360002318461437BD465DF8047B70479B
:10207800007000400000002083DE1B4380B400AFE6
:10208800054B9B68044A43F48043936000BFBD46F8
:102098005DF8047B704700BF0070004080B485B0D5
:1020A80000AF78607B6803F00703FB600C4BDB68CC
:1020B800BB60BA684FF6FF031340BB60FB681A02A7
:1020C800BB68134343F0BF6343F40033BB60044A67
:1020D800BB68D36000BF1437BD465DF8047B70470A
:1020E80000ED00E080B400AF044BDB681B0A03F08E
:1020F80007031846BD465DF8047B704700ED00E015
:1021080080B483B000AF0346FB7197F90730002B0A
:102118000BDBFB7903F01F02074997F907305B09CE
:10212800012000FA02F241F8232000BF0C37BD4617
:102138005DF8047B704700BF00E100E080B483B025
:1021480000AF03463960FB7197F90730002B0ADBB3
:102158003B68DAB20C4997F907301201D2B20B4446
:1021680083F800230AE03B68DAB20849FB7903F0F8
:102178000F03043B1201D2B20B441A7600BF0C378E
:10218800BD465DF8047B704700E100E000ED00E02B
:1021980080B489B000AFF860B9607A60FB6803F07A
:1021A8000703FB61FB69C3F10703042B28BF042362
:1021B800BB61FB690433062B02D9FB69033B00E0D2
:1021C80000237B614FF0FF32BB6902FA03F3DA4365
:1021D800BB681A407B699A404FF0FF317B6901FA6E
:1021E80003F3D9437B680B40134318462437BD4695
:1021F8005DF8047B7047000080B582B000AF78605E
:102208007B68013BB3F1807F01D301230FE00A4AC9
:102218007B68013B53600F214FF0FF30FFF78EFFC3
:10222800054B00229A60044B07221A6000231846C7
:102238000837BD4680BD00BF10E000E080B582B021
:1022480000AF78607868FFF729FF00BF0837BD4600
:1022580080BD80B586B000AF0346B9607A60FB7375
:10226800FFF740FF78617A68B9687869FFF790FFEF
:10227800024697F90F3011461846FFF75FFF00BF77
:102288001837BD4680BD80B582B000AF0346FB71EC
:1022980097F907301846FFF733FF00BF0837BD46E8
:1022A80080BD80B582B000AF78607868FFF7A4FF82
:1022B800034618460837BD4680BD80B582B000AFDA
:1022C80078607B68002B01D1012342E07B68D3F85A
:1022D8008830002B06D17B68002283F88420786838
:1022E80001F060FB7B682422C3F888207B681B68A8
:1022F8001A687B681B6822F001021A607B689B6A77
:10230800002B02D0786800F0C3FB786800F0C4F8AE
:102318000346012B01D101231BE07B681B685A6827
:102328007B681B6822F490425A607B681B689A6835
:102338007B681B6822F02A029A607B681B681A680F
:102348007B681B6842F001021A60786800F042FC62
:10235800034618460837BD4680BD000080B58AB0E0
:1023680000AFF860B9601346FB80FB68D3F888308B
:10237800202B67D1BB68002B02D0FB88002B01D132
:10238800012360E0FB68BA681A65FB68FA88A3F85D
:102398005420FB68FA88A3F85620FB680022C3F88B
:1023A8009020FB682122C3F88820FB68DB6F002B94
:1023B80028D0FB68DB6F264ADA62FB68DB6F254AA8
:1023C8001A63FB68DB6F244A5A63FB68DB6F0022E1
:1023D8009A63FB68D86FFB681B6D1946FB681B681E
:1023E80028331A46FB88FFF7CFFB0346002B09D09A
:1023F800FB681022C3F89020FB682022C3F88820CD
:10240800012320E0FB681B6840221A62FB681B68F6
:1024180008337B617B6953E8003F3B613B6943F0CC
:1024280080037B62FB681B6808337A6A3A62FB6147
:10243800F9693A6A41E80023BB61BB69002BE5D121
:10244800002300E0022318462837BD4680BD00BFA0
:10245800592F0008F32F00080F30000880B483B00C
:1024680000AF786000BF0C37BD465DF8047B70474D
:1024780080B483B000AF786000BF0C37BD465DF80C
:10248800047B704780B483B000AF786000BF0C371E
:10249800BD465DF8047B70472DE9B04F8CB000AFA6
:1024A8007861002387F82A307B699A687B691B6901
:1024B8001A437B695B691A437B69DB691343FB62D7
:1024C8007B691B681A68AA4B13407A691268F96A13
:1024D8000B4313607B691B685B6823F440517B697D
:1024E800DA687B691B680A435A607B699B69FB62EF
:1024F8007B691B689F4A934204D07B691B6AFA6A0E
:102508001343FB627B691B689B6823F06E4323F4CB
:1025180030637A691268F96A0B4393607B691B68B8
:10252800DB6A23F00F017B695A6A7B691B680A43DF
:10253800DA627B691B68904A934225D18F4BD3F8A6
:10254800883003F00303032B1AD801A252F823F0B2
:1025580069250008792500087125000881250008EB
:10256800012387F82B3016E1022387F82B3012E17C
:10257800042387F82B300EE1082387F82B300AE173
:10258800102387F82B3006E17B691B687C4A93424D
:1025980038D17A4BD3F8883003F00C030C2B2DD8A4
:1025A80001A252F823F000BFE5250008052600081F
:1025B8000526000805260008F52500080526000858
:1025C8000526000805260008ED2500080526000850
:1025D8000526000805260008FD250008002387F8C1
:1025E8002B30D8E0022387F82B30D4E0042387F877
:1025F8002B30D0E0082387F82B30CCE0102387F865
:102608002B30C8E07B691B685E4A934225D15B4B3F
:10261800D3F8883003F03003302B16D0302B18D87D
:10262800202B0AD0202B14D8002B02D0102B08D036
:102638000FE0002387F82B30ADE0022387F82B301A
:10264800A9E0042387F82B30A5E0082387F82B306E
:10265800A1E0102387F82B309DE07B691B684A4A6C
:10266800934225D1454BD3F8883003F0C003C02BE3
:1026780016D0C02B18D8802B0AD0802B14D8002B4A
:1026880002D0402B08D00FE0002387F82B3082E0DF
:10269800022387F82B307EE0042387F82B307AE07A
:1026A800082387F82B3076E0102387F82B3072E068
:1026B8007B691B68354A93422AD1304BD3F888305E
:1026C80003F44073B3F5407F1AD0B3F5407F1BD8AD
:1026D800B3F5007F0CD0B3F5007F15D8002B03D0DD
:1026E800B3F5807F08D00FE0002387F82B3052E045
:1026F800022387F82B304EE0042387F82B304AE07A
:10270800082387F82B3046E0102387F82B3042E067
:102718007B691B68174A93423AD1184BD3F8883023
:1027280003F44063B3F5406F1AD0B3F5406F1BD87C
:10273800B3F5006F0CD0B3F5006F15D8002B03D09C
:10274800B3F5806F08D00FE0002387F82B3022E024
:10275800022387F82B301EE0042387F82B301AE079
:10276800082387F82B3016E0102387F82B3012E067
:10277800F369FFCF0080004000380140001002409C
:102788000044004000480040004C00400050004019
:10279800102387F82B307B691B68AE4A934240F0C0
:1027A800978097F82B30082B23D801A252F823F0F2
:1027B800DD270008FB270008E5270008FB2700089D
:1027C800EB270008FB270008FB270008FB27000869
:1027D800F3270008FEF7B4FC786210E09E4B7B629A
:1027E8000DE0FEF73FFC786209E04FF400437B629E
:1027F80005E000237B62012387F82A3000BF7B6A4B
:10280800002B00F030817B695B6A944A32F8133000
:102818001A467B6AB3FBF2F3BB617B695A681346BD
:102828005B001344BA699A4205D37B695B681B0352
:10283800BA699A4203D9012387F82A3013E17B6ADF
:102848000022BB60FA607B695B6A844A32F8133005
:102858009BB200223B607A60D7E90023D7E90201E6
:10286800FDF7D6FC02460B46104619464FF000020B
:102878004FF000030B0243EA1063020279694968CA
:10288800490800200C46054612EB040843EB0509ED
:102898007B695B6800229A46934652465B464046EF
:1028A8004946FDF7B5FC02460B4613463B623B6AB8
:1028B800B3F5407F08D33B6AB3F5801F04D27B6928
:1028C8001B683A6ADA60CEE0012387F82A30CAE04A
:1028D8007B69DB69B3F5004F66D197F82B30082B7D
:1028E80027D801A252F823F0152900081D2900084D
:1028F800252900083B2900082B2900083B29000846
:102908003B2900083B29000833290008FEF718FC7A
:10291800786214E0FEF72AFC786210E04E4B7B6286
:102928000DE0FEF79FFB786209E04FF400437B62FD
:1029380005E000237B62012387F82A3000BF7B6A09
:10294800002B00F090807B695B6A444A32F81330B0
:102958001A467B6AB3FBF2F35A007B695B685B0833
:102968001A447B695B68B2FBF3F33B623B6A0F2B4B
:1029780016D93B6AB3F5803F12D23B6A9BB223F06B
:102988000F03FB833B6A5B089BB203F007039AB211
:10299800FB8B1343FB837B691B68FA8BDA6062E06D
:1029A800012387F82A305EE097F82B30082B28D8C7
:1029B80001A252F823F000BFE5290008ED2900081C
:1029C800F52900080B2A0008FB2900080B2A000833
:1029D8000B2A00080B2A0008032A0008FEF7B0FBA0
:1029E800786214E0FEF7C2FB786210E01A4B7B6253
:1029F8000DE0FEF737FB786209E04FF400437B6295
:102A080005E000237B62012387F82A3000BF7B6A38
:102A1800002B28D07B695B6A104A32F813301A46BB
:102A28007B6AB3FBF2F27B695B685B081A447B69DB
:102A38005B68B2FBF3F33B623B6A0F2B10D93B6A2E
:102A4800B3F5803F0CD23B6A9AB27B691B68DA60A7
:102A580009E000BF008000400024F400DC440008C6
:102A6800012387F82A307B690122A3F86A207B6951
:102A78000122A3F868207B6900225A677B6900223B
:102A88009A6797F82A3018463037BD46BDE8B08FA8
:102A980080B483B000AF78607B689B6A03F008035A
:102AA800002B0AD07B681B685B6823F400417B68B5
:102AB8009A6B7B681B680A435A607B689B6A03F0C1
:102AC8000103002B0AD07B681B685B6823F4003184
:102AD8007B68DA6A7B681B680A435A607B689B6A72
:102AE80003F00203002B0AD07B681B685B6823F4A1
:102AF80080317B681A6B7B681B680A435A607B6865
:102B08009B6A03F00403002B0AD07B681B685B6890
:102B180023F480217B685A6B7B681B680A435A60E0
:102B28007B689B6A03F01003002B0AD07B681B6844
:102B38009B6823F480517B68DA6B7B681B680A43C7
:102B48009A607B689B6A03F02003002B0AD07B689D
:102B58001B689B6823F400517B681A6C7B681B68B0
:102B68000A439A607B689B6A03F04003002B1AD0E3
:102B78007B681B685B6823F480117B685A6C7B68F0
:102B88001B680A435A607B685B6CB3F5801F0AD1E7
:102B98007B681B685B6823F4C0017B689A6C7B6860
:102BA8001B680A435A607B689B6A03F08003002B0A
:102BB8000AD07B681B685B6823F400217B68DA6CA9
:102BC8007B681B680A435A6000BF0C37BD465DF836
:102BD800047B704780B598B002AF78607B680022AC
:102BE800C3F89020FDF7E4FD78657B681B681B68D7
:102BF80003F00803082B2FD16FF07E4300937B6D01
:102C080000224FF40011786800F08EF80346002B7C
:102C180022D07B681B68BB63BB6B53E8003F7B63B8
:102C28007B6B23F080033B657B681B681A463B6D12
:102C38007B643A64396C7A6C41E80023FB63FB6B74
:102C4800002BE6D17B682022C3F888207B6800220D
:102C580083F88420032363E07B681B681B6803F008
:102C68000403042B49D16FF07E4300937B6D00224F
:102C78004FF48001786800F057F80346002B3CD0E9
:102C88007B681B687B627B6A53E8003F3B623B6A58
:102C980023F49073FB647B681B681A46FB6C3B63E8
:102CA800FA62F96A3A6B41E80023BB62BB6A002BFF
:102CB800E6D17B681B6808333B613B6953E8003FFA
:102CC800FB60FB6823F00103BB647B681B68083367
:102CD800BA6CFA61BB61B969FA6941E800237B61A2
:102CE8007B69002BE5D17B682022C3F88C207B68A8
:102CF800002283F88420032312E07B682022C3F893
:102D080088207B682022C3F88C207B680022DA6642
:102D18007B6800221A677B68002283F884200023DE
:102D280018465837BD4680BD80B584B000AFF860FE
:102D3800B9603B601346FB714FE0BB69B3F1FF3FDD
:102D48004BD0FDF735FD02463B68D31ABA699A4263
:102D580002D3BB69002B01D103234EE0FB681B683B
:102D68001B6803F00403002B37D0BB68802B34D0DA
:102D7800BB68402B31D0FB681B68DB6903F0080394
:102D8800082B10D1FB681B6808221A62F86800F04B
:102D980079F8FB680822C3F89020FB68002283F8C2
:102DA8008420012329E0FB681B68DB6903F40063C6
:102DB800B3F5006F11D1FB681B684FF400621A620B
:102DC800F86800F05FF8FB682022C3F89020FB68E1
:102DD800002283F8842003230FE0FB681B68DA696C
:102DE800BB681340BA689A420CBF01230023DBB2C8
:102DF8001A46FB799A42A0D0002318461037BD46E0
:102E080080BD80B48FB000AF78607B681B683B6280
:102E18003B6A53E8003FFB61FB6923F0C0037B6317
:102E28007B681B681A467B6BFB62BA62B96AFA6AEE
:102E380041E800237B627B6A002BE6D17B681B6834
:102E48000833FB60FB6853E8003FBB60BB6823F4B2
:102E580000033B637B681B6808333A6BBA617B618C
:102E68007969BA6941E800233B613B69002BE5D1E8
:102E78007B682022C3F8882000BF3C37BD465DF838
:102E8800047B704780B495B000AF78607B681B689E
:102E98007B637B6B53E8003F3B633B6B23F490738E
:102EA800FB647B681B681A46FB6C3B64FA63F96B2E
:102EB8003A6C41E80023BB63BB6B002BE6D17B680F
:102EC8001B6808333B623B6A53E8003FFB61FB69C0
:102ED80023F0805323F00103BB647B681B6808332D
:102EE800BA6CFA62BB62B96AFA6A41E800237B628B
:102EF8007B6A002BE3D17B68DB6E012B18D17B68E2
:102F08001B68FB60FB6853E8003FBB60BB6823F0AD
:102F180010037B647B681B681A467B6CBB617A6113
:102F28007969BA6941E800233B613B69002BE6D126
:102F38007B682022C3F88C207B680022DA667B68D5
:102F480000225A6700BF5437BD465DF8047B7047BE
:102F580080B590B000AF78607B689B6AFB637B6844
:102F68001B681B6803F02003002B37D1FB6B002282
:102F7800A3F85620FB6B1B6808337B627B6A53E817
:102F8800003F3B623B6A23F08003BB63FB6B1B681B
:102F98000833BA6B3A63FB62F96A3A6B41E800237B
:102FA800BB62BB6A002BE5D1FB6B1B683B613B69CD
:102FB80053E8003FFB60FB6843F040037B63FB6B17
:102FC8001B681A467B6BFB61BA61B969FA6941E80B
:102FD80000237B617B69002BE6D102E0F86BFFF7E9
:102FE8003DFA00BF4037BD4680BD80B584B000AF14
:102FF80078607B689B6AFB60F868FFF739FA00BF66
:103008001037BD4680BD80B586B000AF78607B685C
:103018009B6A7B617B69D3F888303B617B69D3F815
:103028008C30FB607B691B689B6803F08003802BF6
:1030380005D13B69212B02D17869FFF7E2FE7B6954
:103048001B689B6803F04003402B05D1FB68222BCB
:1030580002D17869FFF716FF7B69D3F8903043F007
:1030680010027B69C3F890207869FFF70BFA00BF5C
:103078001837BD4680BD80B485B000AF78607B68E6
:1030880093F88430012B01D1022327E07B680122C9
:1030980083F884207B682422C3F888207B681B6817
:1030A8001B68FB607B681B681A687B681B6822F0DA
:1030B80001021A60FB6823F00053FB607B68002262
:1030C8005A667B681B68FA681A607B682022C3F816
:1030D80088207B68002283F8842000231846143750
:1030E800BD465DF8047B704780B584B000AF78605A
:1030F80039607B6893F88430012B01D102232DE0DD
:103108007B68012283F884207B682422C3F8882006
:103118007B681B681B68FB607B681B681A687B6898
:103128001B6822F001021A607B681B689B6823F009
:1031380060417B681B683A680A439A60786800F0C7
:103148004FF87B681B68FA681A607B682022C3F80E
:1031580088207B68002283F88420002318461037D3
:10316800BD4680BD80B584B000AF786039607B68AB
:1031780093F88430012B01D102232DE07B680122D2
:1031880083F884207B682422C3F888207B681B6826
:103198001B68FB607B681B681A687B681B6822F0E9
:1031A80001021A607B681B689B6823F060617B687A
:1031B8001B683A680A439A60786800F011F87B68DF
:1031C8001B68FA681A607B682022C3F888207B682D
:1031D800002283F88420002318461037BD4680BD9E
:1031E80080B485B000AF78607B685B6E002B08D137
:1031F8007B680122A3F86A207B680122A3F8682073
:1032080031E00823FB730823BB737B681B689B684A
:103218005B0EDBB203F007037B737B681B689B685C
:103228005B0FDBB203F007033B73BB7B3A7B1149AF
:103238008A5C02FB03F33A7B0F498A5C93FBF2F347
:103248009AB27B68A3F86A20FB7B7A7B09498A5C7F
:1032580002FB03F37A7B08498A5C93FBF2F39AB288
:103268007B68A3F8682000BF1437BD465DF8047B6F
:10327800704700BFF4440008FC44000880B582B0E1
:1032880000AF78600B46FB70084A7B681A607B6861
:10329800FA781A717B6800225A71786800F0ECFCA1
:1032A8007B6818460837BD4680BD00BF1C4500082E
:1032B80080B483B000AF78607B685B7918460C37C0
:1032C800BD465DF8047B704780B582B000AF78607A
:1032D8000B46FB707B68FA7811461846FFF7CEFF5D
:1032E800034A7B681A607B6818460837BD4680BD6C
:1032F8007C45000880B582B000AF78600B46FB7053
:103308007B68FA7811461846FFF7B8FF034A7B68CE
:103318001A607B6818460837BD4680BD0C45000812
:1033280080B483B000AF78607B6801225A7100BF17
:103338000C37BD465DF8047B704780B483B000AF9E
:10334800786000BF0C37BD465DF8047B704700000D
:1033580080B582B000AFFDF7C7F900F083F800F040
:10336800F3F800F0F5F900F02DFA00F053FA00F048
:10337800CDFA304B1B6803F00103002B07D12E4A0E
:1033880000212E4800F000FE2A4B01221A602C4B27
:103398002A4A1A602B4B1B6803F00103002B06D145
:1033A80001212948FFF790FF264B01221A60274B7D
:1033B800254A1A60264B1B6803F00103002B06D12F
:1033C80002212448FFF796FF214B01221A60224B65
:1033D800204A1A600023FB71FB79022B0FD8FB7976
:1033E8001E4A52F823301B681B68FA791B4951F8AA
:1033F800222010469847FB790133FB71ECE708213E
:103408001748FEF7E9FA0346002B0CBF01230023F7
:10341800DBB2002B06D0012201214FF09040FEF7CD
:10342800F3FAECE7002201214FF09040FEF7ECFAA6
:10343800E5E700BF74010020080200209400002086
:1034480094030020800100207801002068030020F8
:103458008C01002084010020900300205C030020E0
:103468000008004880B594B000AF07F1180338226F
:103478000021184600F064FF3B1D00221A605A60C4
:103488009A60DA601A610020FEF754FD0223BB61DE
:103498004FF480737B624023BB6202237B63022369
:1034A800BB630423FB6355233B6402237B64022331
:1034B800BB640223FB6407F118031846FDF784F97F
:1034C8000346002B14BF01230023DBB2002B01D0DD
:1034D80000F01EF80F237B600323BB600023FB6012
:1034E80000233B6100237B613B1D04211846FDF747
:1034F8007DFC0346002B14BF01230023DBB2002B05
:1035080001D000F005F800BF5037BD4680BD00006F
:1035180080B500AF0A4B1B681846FFF7C9FE034683
:10352800012B14BF01230023DBB2002B05D0044B71
:103538001B680449184600F05FFE72B600BFFEE73C
:1035480094030020F843000880B58CB000AF07F161
:103558001C0300221A605A609A60DA601A61764B7E
:10356800DB6C754A43F00403D364734BDB6C03F0E4
:103578000403BB61BB69704BDB6C6F4A43F02003EB
:10358800D3646D4BDB6C03F020037B617B696A4B72
:10359800DB6C694A43F04003D364674BDB6C03F090
:1035A80040033B613B69644BDB6C634A43F00103B6
:1035B800D364614BDB6C03F00103FB60FB685E4B7B
:1035C800DB6C5D4A43F00203D3645B4BDB6C03F0B6
:1035D8000203BB60BB68584BDB6C574A43F00803D7
:1035E800D364554BDB6C03F008037B607B680022D7
:1035F8004FF6C3715148FEF707FA002203215048DD
:10360800FEF702FA00224FF480614E48FEF7FCF9FB
:10361800002249F601114FF09040FEF7F5F900221B
:103628004FF6F8314848FEF7EFF9002204214748E1
:10363800FEF7EAF94FF6C373FB6101233B620023EF
:103648007B620023BB6207F11C0319463B48FEF767
:1036580037F80323FB6101233B6200237B620023CD
:10366800BB6207F11C0319463548FEF729F84FF4E9
:103678008063FB6101233B6200237B620023BB6202
:1036880007F11C0319462F48FEF71AF80823FB61B7
:1036980000233B6200237B6207F11C03194627487D
:1036A800FEF70EF849F60113FB6101233B62002384
:1036B8007B620023BB6207F11C0319464FF0904060
:1036C800FDF7FEFF3023FB6103233B6200237B628F
:1036D80007F11C0319461948FDF7F2FF0323FB61A4
:1036E80003233B6200237B6207F11C03194616483B
:1036F800FDF7E6FF4FF6F833FB6101233B62002339
:103708007B620023BB6207F11C0319460E48FDF7D4
:10371800D7FF0423FB6101233B6200237B62002364
:10372800BB6207F11C0319460848FDF7C9FF00BF33
:103738003037BD4680BD00BF001002400008004879
:10374800001400480018004800040048000C004815
:1037580080B582B000AF1A4B9B6C194A43F0040342
:103768009364174B9B6C03F004037B607B68144BDA
:103778009B6C134A43F001039364114B9B6C03F059
:1037880001033B603B68002200210B20FEF761FD2E
:103798000B20FEF778FD002200210C20FEF759FDD2
:1037A8000C20FEF770FD002200215E20FEF751FD7F
:1037B8005E20FEF768FD00BF0837BD4680BD00BF2C
:1037C8000010024080B500AF104B114A1A600F4B31
:1037D80000225A600D4B00229A600C4B0022DA60DE
:1037E8000A4B00221A61094B00221A75074B002266
:1037F8009A61064B0022DA620448FCF7A5FE0346EC
:10380800002B01D0FFF784FE00BF80BD900100208F
:103818000003014080B500AF104B114A1A600F4BEE
:1038280000225A600D4B00229A600C4B0022DA608D
:103838000A4B00221A61094B00221A75074B002215
:103848009A61064B0022DA620448FCF77DFE0346C3
:10385800002B01D0FFF75CFE00BF80BDCC0100202B
:103868000403014080B58AB000AF786007F1140303
:1038780000221A605A609A60DA601A617B681B68D5
:103888001F4A934219D11F4BDB6C1E4A43F00103B8
:10389800D3641C4BDB6C03F001033B613B690E23D3
:1038A8007B610323BB610023FB6107F11403194605
:1038B8004FF09040FDF704FF1DE07B681B68124A3B
:1038C800934218D10F4BDB6C0E4A43F00103D364CB
:1038D8000C4BDB6C03F00103FB60FB68E0237B61AE
:1038E8000323BB610023FB6107F1140319464FF062
:1038F8009040FDF7E5FE00BF2837BD4680BD00BFFC
:1039080000030140001002400403014080B500AFED
:10391800224B234A1A60214B4FF4E1325A601F4B65
:1039280000229A601D4B0022DA601C4B00221A61AB
:103938001A4B0C225A61194B00229A61174B00222C
:10394800DA61164B00221A62144B00225A62134B9A
:1039580000229A621148FEF7B0FC0346002B01D002
:10396800FFF7D6FD00210D48FFF7BEFB0346002BED
:1039780001D0FFF7CDFD00210848FFF7F3FB034610
:10398800002B01D0FFF7C4FD0448FFF774FB034682
:10399800002B01D0FFF7BCFD00BF80BD080200204E
:1039A8000038014080B59EB000AF786007F164032D
:1039B80000221A605A609A60DA601A6107F11003EF
:1039C80054220021184600F0BBFC7B681B68494A5A
:1039D800934240F08B8001233B6100237B6107F118
:1039E80010031846FDF71EFC0346002B01D0FFF715
:1039F8008FFD414B1B6E404A43F4804313663E4B98
:103A08001B6E03F48043FB60FB683B4BDB6C3A4A5C
:103A180043F00103D364384BDB6C03F00103BB6054
:103A2800BB684FF4C0637B660223BB660023FB665A
:103A380000233B6707237B6707F1640319464FF0B0
:103A48009040FDF73DFE2D4B2D4A1A602B4B182256
:103A58005A602A4B00229A60284B0022DA60274BD2
:103A680080221A61254B00225A61244B00229A6158
:103A7800224B0022DA61214B00221A621F48FDF70F
:103A8800DBFF0346002B01D0FFF742FD7B681B4A92
:103A9800C3F88020194A7B6893621A4B1A4A1A6045
:103AA800184B19225A60174B10229A60154B0022A6
:103AB800DA60144B80221A61124B00225A61114BB2
:103AC80000229A610F4B0022DA610E4B00221A6223
:103AD8000C48FDF7B1FF0346002B01D0FFF718FD96
:103AE8007B68084ADA67074A7B68936200BF7837C1
:103AF800BD4680BD00380140001002409C020020F5
:103B080008000240FC0200201C00024080B400AF04
:103B1800FEE780B400AFFEE780B400AFFEE780B4F4
:103B280000AFFEE780B400AFFEE780B400AF00BF8F
:103B3800BD465DF8047B704780B400AF00BFBD464A
:103B48005DF8047B704780B400AF00BFBD465DF8E8
:103B5800047B704780B500AFFCF718FE00BF80BD3E
:103B680080B500AF0248FEF78AF800BF80BD00BFED
:103B78009C02002080B500AF0248FEF780F800BF25
:103B880080BD00BFFC02002080B400AF00BFBD466E
:103B98005DF8047B7047000080B582B000AF0F4B22
:103BA8001B6E0E4A43F0010313660C4B1B6E03F0A9
:103BB80001037B607B68094B9B6D084A43F0805387
:103BC8009365064B9B6D03F080533B603B68FEF7A3
:103BD80055FA00BF0837BD4680BD00BF001002403F
:103BE80080B400AF01231846BD465DF8047B7047DA
:103BF80080B582B000AF7860396000F069FB034699
:103C080016221A604FF0FF3318460837BD4680BDAC
:103C180080B582B000AF78604FF0FF317868FFF769
:103C2800E7FFFEE70D488546FCF77CFC0C480D498C
:103C38000D4A002302E0D458C4500433C4188C42FF
:103C4800F9D30A4A0A4C002301E013600432A24265
:103C5800FBD300F043FBFFF77BFBFEE700000220ED
:103C68000000002074000020A44500087400002013
:103C7800A8030020FEE7000080B582B000AF78609E
:103C88007B681B791A460C4B53F82230002B07D05F
:103C98000A4B1B680A49184600F0AEFAFFF738FCD1
:103CA8007B681B791946044A7B6842F8213000BFBB
:103CB8000837BD4680BD00BF5C0300209403002088
:103CC8002044000880B483B000AF786000BF0C3790
:103CD800BD465DF8047B704780B483B000AF786060
:103CE8000B46FB70074A7B681A607B68FA781A7182
:103CF8007B6800225A717B6818460C37BD465DF810
:103D0800047B70476845000880B582B000AF7860D2
:103D18000B46FB707B68FA7811461846FFF7DCFF04
:103D2800034A7B681A607B6818460837BD4680BD21
:103D38005445000880B483B000AF78607B680122E6
:103D48005A71012318460C37BD465DF8047B70474D
:103D580080B483B000AF78600B46FB700023184630
:103D68000C37BD465DF8047B7047000080B483B013
:103D780000AF7860034B18460C37BD465DF8047BEE
:103D8800704700BF4044000880B582B000AF78603B
:103D98000B46FB707B68FA7811461846FFF79CFFC4
:103DA800034A7B681A607B6818460837BD4680BDA1
:103DB8004045000880B483B000AF78607B6801227A
:103DC8005A71012318460C37BD465DF8047B7047CD
:103DD80080B483B000AF78600B46FB7000231846B0
:103DE8000C37BD465DF8047B7047000080B483B093
:103DF80000AF7860034B18460C37BD465DF8047B6E
:103E0800704700BF4444000880B582B000AF7860B6
:103E18000B46FB707B68FA7811461846FFF75CFF83
:103E2800034A7B681A607B6818460837BD4680BD20
:103E38002C45000880B483B000AF78607B6801220D
:103E48005A71012318460C37BD465DF8047B70474C
:103E580080B483B000AF78600B46FB70002318462F
:103E68000C37BD465DF8047B7047000080B483B012
:103E780000AF7860034B18460C37BD465DF8047BED
:103E8800704700BF4C44000880B584B000AF78602C
:103E98002F4B1B6803F00103002B06D100212D488E
:103EA800FFF772FF2A4B01221A602B4B1B6803F0A5
:103EB8000103002B06D101212848FFF7A5FF264B57
:103EC80001221A60264B1B6803F00103002B06D160
:103ED80002212448FFF718FF214B01221A60012311
:103EE800FB730023BB73BB7B022B18D8BB7B1E4A1A
:103EF80052F823301B681B68BA7B1B4951F82220F3
:103F08001046984703461A46FB7B1340002B14BF04
:103F180001230023FB73BB7B0133BB73E3E7FB7B0C
:103F280083F00103DBB2002B04D07B6803225A71B3
:103F3800FFF7EEFA7B6801225A710C4B1B680C499B
:103F4800184600F059F900BF1037BD4680BD00BFC4
:103F5800740300206C0300208003002078030020F5
:103F68008C03002084030020980300209403002081
:103F78005844000880B483B000AF786000BF0C37A5
:103F8800BD465DF8047B70472DE9F04F95B000AF52
:103F980078630B46FA6287F833307A6B97F83330D8
:103FA80019461046FFF76AF97E4A7B6B1A607A6BEE
:103FB8000023D3807A6BFB6AC2F8D0307A6B002377
:103FC8005371FB6A002B04D1FFF7A2FA7A6B032323
:103FD8005371FB6AD3F88030002B03D0FB6ADB6F88
:103FE800002B04D1FFF794FA7A6B03235371FB6A11
:103FF800D3F880207B6BC3F8D420FB6ADA6F7B6B25
:10400800C3F8D820FB6A9B68B3F1805F15D0B3F181
:10401800805F19D8002B09D0B3F5805F14D14FF019
:1040280009024FF00003C7E9122312E04FF008021B
:104038004FF00003C7E912230BE04FF007024FF0DF
:104048000003C7E9122304E07A6B03235371FFF7D7
:104058005FFAFB6ADB68B3F5405F14D0B3F5405FE5
:1040680018D8B3F5005F0ED0B3F5005F12D8002B57
:1040780002D0B3F5805F0DD14FF001024FF000037D
:10408800C7E910230BE04FF002024FF00003C7E925
:10409800102304E07A6B03235371FFF739FAFB6AA4
:1040A8001B69002B14BF01230023DBB2DBB2002203
:1040B8003B607A60D7E90023C7E90E23D7E91201EC
:1040C800D7E90E238618BE6141EB0303FB61D7E9EC
:1040D8001023B96989183961F96943EB01017961DC
:1040E800D7E904120B4601333B62134643F1000340
:1040F8007B62FB6A5B680022BB60FA60D7E9022337
:1041080029484FF00001FCF783F802460B46796A0C
:1041180002FB01F0396A01FB03F10144386AA0FB94
:10412800028901EB0903994642464B464FF00000CD
:104138004FF00001990041EA9271900002460B4647
:1041480012EB080443EB09054FF000024FF000039F
:104158002B0143EA14732201B2EB040A63EB050B4B
:104168004FF000024FF000034FEA0B1343EA1A73B3
:104178004FEA0A1292469B46504659460B4A4FF060
:104188000003FCF745F802460B4692B27B6BDA80D7
:104198007B6B002283F8DC207B6B18465437BD46C6
:1041A800BDE8F08F8C45000840420F0080969800CB
:1041B80080B582B000AF78607B685B79002B02D055
:1041C8007B6803225A710949786800F015F8084994
:1041D800786800F011F80749786800F00DF87B68F6
:1041E80001225A7100BF0837BD4680BD74440008DB
:1041F8008C440008A844000880B584B000AF7860FB
:104208003960FCF7D5FAF8607B68D3F8D030D3F87A
:104218008830202B14BF01230023DBB2002B0FD0E2
:10422800FCF7C6FA0246FB68D31A7A68D28893422A
:104238002CBF01230023DBB2002BE5D0002327E0AD
:104248003868FCF767F9B860BB68002B02D0BB6818
:10425800642B01D900231BE07B680833BA683968EE
:10426800184600F05FF87B68D3F8D0007B68083305
:10427800BA6892B21946FEF771F80346002B14BFCC
:1042880001230023DBB2002B01D0002300E001232F
:1042980018461037BD4680BD08B500F00DF808B5C2
:1042A800804700F00EF80000024B1868BFF35B8FE0
:1042B800704700BF0C00002008B5FFF7F5FFFFF7B7
:1042C800EEFF08B5062000F06BF80120FFF7A0FC10
:1042D800014B1868704700BF1000002070B50D4DE5
:1042E8000D4C641BA4100026A64209D10B4D0C4CA2
:1042F80000F072F8641BA4100026A64205D170BD18
:1043080055F8043B98470136EEE755F8043B9847C3
:104318000136F2E79C4500089C4500089C450008CA
:10432800A04500080A44914200F1FF3300D17047CC
:1043380010B511F8014B03F8014F9142F9D110BDA6
:1043480002440346934200D1704703F8011BF9E782
:104358001F2938B504460D4604D9162303604FF0CB
:10436800FF3038BD426C12B152F821304BB92046AB
:1043780000F030F82A4601462046BDE8384000F0F3
:1043880017B8012B0AD0591C03D11623036001204A
:10439800E7E7002442F82540284698470020E0E750
:1043A800024B01461868FFF7D3BF00BF100000207A
:1043B80038B5074D00230446084611462B60FFF721
:1043C80017FC431C02D12B6803B1236038BD00BF22
:1043D800A4030020FFF704BCF8B500BFF8BC08BC74
:1043E8009E467047F8B500BFF8BC08BC9E467047AB
:1043F800437269746963616C206572726F722C20F4
:104408006A756D7020746F206572726F72206861B2
:104418006E646C65720A00004552523A20736563F7
:104428006F6E64206D6F64756C6520696E69746960
:10443800617465640A00000061646300687837315C
:10444800310000006164635F6F70616D700000008F
:10445800636F6D6D616E64206D6F64756C65206946
:104468006E697469617465640000000057656C6367
:104478006F6D652066726F6D2053544D333247342B
:104488000A000000496E2053747261696E67204704
:10449800617567652073656E736F720A0A0A00009A
:1044A80055736572206D657373656E6765722069F3
:1044B8006E697469617465640A0000000000000098
:1044C80000000000010203040607080900000000BC
:1044D80001020304010002000400060008000A00AB
:1044E8000C001000200040008000000101010103C1
:1044F800070100000804020408010101000000008F
:1045080000000000293300084333000800000000C1
:1045180000000000A1420008A142000800000000BD
:10452800000000003D3E0008593E0008753E0008A6
:104538000000000000000000BD3D0008D93D000853
:10454800F53D000800000000000000003D3D0008A7
:10455800593D0008753D00080000000000000000FB
:10456800A1420008A1420008A14200080000000082
:1045780000000000913E0008CD3C0008000000004B
:0C45880000000000B94100087D3F000861
:08459400B4BCFF7F0100000030
:04459C00FD01000815
:0445A000D901000835
:1045A4000024F4001000000001000000CB420008C9
:1045B40014000020000000000000000000000000C3
:1045C40000000000000000000000000000000000E7
:1045D40000000000000000000000000000000000D7
:1045E40000000000000000000000000000000000C7
:1045F40000000000000000000000000000000000B7
:1046040000000000000000000000000000000000A6
:0446140000000000A2
:0400000508003C2D86
:00000001FF
