:020000040800F2
:100000000000022009780008817600088776000841
:100010008D760008937600089976000800000000AD
:100020000000000000000000000000009F760008B3
:10003000AD76000800000000BB760008C976000815
:10004000597800085978000859780008597800084C
:10005000597800085978000859780008597800083C
:10006000597800085978000859780008D5760008B2
:10007000E97600085978000859780008597800088E
:10008000597800085978000859780008597800080C
:1000900059780008597800085978000859780008FC
:1000A00059780008597800085978000859780008EC
:1000B00059780008597800085978000859780008DC
:1000C00059780008597800085978000859780008CC
:1000D00059780008FD76000859780008597800081A
:1000E00059780008597800085978000859780008AC
:1000F000597800085978000859780008597800089C
:10010000597800085978000859780008597800088B
:10011000597800085978000859780008597800087B
:10012000597800085978000859780008597800086B
:10013000597800085978000859780008597800085B
:10014000597800085978000859780008597800084B
:10015000597800085978000859780008597800083B
:10016000597800085978000859780008597800082B
:10017000597800085978000859780008597800081B
:10018000597800085978000859780008597800080B
:1001900059780008000000005978000859780008D4
:1001A00059780008597800085978000859780008EB
:1001B00059780008597800085978000859780008DB
:1001C00059780008597800085978000859780008CB
:0801D000597800085978000875
:1001E00010B5054C237833B9044B13B10448AFF371
:1001F00000800123237010BD980000200000000043
:1002000068CA000808B5034B1BB103490348AFF3A4
:10021000008008BD000000009C00002068CA0008A3
:1002200053B94AB9002908BF00281CBF4FF0FF315D
:100230004FF0FF3000F074B9ADF1080C6DE904CE59
:1002400000F006F8DDF804E0DDE9022304B07047B1
:100250002DE9F047089D04468E46002B4DD18A4279
:10026000944669D9B2FA82F252B101FA02F3C2F1AC
:10027000200120FA01F10CFA02FC41EA030E94403D
:100280004FEA1C48210CBEFBF8F61FFA8CF708FB5E
:1002900016E341EA034306FB07F199420AD91CEB36
:1002A000030306F1FF3080F01F81994240F21C8168
:1002B000023E63445B1AA4B2B3FBF8F008FB1033B0
:1002C00044EA034400FB07F7A7420AD91CEB0404E5
:1002D00000F1FF3380F00A81A74240F207816444B5
:1002E000023840EA0640E41B00261DB1D44000233A
:1002F000C5E900433146BDE8F0878B4209D9002D9E
:1003000000F0EF800026C5E9000130463146BDE827
:10031000F087B3FA83F6002E4AD18B4202D3824291
:1003200000F2F980841A61EB030301209E46002D40
:10033000E0D0C5E9004EDDE702B9FFDEB2FA82F295
:10034000002A40F09280A1EB0C014FEA1C471FFAF3
:100350008CFE0126200CB1FBF7F307FB131140EADA
:1003600001410EFB03F0884208D91CEB010103F1A7
:10037000FF3802D2884200F2CB804346091AA4B269
:10038000B1FBF7F007FB101144EA01440EFB00FE3D
:10039000A64508D91CEB040400F1FF3102D2A645A2
:1003A00000F2BB800846A4EB0E0440EA03409CE741
:1003B000C6F12007B34022FA07FC4CEA030C20FAEE
:1003C00007F401FA06F31C43F9404FEA1C4900FA0E
:1003D00006F3B1FBF9F8200C1FFA8CFE09FB18118B
:1003E00040EA014108FB0EF0884202FA06F20BD9FE
:1003F0001CEB010108F1FF3A80F08880884240F24E
:100400008580A8F102086144091AA4B2B1FBF9F091
:1004100009FB101144EA014100FB0EFE8E4508D98C
:100420001CEB010100F1FF346CD28E456AD9023811
:10043000614440EA0840A0FB0294A1EB0E01A142F6
:10044000C846A64656D353D05DB1B3EB080261EB64
:100450000E0101FA07F722FA06F3F1401F43C5E93E
:10046000007100263146BDE8F087C2F12003D84074
:100470000CFA02FC21FA03F3914001434FEA1C47B6
:100480001FFA8CFEB3FBF7F007FB10360B0C43EAA8
:10049000064300FB0EF69E4204FA02F408D91CEB58
:1004A000030300F1FF382FD29E422DD90238634456
:1004B0009B1B89B2B3FBF7F607FB163341EA0341F6
:1004C00006FB0EF38B4208D91CEB010106F1FF3845
:1004D00016D28B4214D9023E6144C91A46EA00463C
:1004E00038E72E46284605E70646E3E61846F8E6CE
:1004F0004B45A9D2B9EB020864EB0C0E0138A3E717
:100500004646EAE7204694E74046D1E7D0467BE7F7
:10051000023B614432E7304609E76444023842E76F
:10052000704700BF034613F8012B002AFBD1181AAD
:1005300001387047000000000000000000000000CB
:1005400001F0FF01102A2BDB10F0070F08D010F884
:10055000013B013A8B422DD010F0070F42B3F6D188
:10056000F0B441EA012141EA014122F007047FF0A1
:1005700000070023F0E80256083C85EA010586EAF8
:10058000010685FA47F5A3FA87F586FA47F6A5FA34
:1005900087F68EB9EED1F0BC01F0FF0102F0070240
:1005A00032B110F8013B013A83EA010313B1F8D1EB
:1005B0000020704701387047002D06BF35460338CC
:1005C000073815F0010F07D1013015F4807F02BF05
:1005D000013015F4C03F0130F0BC0138704700BF56
:1005E00080B400AF064BD3F88830054A43F470035B
:1005F000C2F8883000BFBD465DF8047B704700BF7D
:1006000000ED00E080B483B000AF786039607B68B3
:100610009B6823F47C123B681A437B689A6000BF96
:100620000C37BD465DF8047B704780B483B000AFE3
:10063000786039607B689B6823F0E0723B681A43FE
:100640007B689A6000BF0C37BD465DF8047B70473D
:1006500080B483B000AF78607B689B6803F0E07380
:1006600018460C37BD465DF8047B704780B487B0F0
:1006700000AFF860B9607A603B60FB6860331A468F
:10068000BB689B0013447B617B691A68084B13406D
:100690007A6802F0F8413A680A43134343F0004293
:1006A0007B691A6000BF1C37BD465DF8047B70474C
:1006B00000F0FF0380B485B000AF786039607B68DC
:1006C00060331A463B689B001344FB60FB681B6861
:1006D00003F0F84318461437BD465DF8047B7047B5
:1006E00080B487B000AFF860B9607A60FB686033AF
:1006F0001A46BB689B0013447B617B691B6823F02F
:1007000000427B681A437B691A6000BF1C37BD46F4
:100710005DF8047B704780B487B000AFF860B960C3
:100720007A60FB6860331A46BB689B0013447B61A8
:100730007B691B6823F080727B681A437B691A60AF
:1007400000BF1C37BD465DF8047B704780B487B09E
:1007500000AFF860B9607A60FB6860331A46BB6826
:100760009B0013447B617B691B6823F000727B68EC
:100770001A437B691A6000BF1C37BD465DF8047BD5
:10078000704780B483B000AF786039607B685B6984
:1007900023F000423B681A437B685A6100BF0C3764
:1007A000BD465DF8047B704780B483B000AF7860CD
:1007B0007B68DB6803F44063002B01D1012300E078
:1007C000002318460C37BD465DF8047B704780B4A3
:1007D00087B000AFF860B9607A60FB6830331A46C2
:1007E000BB681B0A9B0003F00C0313447B617B690D
:1007F0001A68BB6803F01F031F2101FA03F3DB43F0
:100800001A407B689B0E03F01F01BB6803F01F03B7
:1008100001FA03F31A437B691A6000BF1C37BD4617
:100820005DF8047B704780B487B000AFF860B960B2
:100830007A60FB6814331A46BB685B0E9B0003F0BA
:10084000040313447B617B691A68BB681B0D03F0CA
:100850001F03072101FA03F3DB431A40BB681B0D9A
:1008600003F01F03796801FA03F31A437B691A60E6
:1008700000BF1C37BD465DF8047B704780B485B06F
:1008800000AFF860B9607A60FB68D3F8B020BB684D
:10089000C3F31203DB431A407B6803F018030849D3
:1008A000D940BB680B40C3F312031A43FB68C3F87B
:1008B000B02000BF1437BD465DF8047B704700BF11
:1008C000FFFF070080B483B000AF78607B689B684F
:1008D00003F01F0318460C37BD465DF8047B7047D4
:1008E00080B483B000AF78607B689B6803F460439A
:1008F00018460C37BD465DF8047B704780B483B062
:1009000000AF78607B689B6823F0204323F03F03AF
:100910007A68936000BF0C37BD465DF8047B704772
:1009200080B483B000AF78607B689B6803F00053AD
:10093000B3F1005F01D1012300E0002318460C371A
:10094000BD465DF8047B704780B483B000AF78602B
:100950007B689B6823F0104323F03F0343F08052F1
:100960007B689A6000BF0C37BD465DF8047B70471A
:1009700080B483B000AF78607B689B6803F08053DD
:10098000B3F1805F01D1012300E0002318460C374A
:10099000BD465DF8047B704780B483B000AF7860DB
:1009A0007B689B6823F0004323F03F0343F0010280
:1009B0007B689A6000BF0C37BD465DF8047B7047CA
:1009C00080B483B000AF78607B689B6823F00043FD
:1009D00023F03F0343F002027B689A6000BF0C37AC
:1009E000BD465DF8047B704780B483B000AF78608B
:1009F0007B689B6803F00103012B01D1012300E018
:100A0000002318460C37BD465DF8047B704780B460
:100A100083B000AF78607B689B6803F00203022B11
:100A200001D1012300E0002318460C37BD465DF8D4
:100A3000047B704780B483B000AF78607B689B68AC
:100A400023F0004323F03F0343F004027B689A60E5
:100A500000BF0C37BD465DF8047B704780B483B09F
:100A600000AF78607B689B6823F0004323F03F036E
:100A700043F010027B689A6000BF0C37BD465DF8FA
:100A8000047B704780B483B000AF78607B689B685C
:100A900003F00403042B01D1012300E000231846D6
:100AA0000C37BD465DF8047B704780B483B000AF5F
:100AB00078607B689B6823F0004323F03F0343F09A
:100AC00020027B689A6000BF0C37BD465DF8047B4E
:100AD000704780B483B000AF78607B689B6803F098
:100AE0000803082B01D1012300E0002318460C372E
:100AF000BD465DF8047B704790B589B000AF786063
:100B00000023FB770023FB607B68002B01D10123CE
:100B1000A9E17B685B69002B7B68DB6D002B09D149
:100B2000786806F0E7FA7B6800221A667B68002284
:100B300083F858207B681B681846FFF7F1FE0346D0
:100B4000002B04D07B681B681846FFF7D7FE7B6834
:100B50001B681846FFF70CFF0346002B15D17B6876
:100B60001B681846FFF7F0FE9C4B1B689B099C4ACC
:100B7000A2FB03239B0901335B00FB6002E0FB68DF
:100B8000013BFB60FB68002BF9D17B681B681846B2
:100B9000FFF7EEFE0346002B0DD17B68DB6D43F0C3
:100BA00010027B68DA657B681B6E43F001027B688C
:100BB0001A660123FB777B681B681846FFF762FF04
:100BC00078617B68DB6D03F01003002B40F04281FD
:100BD0007B69002B40F03E817B68DB6D23F48173E1
:100BE00043F002027B68DA657B681B681846FFF7F2
:100BF000FBFE0346002B41D17B681B68B3F1A04F7D
:100C000004D07B681B68774A93420FD14FF0A04015
:100C1000FFF7EAFE04467348FFF7E6FE0346234368
:100C2000002B0CBF01230023DBB212E06E48FFF75C
:100C3000DBFE04466D48FFF7D7FE03461C436C48B5
:100C4000FFF7D2FE03462343002B0CBF01230023F2
:100C5000DBB2002B12D07B681B68B3F1A04F04D02D
:100C60007B681B685F4A934201D1624A00E0624A96
:100C70007B685B6819461046FFF7C4FC7B685B7FA6
:100C80005A037B68DB6B1A437B68DB681A437B681B
:100C90009B681A437B6893F824301B041343BB61A1
:100CA0007B6893F82430012B06D17B689B6A013B5B
:100CB0005B04BA691343BB617B68DB6A002B09D014
:100CC0007B68DB6A03F478727B681B6B1343BA6939
:100CD0001343BB617B681B68DA68484B13407A6832
:100CE0001268B9690B43D3607B681B681B6923F0EA
:100CF00040617B685A6B7B681B680A431A617B689A
:100D00001B681846FFF7E5FE38617B69002B7FD131
:100D10003B69002B7CD17B681B7F9A037B6893F82F
:100D200038305B001343BB617B681B68DB6823F4CE
:100D3000804323F002037A681268B9690B43D360D9
:100D40007B681B69002B17D07B681B681A697B685E
:100D50001B6842F480321A617B681B68D3F8C0308C
:100D600023F47F5323F03F037A6811697A6812688D
:100D70000B43C2F8C03013E07B681B681A697B68BC
:100D80001B6822F480321A617B681B68D3F8C0307C
:100D90007A68126823F47F5323F03F03C2F8C0300F
:100DA0007B6893F84030012B2AD17B681B681B6954
:100DB00023F4FF6323F004037A68516C7A68926C21
:100DC00011437A68D26C11437A68126D0A431A4350
:100DD0007B681B6842F001021A6119E004000020E0
:100DE000632D3E0500010050000400500005005036
:100DF0000006005000030050000700500740F0FFBD
:100E00007B681B681A697B681B6822F001021A6103
:100E10007B685B69012B0CD17B681B681B6B23F023
:100E20000F017B681B6A5A1E7B681B680A431A63A2
:100E300007E07B681B681A6B7B681B6822F00F0257
:100E40001A637B68DB6D23F0030343F001027B68C8
:100E5000DA6507E07B68DB6D43F010027B68DA65DA
:100E60000123FB77FB7F18462437BD4690BD00BFAA
:100E700080B586B000AF78607B681B68B3F1A04F87
:100E800004D07B681B68674A934201D1664B00E03F
:100E9000664B1846FFF716FD38617B681B681846DD
:100EA000FFF7F0FD0346002B40F0B4807B6893F819
:100EB0005830012B01D10223AFE07B68012283F877
:100EC0005820786800F0FCFE0346FB75FB7D002B84
:100ED00040F09B807B68DB6D23F4706323F001039B
:100EE00043F480727B68DA657B681B684D4A9342E5
:100EF00009D07B681B684E4A934202D07B681B680E
:100F000003E04C4B01E04FF0A0437A681268934233
:100F100002D03B69002B05D17B68DB6D23F4801286
:100F20007B68DA657B68DB6D03F48053B3F5805F23
:100F300006D17B681B6E23F006027B681A6602E00E
:100F40007B6800221A667B681B681C221A607B681B
:100F5000002283F858207B681B68324A934209D0EC
:100F60007B681B68324A934202D07B681B6803E0AF
:100F7000304B01E04FF0A0437A681268934208D0EA
:100F80003B69002B05D03B69052B02D03B69092B3F
:100F900014D17B681B68DB6803F00073002B07D05B
:100FA0007B68DB6D23F4405343F480527B68DA6541
:100FB0007B681B681846FFF73DFD2DE07B68DB6D05
:100FC00043F480127B68DA657B681B68154A93429C
:100FD00009D07B681B68164A934202D07B681B6865
:100FE00003E0144B01E04FF0A043FB60FB68DB68BB
:100FF00003F00073002B0FD07B68DB6D23F44053AC
:1010000043F480527B68DA6506E07B68002283F84F
:10101000582001E00223FB75FB7D18461837BD46BA
:1010200080BD00BF000100500003005000070050C9
:10103000000500500004005080B584B000AF786017
:101040007B6893F85830012B01D1022323E07B68A1
:10105000012283F858200321786800F075FD0346CB
:10106000FB73FB7B002B11D1786800F0BFFE0346B9
:10107000FB73FB7B002B09D17B68DB6D23F488536A
:1010800023F0010343F001027B68DA657B680022EC
:1010900083F85820FB7B18461037BD4680BD000002
:1010A00080B588B000AF786039607B681B68B3F1A9
:1010B000A04F04D07B681B68774A934201D1774BDD
:1010C00000E0774B1846FFF7FDFB78617B689B6972
:1010D000082B02D10823FB6137E07B69002B05D088
:1010E0007B69052B02D07B69092B11D17B681B68BA
:1010F000DB6803F00103002B07D07B68DB6D43F056
:1011000020027B68DA650123C1E00423FB611CE057
:101110007B681B68B3F1A04F04D07B681B685E4AF4
:10112000934201D15D4B00E05D4B1846FFF7D8FBC1
:101130000346002B07D07B68DB6D43F020027B6801
:10114000DA650123A3E00423FB6101F041F8386173
:1011500021E03B68B3F1FF3F1DD001F039F80246B2
:101160003B69D31A3A689A4202D33B68002B12D1EA
:101170007B681B681A68FB691340002B0BD17B68E6
:10118000DB6D43F004027B68DA657B68002283F83C
:10119000582003237BE07B681B681A68FB691340B7
:1011A000002BD6D07B68DB6D43F400727B68DA6578
:1011B0007B681B681846FFF7F7FA0346002B1CD024
:1011C0007B685B7F002B18D17B681B681B6803F072
:1011D0000803082B11D17B68DB6D23F480727B68D8
:1011E000DA657B68DB6D03F48053002B05D17B68E7
:1011F000DB6D43F001027B68DA657B681B68264A79
:10120000934209D07B681B68264A934202D07B68D0
:101210001B6803E0244B01E04FF0A0437A6812689A
:10122000934208D07B69002B05D07B69052B02D047
:101230007B69092B04D17B681B68DB68BB6114E008
:101240007B681B68144A934209D07B681B68154A67
:10125000934202D07B681B6803E0134B01E04FF020
:10126000A043FB60FB68DB68BB61FB69082B04D112
:101270007B681B6808221A6008E0BB6903F480439E
:10128000002B03D17B681B680C221A6000231846D0
:101290002037BD4680BD00BF000100500003005054
:1012A00000070050000500500004005080B483B0D7
:1012B00000AF78607B681B681B6C18460C37BD4616
:1012C0005DF8047B7047000080B5B6B000AF786071
:1012D0003960002387F8D7300023FB607B6893F8E0
:1012E0005830012B02D1022300F013BC7B6801228D
:1012F00083F858207B681B681846FFF7C3FB03463A
:10130000002B40F0F3837B6818683B6859683B68A2
:101310001B681A46FFF75BFA7B681B681846FFF7E5
:10132000B1FBC7F8D0007B681B681846FFF7D1FBFC
:10133000C7F8CC00D7F8D030002B40F0D981D7F8CF
:10134000CC30002B40F0D4813B689B68B3F1004F58
:101350000FD17B6818683B681B6800221946FFF7AD
:1013600062FA7B681B684FF000411846FFF709FAE4
:101370000EE07B6818683B6819683B689B681A46F2
:10138000FFF751FA7B681B6800211846FFF7F9F94F
:101390003B685A697B681B68DB68DB0803F0030362
:1013A0005B0002FA03F3C7F8C8303B681B69042BE3
:1013B00022D07B6818683B6819693B681A68D7F8BF
:1013C000C830FFF753F97B6818683B6819693B68B8
:1013D0009B691A46FFF79FF97B6818683B68196993
:1013E0003B681B7F012B02D14FF0007300E000230C
:1013F0001A46FFF7ABF97BE17B681B6800211846B2
:10140000FFF758F90346C3F31203002B0AD17B6898
:101410001B6800211846FFF74DF903469B0E03F0A9
:101420001F021EE07B681B6800211846FFF742F987
:101430000346C7F8BC30D7F8BC3093FAA3F3C7F81B
:10144000B830D7F8B830C7F8C030D7F8C030002B64
:1014500001D1202304E0D7F8C030B3FA83F3DBB224
:101460001A463B681B68C3F31203002B05D13B6887
:101470001B689B0E03F01F0318E03B681B68C7F84E
:10148000B030D7F8B03093FAA3F3C7F8AC30D7F840
:10149000AC30C7F8B430D7F8B430002B01D12023DA
:1014A00004E0D7F8B430B3FA83F3DBB29A4206D142
:1014B0007B681B68002200211846FFF711F97B6842
:1014C0001B6801211846FFF7F5F80346C3F3120322
:1014D000002B0AD17B681B6801211846FFF7EAF848
:1014E00003469B0E03F01F021EE07B681B68012170
:1014F0001846FFF7DFF80346C7F8A430D7F8A43042
:1015000093FAA3F3C7F8A030D7F8A030C7F8A830F3
:10151000D7F8A830002B01D1202304E0D7F8A83059
:10152000B3FA83F3DBB21A463B681B68C3F31203BA
:10153000002B05D13B681B689B0E03F01F0318E0CE
:101540003B681B68C7F89830D7F8983093FAA3F334
:10155000C7F89430D7F89430C7F89C30D7F89C304F
:10156000002B01D1202304E0D7F89C30B3FA83F399
:10157000DBB29A4206D17B681B6800220121184623
:10158000FFF7AEF87B681B6802211846FFF792F858
:101590000346C3F31203002B0AD17B681B680221A8
:1015A0001846FFF787F803469B0E03F01F021EE064
:1015B0007B681B6802211846FFF77CF80346C7F8D2
:1015C0008C30D7F88C3093FAA3F3C7F88830D7F86B
:1015D0008830C7F89030D7F89030002B01D1202305
:1015E00004E0D7F89030B3FA83F3DBB21A463B68D5
:1015F0001B68C3F31203002B05D13B681B689B0ECD
:1016000003F01F0316E03B681B68C7F88030D7F86B
:10161000803093FAA3F3FB67FB6FC7F88430D7F8E9
:101620008430002B01D1202304E0D7F88430B3FAB2
:1016300083F3DBB29A4206D17B681B680022022149
:101640001846FFF74DF87B681B6803211846FFF723
:1016500031F80346C3F31203002B0AD17B681B68E1
:1016600003211846FFF726F803469B0E03F01F02DE
:1016700017E07B681B6803211846FFF71BF8034639
:101680007B677B6F93FAA3F33B673B6FBB67BB6FD3
:10169000002B01D1202303E0BB6FB3FA83F3DBB24D
:1016A0001A463B681B68C3F31203002B05D13B6845
:1016B0001B689B0E03F01F0311E03B681B68BB66B1
:1016C000BB6E93FAA3F37B667B6EFB66FB6E002B0F
:1016D00001D1202303E0FB6EB3FA83F3DBB29A421D
:1016E00006D17B681B68002203211846FEF7F8FF2D
:1016F0007B681B681846FFF777F90346002B40F01C
:101700003D817B6818683B6819683B68DB681A464E
:10171000FFF7B4F83B68DB68A24A934240F02E81A1
:101720007B6818683B681B68C3F31203002B0BD15E
:101730003B681B689B0E013303F01F03092B94BF0A
:1017400001230023DBB219E03B681B68FB65FB6DDE
:1017500093FAA3F3BB65BB6D3B663B6E002B01D1D7
:10176000202303E03B6EB3FA83F3DBB2013303F0D3
:101770001F03092B94BF01230023DBB2002B79D078
:101780003B681B68C3F31203002B07D13B681B683F
:101790009B0E01339B0603F0F84215E03B681B6883
:1017A0003B653B6D93FAA3F3FB64FB6C7B657B6D40
:1017B000002B01D1202303E07B6DB3FA83F3DBB26E
:1017C00001339B0603F0F8423B681B68C3F3120326
:1017D000002B09D13B681B689B0E013303F01F03EC
:1017E000012101FA03F317E03B681B687B647B6C03
:1017F00093FAA3F33B643B6CBB64BB6C002B01D13D
:10180000202303E0BB6CB3FA83F3DBB2013303F0B4
:101810001F03012101FA03F342EA03013B681B683D
:10182000C3F31203002B0AD13B681B689B0E0133E4
:1018300003F01F0213465B0013441B0518E03B68CE
:101840001B68BB63BB6B93FAA3F37B637B6BFB638C
:10185000FB6B002B01D1202303E0FB6BB3FA83F376
:10186000DBB2013303F01F0213465B0013441B0578
:101870000B437EE03B681B68C3F31203002B07D1C8
:101880003B681B689B0E01339B0603F0F84215E092
:101890003B681B68FB62FB6A93FAA3F3BB62BB6AFB
:1018A0003B633B6B002B01D1202303E03B6BB3FA7E
:1018B00083F3DBB201339B0603F0F8423B681B68FD
:1018C000C3F31203002B09D13B681B689B0E013345
:1018D00003F01F03012101FA03F317E03B681B68C3
:1018E0003B623B6A93FAA3F3FB61FB697B627B6A11
:1018F000002B01D1202303E07B6AB3FA83F3DBB230
:10190000013303F01F03012101FA03F342EA03014B
:101910003B681B68C3F31203002B0DD13B681B68A7
:101920009B0E013303F01F0213465B0013441E3B62
:101930001B0543F000731BE03B681B687B617B6900
:1019400093FAA3F33B613B69BB61BB69002B01D1F7
:10195000202303E0BB69B3FA83F3DBB2013303F066
:101960001F0213465B0013441E3B1B0543F000732C
:101970000B433A6892681946FEF755FF3B681A68B0
:10198000094B1340002B00F0BE807B681B68B3F14D
:10199000A04F04D07B681B68044A93420AD1044BD1
:1019A00009E000BF00007F400000088000010050F7
:1019B00000030050594B1846FEF74AFEC7F8C40012
:1019C0003B681B68564A934204D03B681B68554AE3
:1019D00093423AD1D7F8C43003F40003002B34D13A
:1019E0007B681B68B3F1A04F05D07B681B684E4A2B
:1019F000934240F085807B681B68B3F1A04F04D010
:101A00007B681B68494A934201D1494A00E0434A36
:101A1000D7F8C43043F4000319461046FEF705FE1C
:101A2000444B1B689B09444AA2FB03239B095A1C95
:101A300013465B0013449B00FB6002E0FB68013B24
:101A4000FB60FB68002BF9D15AE03B681B683B4AFE
:101A5000934225D1D7F8C43003F08073002B1FD1F7
:101A60007B681B68314A93424CD07B681B68344AC0
:101A7000934247D07B681B68B3F1A04F04D07B68CA
:101A80001B682A4A934201D1294A00E0234AD7F829
:101A9000C43043F0807319461046FEF7C6FD31E0AE
:101AA0003B681B68274A93422DD1D7F8C43003F412
:101AB0008003002B27D17B681B681C4A934222D0ED
:101AC0007B681B68B3F1A04F04D07B681B68174A82
:101AD000934201D1164A00E0104AD7F8C43043F4CB
:101AE000800319461046FEF7A0FD0CE07B68DB6D15
:101AF00043F020027B68DA65012387F8D73002E0E3
:101B000000BF00E000BF7B68002283F8582097F8F0
:101B1000D7301846D837BD4680BD00BF00070050FB
:101B2000000021C31000C0900006005000010050CA
:101B30000003005004000020632D3E05000052C742
:101B400000050050000084CB80B588B000AF7860FD
:101B500039600023FB613B68BB617B681B681846EA
:101B6000FEF790FF38617B681B681846FEF7B1FFEF
:101B7000F8603B69002B03D1FB68002B00F09880D4
:101B80007B681B68DB6803F00073002B2AD07B683E
:101B90005B7F012B26D17B681B7F012B22D1012388
:101BA000BB6114E0FB69454A93420DD97B68DB6D4C
:101BB00043F010027B68DA657B681B6E43F001021C
:101BC0007B681A66012374E0FB690133FB617B6863
:101BD0001B681B6803F04003402BE3D17B681B6844
:101BE00040221A60BB69022B14D07B681B68184620
:101BF000FEF748FF0346002B0CD07B681B68184695
:101C0000FEF705FF0346002B04D17B681B681846CE
:101C1000FEF724FFBB69012B14D07B681B681846B4
:101C2000FEF757FF0346002B0CD07B681B68184655
:101C3000FEF7EDFE0346002B04D17B681B681846B7
:101C4000FEF733FFBB69022B05D0BB69032B05D11F
:101C50000C237B6105E008237B6102E004237B61A8
:101C600000BF00F0B5FAB8601BE000F0B1FA024620
:101C7000BB68D31A052B14D97B681B689A687B69EB
:101C80001340002B0DD07B68DB6D43F010027B68A6
:101C9000DA657B681B6E43F001027B681A660123DC
:101CA00007E07B681B689A687B691340002BDCD1D6
:101CB000002318462037BD4680BD00BFFFFF3FA36D
:101CC00080B584B000AF78600023BB607B681B6880
:101CD0001846FEF789FE0346002B76D17B681B6809
:101CE0009A683C4B1340002B0DD07B68DB6D43F0B2
:101CF00010027B68DA657B681B6E43F001027B682B
:101D00001A66012362E07B681B681846FEF744FEF2
:101D10007B681B68B3F1A04F04D07B681B682E4A18
:101D2000934201D12D4B00E02D4B1846FEF790FC5D
:101D3000034603F40003002B13D02A4B1B689B09B6
:101D4000294AA2FB03239B095A1C13465B00134438
:101D50009B00BB6002E0BB68013BBB60BB68002B23
:101D6000F9D100F035FAF86028E07B681B68184666
:101D7000FEF73AFE0346002B04D17B681B68184629
:101D8000FEF70AFE00F024FA0246FB68D31A022B83
:101D900014D97B681B681B6803F00103012B0DD06D
:101DA0007B68DB6D43F010027B68DA657B681B6E35
:101DB00043F001027B681A66012307E07B681B6819
:101DC0001B6803F00103012BCFD100231846103705
:101DD000BD4680BD3F000080000100500003005060
:101DE0000007005004000020632D3E0580B584B03C
:101DF00000AF78607B681B681846FEF708FEF86045
:101E00007B681B681846FEF7EFFD0346002B47D0A2
:101E1000FB68002B44D17B681B689B6803F00D03B3
:101E2000012B0CD17B681B681846FEF7C9FD7B6847
:101E30001B6803221A6000F0CBF9B86029E07B68C8
:101E4000DB6D43F010027B68DA657B681B6E43F044
:101E500001027B681A66012323E000F0B9F902460B
:101E6000BB68D31A022B14D97B681B689B6803F0EC
:101E70000103002B0DD07B68DB6D43F010027B6803
:101E8000DA657B681B6E43F001027B681A660123EA
:101E900007E07B681B689B6803F00103002BDCD123
:101EA000002318461037BD4680BD80B483B000AF14
:101EB00078607B689B6803F00103012B01D101234B
:101EC00000E0002318460C37BD465DF8047B7047E0
:101ED00080B483B000AF78607B689B6803F0040334
:101EE000042B01D1012300E0002318460C37BD4626
:101EF0005DF8047B7047000090B5A1B000AF78603A
:101F00003960002387F87F307B6893F85830012BC5
:101F100001D10223E7E07B68012283F858200023E7
:101F20007B660023BB667B681B68B3F1A04F02D1C0
:101F30006F4BBB6009E07B681B686E4A934202D11D
:101F40006D4BBB6001E00023BB60BB68002B0BD175
:101F50007B68DB6D43F020027B68DA657B680022DA
:101F600083F858200123BEE0BB681846FFF7B0FF96
:101F7000B8677B681B681846FFF7AAFF0346002B6B
:101F800040F0A080BB6F002B40F09C807B681B68FA
:101F9000B3F1A04F04D07B681B68554A934201D12E
:101FA000564B00E0564B7B673B681B68002B4BD0C1
:101FB0007B6F9B6823F460423B6859687B6893F8A9
:101FC00038305B030B431A437B6F9A607B681B6856
:101FD000B3F1A04F04D07B681B68454A93420FD1F0
:101FE0004FF0A040FFF761FF04464148FFF75DFF57
:101FF00003462343002B0CBF01230023DBB212E076
:102000003C48FFF752FF04463B48FFF74EFF0346AC
:102010001C433C48FFF749FF03462343002B0CBFFA
:1020200001230023DBB2002B56D07B6F9B6823F487
:10203000716323F00F033A6811683A6892680A43A3
:102040001A437B6F9A6047E07B6F9B6823F4604282
:102050007B6F9A607B681B68B3F1A04F04D07B68EC
:102060001B68234A93420FD14FF0A040FFF71DFF9A
:1020700004461F48FFF719FF03462343002B0CBFFC
:1020800001230023DBB212E01A48FFF70EFF0446DB
:102090001948FFF70AFF03461C431A48FFF705FFDC
:1020A00003462343002B0CBF01230023DBB2002B8C
:1020B00012D07B6F9B6823F4716323F00F037A6F58
:1020C000936009E07B68DB6D43F020027B68DA6592
:1020D000012387F87F3000E000BF7B68002283F88F
:1020E000582097F87F3018468437BD4690BD00BF12
:1020F0000001005000040050000500500003005093
:10210000000700500006005080B582B000AF0023E9
:10211000FB71032002F022F90F2000F00DF80346B6
:10212000002B02D00123FB7101E005F0F1FAFB79ED
:1021300018460837BD4680BD80B584B000AF7860D2
:102140000023FB73164B1B68002B22D0154B1A681B
:10215000134B1B684FF47A71B1FBF3F3B2FBF3F34B
:10216000184602F02EF90346002B0FD17B680F2B87
:1021700009D8002279684FF0FF3002F0FAF80A4AD5
:102180007B68136007E00123FB7304E00123FB730A
:1021900001E00123FB73FB7B18461037BD4680BD71
:1021A0000C000020040000200800002080B400AFD4
:1021B000054B1A68054B1B681344034A136000BFA4
:1021C000BD465DF8047B7047B40000200C00002081
:1021D00080B400AF034B1B681846BD465DF8047B16
:1021E000704700BFB400002080B588B000AF7860B1
:1021F0007B68002B01D10123FEE27B681B6803F0A2
:102200000103002B75D0974B9B6803F00C03BB6157
:10221000944BDB6803F003037B61BB690C2B02D199
:102220007B69032B02D0BB69082B0BD18D4B1B683C
:1022300003F40033002B5BD07B685B68002B57D125
:102240000123D9E27B685B68B3F5803F06D1854BFB
:102250001B68844A43F4803313601DE07B685B682D
:10226000B3F5A02F0CD17F4B1B687E4A43F480232B
:1022700013607C4B1B687B4A43F4803313600BE094
:10228000784B1B68774A23F480331360754B1B68C7
:10229000744A23F4802313607B685B68002B13D09F
:1022A000FFF796FF386108E0FFF792FF02463B69AF
:1022B000D31A642B01D903239EE26A4B1B6803F4F3
:1022C0000033002BF0D014E0FFF782FF386108E004
:1022D000FFF77EFF02463B69D31A642B01D9032323
:1022E0008AE2604B1B6803F40033002BF0D100E05E
:1022F00000BF7B681B6803F00203002B75D0594BAD
:102300009B6803F00C03BB61564BDB6803F00303CF
:102310007B61BB690C2B02D17B69022B02D0BB69AC
:10232000042B1FD14F4B1B6803F48063002B05D097
:102330007B68DB68002B01D101235DE2494B5B68C0
:1023400023F0FE427B681B691B06464913434B6022
:10235000454B1B681846FFF7EFFE0346002B43D0A2
:10236000012349E27B68DB68002B23D03D4B1B68CF
:102370003C4A43F480731360FFF72AFF386108E09A
:10238000FFF726FF02463B69D31A022B01D903232C
:1023900032E2344B1B6803F48063002BF0D0314BE6
:1023A0005B6823F0FE427B681B691B062D491343C3
:1023B0004B601AE02B4B1B682A4A23F4807313608E
:1023C000FFF706FF386108E0FFF702FF02463B69AE
:1023D000D31A022B01D903230EE2224B1B6803F40C
:1023E0008063002BF0D100E000BF7B681B6803F026
:1023F0000803002B41D07B685B69002B1CD0194B74
:10240000D3F89430174A43F00103C2F89430FFF731
:10241000DFFE386108E0FFF7DBFE02463B69D31AB6
:10242000022B01D90323E7E10E4BD3F8943003F0DC
:102430000203002BEFD020E00A4BD3F89430094A76
:1024400023F00103C2F89430FFF7C2FE38610DE0BB
:10245000FFF7BEFE02463B69D31A022B06D90323BF
:10246000CAE100BF00100240080000208C4BD3F8E6
:10247000943003F00203002BEAD17B681B6803F061
:102480000403002B00F0A6800023FB77844B9B6D98
:1024900003F08053002B01D1012300E00023002B27
:1024A0000DD07F4B9B6D7E4A43F0805393657C4BF0
:1024B0009B6D03F08053FB60FB680123FB77794B36
:1024C0001B6803F48073002B18D1764B1B68754A88
:1024D00043F480731360FFF77BFE386108E0FFF779
:1024E00077FE02463B69D31A022B01D9032383E10D
:1024F0006C4B1B6803F48073002BF0D07B689B68E7
:10250000012B08D1664BD3F89030654A43F00103A4
:10251000C2F8903024E07B689B68052B10D1604B9B
:10252000D3F890305E4A43F00403C2F890305C4B1D
:10253000D3F890305A4A43F00103C2F890300FE0CC
:10254000574BD3F89030564A23F00103C2F890302D
:10255000534BD3F89030524A23F00403C2F8903022
:102560007B689B68002B16D0FFF732FE38610AE0CB
:10257000FFF72EFE02463B69D31A41F2883293429E
:1025800001D9032338E1464BD3F8903003F002031E
:10259000002BEDD015E0FFF71BFE38610AE0FFF7D6
:1025A00017FE02463B69D31A41F28832934201D9A1
:1025B000032321E13A4BD3F8903003F00203002BC0
:1025C000EDD1FB7F012B05D1354B9B6D344A23F0B8
:1025D000805393657B681B6803F02003002B3CD07D
:1025E0007B689B69002B1CD02D4BD3F898302C4A6C
:1025F00043F00103C2F89830FFF7EAFD386108E0C4
:10260000FFF7E6FD02463B69D31A022B01D90323EB
:10261000F2E0234BD3F8983003F00203002BEFD005
:102620001BE01F4BD3F898301D4A23F00103C2F87A
:102630009830FFF7CDFD386108E0FFF7C9FD02468D
:102640003B69D31A022B01D90323D5E0144BD3F8ED
:10265000983003F00203002BEFD17B68DB69002B7D
:1026600000F0C9800E4B9B6803F00C030C2B00F0AC
:1026700083807B68DB69022B5ED1094B1B68084AAB
:1026800023F080731360FFF7A3FD38610CE0FFF7C0
:102690009FFD02463B69D31A022B05D90323ABE009
:1026A0000010024000700040554B1B6803F000739F
:1026B000002BECD1524BDA68524B13407A68116A06
:1026C0007A68526A013A120111437A68926A1202D8
:1026D00011437A68126B5208013A520511437A6825
:1026E000526B5208013A520611437A68D26AD206F6
:1026F0000A4343491343CB60414B1B68404A43F0B4
:10270000807313603E4BDB683D4A43F08073D360B7
:10271000FFF75EFD386108E0FFF75AFD02463B69AE
:10272000D31A022B01D9032366E0354B1B6803F053
:102730000073002BF0D05EE0314B1B68304A23F071
:1027400080731360FFF744FD386108E0FFF740FD38
:1027500002463B69D31A022B01D903234CE0284BD4
:102760001B6803F00073002BF0D1254BDA68244975
:10277000254B1340CB603EE07B68DB69012B01D128
:10278000012339E01E4BDB687B617B6903F00302A8
:102790007B681B6A9A422CD17B6903F0F0027B684C
:1027A0005B6A013B1B019A4223D17B6903F4FE4221
:1027B0007B689B6A1B029A421BD17B6903F07842BB
:1027C0007B68DB6ADB069A4213D17B6903F4C002A3
:1027D0007B681B6B5B08013B5B059A4209D17B69F7
:1027E00003F0C0627B685B6B5B08013B5B069A424F
:1027F00001D0012300E0002318462037BD4680BDEC
:10280000001002400C809F01FCFFEEFE80B586B0F8
:1028100000AF7860396000237B617B68002B01D1B9
:1028200001231EE1914B1B6803F00F033A689A42A3
:1028300010D98E4B1B6823F00F028C493B68134361
:102840000B608A4B1B6803F00F033A689A4201D071
:10285000012306E17B681B6803F00103002B73D0A2
:102860007B685B68032B29D1814B1B6803F00073E5
:10287000002B01D10123F4E000F09EF938613B699F
:102880007C4A93423FD97A4B9B6803F0F003002BBC
:1028900009D07B681B6803F00203002B33D07B68F0
:1028A0009B68002B2FD1724B9B6823F0F003704A7A
:1028B00043F08003936080237B6124E07B685B6846
:1028C000022B07D16A4B1B6803F40033002B09D19C
:1028D0000123C6E0664B1B6803F48063002B01D123
:1028E0000123BEE000F0CEF838613B69614A9342B3
:1028F00009D95F4B9B6823F0F0035D4A43F08003E6
:10290000936080237B615A4B9B6823F003027B68B2
:102910005B68574913438B60FFF75AFCF8600AE085
:10292000FFF756FC0246FB68D31A41F28832934205
:1029300001D9032395E04E4B9B6803F00C027B68A2
:102940005B689B009A42EBD17B681B6803F0020333
:10295000002B23D07B681B6803F00403002B05D0F9
:10296000434B9B68424A43F4E06393607B681B6877
:1029700003F00803002B07D03D4B9B6823F47C53E6
:102980003B4A43F4E0639360394B9B6823F0F002C9
:102990007B689B68364913438B6008E07B69802B1A
:1029A00005D1334B9B68324A23F0F00393602F4BE1
:1029B0001B6803F00F033A689A421DD22B4B1B6829
:1029C00023F00F0229493B6813430B60FFF700FC1B
:1029D000F8600AE0FFF7FCFB0246FB68D31A41F2FD
:1029E0008832934201D903233BE0204B1B6803F05C
:1029F0000F033A689A42EDD17B681B6803F0040329
:102A0000002B08D01A4B9B6823F4E0627B68DB68DC
:102A1000174913438B607B681B6803F00803002B86
:102A200009D0134B9B6823F460527B681B69DB0061
:102A30000F4913438B6000F025F802460C4B9B684E
:102A40001B0903F00F030C49CB5C03F01F0322FAB0
:102A500003F30A4A13600A4B1B681846FFF76CFB26
:102A6000034618461837BD4680BD00BF002002400F
:102A70000010024000B4C404B4CD000804000020DB
:102A80000800002080B487B000AF2C4B9B6803F097
:102A90000C03042B02D12A4B3B6147E0274B9B6878
:102AA00003F00C03082B02D1264B3B613EE0234B85
:102AB0009B6803F00C030C2B36D1204BDB6803F032
:102AC0000303FB601D4BDB681B0903F00F0301339D
:102AD000BB60FB68032B0CD11A4ABB68B2FBF3F353
:102AE000164AD268120A02F07F0202FB03F37B61EE
:102AF0000CE0134ABB68B2FBF3F3104AD268120A27
:102B000002F07F0202FB03F37B6100BF0B4BDB682B
:102B10005B0E03F0030301335B007B607A697B6823
:102B2000B2FBF3F33B6101E000233B613B691846D4
:102B30001C37BD465DF8047B704700BF00100240A3
:102B40000024F40000127A0080B400AF034B1B682D
:102B50001846BD465DF8047B704700BF04000020A6
:102B600080B500AFFFF7F0FF0246064B9B681B0ADB
:102B700003F007030449CB5C03F01F0322FA03F3BD
:102B8000184680BD00100240C4CD000880B500AFDB
:102B9000FFF7DAFF0246064B9B68DB0A03F00703E8
:102BA0000449CB5C03F01F0322FA03F3184680BDEF
:102BB00000100240C4CD000880B487B000AF1E4BA7
:102BC000DB6803F003033B611B4BDB681B0903F06D
:102BD0000F030133FB603B69032B0CD1174AFB68E1
:102BE000B2FBF3F3144AD268120A02F07F0202FB2E
:102BF00003F37B610CE0124AFB68B2FBF3F30E4A6D
:102C0000D268120A02F07F0202FB03F37B6100BF6D
:102C1000094BDB685B0E03F0030301335B00BB6011
:102C20007A69BB68B2FBF3F37B607B6818461C379C
:102C3000BD465DF8047B70470010024000127A0028
:102C40000024F40080B586B000AF78600023FB74E8
:102C50000023BB747B681B6803F40023002B00F087
:102C6000988000237B74434B9B6D03F08053002BB3
:102C70000DD1404B9B6D3F4A43F0805393653D4BD4
:102C80009B6D03F08053BB60BB6801237B743A4BA0
:102C90001B68394A43F480731360FFF799FAF860B0
:102CA00009E0FFF795FA0246FB68D31A022B02D916
:102CB0000323FB7405E0304B1B6803F48073002B87
:102CC000EFD0FB7C002B59D12A4BD3F8903003F482
:102CD00040737B617B69002B1ED07B681B6D7A691A
:102CE0009A4219D0234BD3F8903023F440737B6180
:102CF000204BD3F890301F4A43F48033C2F8903011
:102D00001C4BD3F890301B4A23F48033C2F8903028
:102D1000184A7B69C2F890307B6903F00103002BED
:102D200016D0FFF755FAF8600BE0FFF751FA0246AC
:102D3000FB68D31A41F28832934202D90323FB7411
:102D400006E00C4BD3F8903003F00203002BECD0DC
:102D5000FB7C002B0BD1074BD3F8903023F440724F
:102D60007B681B6D03491343C1F8903008E0FB7C7E
:102D7000BB7405E00010024000700040FB7CBB7497
:102D80007B7C012B05D1A74B9B6DA64A23F080537A
:102D900093657B681B6803F00103002B0AD0A14BED
:102DA000D3F8883023F003027B685B689D491343A6
:102DB000C1F888307B681B6803F00203002B0AD03F
:102DC000984BD3F8883023F00C027B689B689549B8
:102DD0001343C1F888307B681B6803F00403002BA1
:102DE0000AD0904BD3F8883023F030027B68DB6840
:102DF0008C491343C1F888307B681B6803F00803D3
:102E0000002B0AD0874BD3F8883023F0C0027B68B0
:102E10001B6984491343C1F888307B681B6803F041
:102E20001003002B0AD07F4BD3F8883023F4407274
:102E30007B685B697B491343C1F888307B681B68FA
:102E400003F02003002B0AD0764BD3F8883023F40C
:102E500040627B689B6973491343C1F888307B6883
:102E60001B6803F04003002B0AD06E4BD3F8883068
:102E700023F440527B68DB696A491343C1F8883008
:102E80007B681B6803F08003002B0AD0654BD3F8E6
:102E9000883023F440427B681B6A62491343C1F8BF
:102EA00088307B681B6803F48073002B0AD05D4B6D
:102EB000D3F8883023F440327B685B6A5949134366
:102EC000C1F888307B681B6803F40033002B0AD0FC
:102ED000544BD3F89C3023F003027B689B6A514922
:102EE0001343C1F89C307B681B6803F40073002B0C
:102EF0000AD04C4BD3F8883023F440227B68DB6A3D
:102F000048491343C1F888307B681B6803F4806329
:102F1000002B15D0434BD3F8883023F440127B6844
:102F20001B6B40491343C1F888307B681B6BB3F5BA
:102F3000801F05D13B4BDB683A4A43F48013D360D2
:102F40007B681B6803F40063002B15D0354BD3F866
:102F5000883023F440027B685B6B32491343C1F82D
:102F600088307B685B6BB3F5800F05D12D4BDB6838
:102F70002C4A43F48013D3607B681B6803F48053AE
:102F8000002B15D0274BD3F8883023F040727B6894
:102F90009B6B24491343C1F888307B689B6BB3F16A
:102FA000807F05D11F4BDB681E4A43F48013D3603A
:102FB0007B681B6803F40053002B15D0194BD3F822
:102FC000883023F040627B68DB6B16491343C1F8FD
:102FD00088307B68DB6BB3F1006F05D1114BDB6888
:102FE000104A43F48013D3607B681B6803F480436A
:102FF000002B19D00B4BD3F8883023F040627B684C
:103000001B6C08491343C1F888307B681B6CB3F113
:10301000006F09D1034BDB68024A43F48013D3608D
:1030200002E000BF001002407B681B6803F400430D
:10303000002B15D0294BD3F8883023F040527B6801
:103040005B6C26491343C1F888307B685B6CB3F135
:10305000805F05D1214BDB68204A43F48033D36085
:103060007B681B6803F48033002B15D01B4BD3F80F
:10307000883023F040427B689B6C18491343C1F8A9
:1030800088307B689B6CB3F1804F05D1134BDB68B4
:10309000124A43F48033D3607B681B6803F48023B7
:1030A000002B15D00D4BD3F89C3023F440127B68D5
:1030B000DB6C0A491343C1F89C307B68DB6CB3F5C9
:1030C000001F05D1054BDB68044A43F48013D3602D
:1030D000BB7C18461837BD4680BD00BF00100240BB
:1030E00080B586B000AFF860B960C7E9002300235F
:1030F0003B612F4B1B78012B01D1022353E02C4B5A
:1031000001221A704FF47A7000F092F80346FB75B2
:10311000FB7D002B43D1264B00225A60254B1B68B8
:1031200003F48063002B09D0224B1B68214A23F44F
:10313000806313601E4B02221A7702E01C4B0022B0
:103140001A77FB68002B07D1D7E90023B86800F095
:10315000C3F801233B6110E0FB68012B02D0FB6840
:10316000022B0AD13B681946B86800F0DBF8FB680F
:10317000022B02D14FF480233B614FF47A7000F0B0
:1031800057F80346FB753B69002B06D0094B5A697B
:103190003B69DB43074913404B6100F011FA044BD4
:1031A00000221A70FB7D18461837BD4680BD00BF4F
:1031B000100000200020024080B483B000AF002344
:1031C000FB710B4B5B69002B0BDA094B094A9A60C8
:1031D000074B094A9A60064B5B69002B01DA012311
:1031E000FB71FB7918460C37BD465DF8047B7047D0
:1031F0000020024023016745AB89EFCD80B483B046
:1032000000AF0123FB71094B5B69084A43F000439F
:103210005361064B5B69002B01DA0023FB71FB79DC
:1032200018460C37BD465DF8047B7047002002400D
:1032300080B584B000AF7860FEF7CAFFF86009E09F
:10324000FEF7C6FF0246FB68D31A7A689A4201D29B
:10325000032338E01E4B1B6903F48033B3F5803F32
:10326000EED01B4B1A694CF2FA331340BB60BB68BB
:10327000002B1ED0174B5A68BB681343154A536086
:10328000BB6803F07043002B07D0114B9A69BB68F1
:1032900003F070430E4913438B61BB6823F0704306
:1032A000002B04D00A4ABB6823F07043136101234A
:1032B00009E0074B1B6903F00103012B02D1044B0A
:1032C00001221A61002318461037BD4680BD00BF99
:1032D000002002401000002080B485B000AFF860EC
:1032E000C7E900230E4B5B690D4A43F001035361AC
:1032F000FB683A681A60BFF36F8F00BFD7E900011F
:103300004FF000024FF000030A000023F968043177
:1033100013460B6000BF1437BD465DF8047B704751
:103320000020024080B489B000AF7860396040234B
:10333000FB777B68BB613B687B61144B5B69134A1D
:1033400043F480235361EFF31083FB60FB683B6120
:1033500072B600BF7B691A68BB691A60BB69043327
:10336000BB617B6904337B61FB7F013BFB77FB7FA8
:10337000002BEFD13B69BB60BB6883F3108800BFB3
:1033800000BF2437BD465DF8047B70470020024033
:1033900080B584B000AF78603960494B1B78012B51
:1033A00001D1022387E0464B01221A704FF47A7054
:1033B000FFF73EFF0346FB73FB7B002B77D1404BAF
:1033C00000225A603F4B1B6803F40073002B13D09C
:1033D0003C4B1B6803F48063002B09D0394B1B68FE
:1033E000384A23F480631360354B03221A7716E0C2
:1033F000334B01221A7712E0324B1B6803F48063CF
:10340000002B09D02F4B1B682E4A23F480631360D6
:103410002B4B02221A7702E0294B00221A777B6895
:103420001B68012B13D17B685B68184600F04CF8D1
:103430004FF47A70FFF7FCFE0346FB73214B5B6988
:10344000204A23F4004323F0040353612DE03B683A
:103450004FF0FF321A607B689B68BB601DE07B68A1
:103460005B681946B86800F067F84FF47A70FFF7A8
:10347000DFFE0346FB73134B5B69124A23F47E7332
:1034800023F002035361FB7B002B03D03B68BA6837
:103490001A600AE0BB680133BB607B689A687B688E
:1034A000DB681344BA689A42D9D300F089F8044B18
:1034B00000221A70FB7B18461037BD4680BD00BF46
:1034C000100000200020024080B483B000AF78607C
:1034D000184B1B6A03F48003002B16D07B6803F0A3
:1034E0000103002B05D0134B5B69124A43F0040320
:1034F00053617B6803F00203002B0ED00D4B5B6918
:103500000C4A43F40043536107E00A4B5B69094AE4
:1035100043F4004343F004035361064B5B69054ADF
:1035200043F48033536100BF0C37BD465DF8047B24
:10353000704700BF0020024080B483B000AF7860C5
:1035400039601E4B1B6A03F48003002B06D11B4B12
:103550005B691A4A23F40063536111E03B6803F08E
:103560000103002B06D0154B5B69144A23F400635A
:10357000536105E0114B5B69104A43F400635361EA
:103580000E4B5B6923F47E727B68DB0003F4FF6300
:103590000A4913434B61094B5B69084A43F0020334
:1035A0005361064B5B69054A43F48033536100BFA6
:1035B0000C37BD465DF8047B704700BF0020024019
:1035C00080B483B000AF214B1B7FFB71FB79012BD3
:1035D00002D0FB79032B17D11D4B1B681C4A23F427
:1035E000007313601A4B1B68194A43F4006313609D
:1035F000174B1B68164A23F400631360144B1B68B7
:10360000134A43F400731360FB79022B02D0FB7959
:10361000032B11D10E4B1B680D4A43F480531360EA
:103620000B4B1B680A4A23F480531360084B1B683A
:10363000074A43F480631360044B00221A7700BFEB
:103640000C37BD465DF8047B704700BF10000020BA
:103650000020024080B487B000AF7860396000235A
:103660007B6164E13B681A6801217B6901FA03F31D
:103670001340FB60FB68002B00F056813B685B68E1
:1036800003F00303012B05D03B685B6803F00303E1
:10369000022B30D17B689B683B617B695B00032216
:1036A00002FA03F3DB433A6913403B613B68DA6893
:1036B0007B695B0002FA03F33A6913433B617B6861
:1036C0003A699A607B685B683B6101227B6902FA18
:1036D00003F3DB433A6913403B613B685B681B09BA
:1036E00003F001027B6902FA03F33A6913433B6179
:1036F0007B683A695A603B685B6803F00303032BFD
:1037000009D13B685B6803F00303032B1BD13B68C3
:103710009B68012B17D07B68DB683B617B695B0092
:10372000032202FA03F3DB433A6913403B613B682F
:103730009A687B695B0002FA03F33A6913433B61C1
:103740007B683A69DA603B685B6803F00303022B2D
:1037500023D17B69DA087B68083253F822303B6159
:103760007B6903F007039B000F2202FA03F3DB439C
:103770003A6913403B613B681A697B6903F00703B0
:103780009B0002FA03F33A6913433B617B69DA0851
:103790007B680832396943F822107B681B683B61FB
:1037A0007B695B00032202FA03F3DB433A691340AF
:1037B0003B613B685B6803F003027B695B0002FAD4
:1037C00003F33A6913433B617B683A691A603B68CB
:1037D0005B6803F44033002B00F0A6805B4B1B6E4C
:1037E0005A4A43F001031366584B1B6E03F0010362
:1037F000BB60BB68564A7B699B08023352F8233092
:103800003B617B6903F003039B000F2202FA03F381
:10381000DB433A6913403B617B68B3F1904F1FD0A3
:103820007B684C4A934219D07B684B4A934213D031
:103830007B684A4A93420DD07B68494A934207D03D
:103840007B68484A934201D105230AE0062308E039
:10385000042306E0032304E0022302E0012300E046
:1038600000237A6902F00302920093403A691343FD
:103870003B6137497B699B0802333A6941F8232051
:10388000394B9B683B61FB68DB433A6913403B6102
:103890003B685B6803F48013002B03D03A69FB6834
:1038A00013433B61304A3B6993602F4BDB683B61BC
:1038B000FB68DB433A6913403B613B685B6803F498
:1038C0000013002B03D03A69FB6813433B61264A7F
:1038D0003B69D360244B5B683B61FB68DB433A691F
:1038E00013403B613B685B6803F40033002B03D05B
:1038F0003A69FB6813433B611B4A3B6953601A4BAF
:103900001B683B61FB68DB433A6913403B613B68E2
:103910005B6803F48033002B03D03A69FB681343E0
:103920003B61114A3B6913607B6901337B613B68F2
:103930001A687B6922FA03F3002B7FF493AE00BF71
:1039400000BF1C37BD465DF8047B70470010024085
:10395000000001400004004800080048000C004836
:1039600000100048001400480004014080B485B0F5
:1039700000AF78600B467B807B681A697B881340B8
:10398000002B02D00123FB7301E00023FB73FB7BC0
:1039900018461437BD465DF8047B704780B483B089
:1039A00000AF78600B467B8013467B707B78002BE2
:1039B00003D07A887B689A6102E07A887B689A6291
:1039C00000BF0C37BD465DF8047B704780B584B0FE
:1039D00000AF78607B68002B01D101238EE07B680B
:1039E0001B681A46474B9A420FD87B681B681A46D9
:1039F000454B1344454AA2FB03231B099A007B68ED
:103A00005A647B68424A1A640EE07B681B681A4657
:103A1000404B13443D4AA2FB03231B099A007B68D9
:103A20005A647B683C4A1A647B68022283F825202A
:103A30007B681B681B68FB60FB6823F4FF4323F073
:103A40007003FB607B689A687B68DB681A437B685D
:103A50001B691A437B685B691A437B689B691A433D
:103A60007B68DB691A437B681B6A1343FA6813435C
:103A7000FB607B681B68FA681A60786800F07CFA63
:103A80007B689B68B3F5804F02D17B6800225A6047
:103A90007B685A687B689B6C02F07F021A607B68C7
:103AA000DB6C7A68126D5A607B685B68002B10D003
:103AB0007B685B68042B0CD8786800F0A5FA7B68FB
:103AC0005B6D00221A607B689B6D7A68D26D5A60CC
:103AD00008E07B6800225A657B6800229A657B6853
:103AE0000022DA657B680022DA637B68012283F8B2
:103AF00025207B68002283F82420002318461037F5
:103B0000BD4680BD07040240F8FFFDBFCDCCCCCC44
:103B100000000240F8FBFDBF0004024080B586B003
:103B200000AFF860B9607A603B600023FB75FB680A
:103B300093F82430012B01D1022366E0FB680122B7
:103B400083F82420FB6893F82530DBB2012B55D194
:103B5000FB68022283F82520FB680022DA63FB68F9
:103B60001B681A68FB681B6822F001021A603B6838
:103B70007A68B968F86800F0C0F9FB681B6B002B25
:103B800008D0FB681B681A68FB681B6842F00E02CD
:103B90001A600FE0FB681B681A68FB681B6822F05C
:103BA00004021A60FB681B681A68FB681B6842F015
:103BB0000A021A60FB689B6C1B6803F48033002BBD
:103BC00007D0FB689B6C1A68FB689B6C42F48072A0
:103BD0001A60FB685B6D002B07D0FB685B6D1A6891
:103BE000FB685B6D42F480721A60FB681B681A68A0
:103BF000FB681B6842F001021A6005E0FB680022C6
:103C000083F824200223FB75FB7D18461837BD4638
:103C100080BD80B485B000AF78600023FB737B6803
:103C2000002B01D101234CE07B6893F82530DBB2F7
:103C3000022B05D07B680422DA630123FB7337E093
:103C40007B681B681A687B681B6822F001021A6097
:103C50007B681B681A687B681B6822F00E021A607A
:103C60007B689B6C1A687B689B6C22F480721A607C
:103C70007B685B6C03F01F027B681B6C012101FAFF
:103C800002F25A607B68DB6C7A68126D5A607B685E
:103C90005B6D002B0CD07B685B6D1A687B685B6D7D
:103CA00022F480721A607B689B6D7A68D26D5A60CC
:103CB0007B68012283F825207B68002283F824207A
:103CC000FB7B18461437BD465DF8047B704780B512
:103CD00084B000AF78600023FB737B6893F82530D5
:103CE000DBB2022B0DD07B680422DA637B680122F1
:103CF00083F825207B68002283F824200123FB73AE
:103D000047E07B681B681A687B681B6822F0010229
:103D10001A607B681B681A687B681B6822F00E02B9
:103D20001A607B689B6C1A687B689B6C22F48072BB
:103D30001A607B685B6C03F01F027B681B6C0121BF
:103D400001FA02F25A607B68DB6C7A68126D5A6085
:103D50007B685B6D002B0CD07B685B6D1A687B68A1
:103D60005B6D22F480721A607B689B6D7A68D26DFD
:103D70005A607B68012283F825207B68002283F843
:103D800024207B689B6B002B03D07B689B6B78683F
:103D90009847FB7B18461037BD4680BD80B584B080
:103DA00000AF78607B681B6C1B68FB607B681B68DE
:103DB0001B68BB607B685B6C03F01F0304229A40A6
:103DC000FB681340002B26D0BB6803F00403002BD4
:103DD00021D07B681B681B6803F02003002B07D1F0
:103DE0007B681B681A687B681B6822F004021A60F3
:103DF0007B685B6C03F01F027B681B6C042101FA7B
:103E000002F25A607B681B6B002B71D07B681B6BC6
:103E1000786898476CE07B685B6C03F01F030222B4
:103E20009A40FB681340002B2ED0BB6803F00203BE
:103E3000002B29D07B681B681B6803F02003002B34
:103E40000BD17B681B681A687B681B6822F00A022A
:103E50001A607B68012283F825207B685B6C03F085
:103E60001F027B681B6C022101FA02F25A607B6818
:103E7000002283F824207B68DB6A002B38D07B6823
:103E8000DB6A7868984733E07B685B6C03F01F035C
:103E900008229A40FB681340002B2AD0BB6803F02D
:103EA0000803002B25D07B681B681A687B681B6899
:103EB00022F00E021A607B685B6C03F01F027B68C5
:103EC0001B6C012101FA02F25A607B680122DA635D
:103ED0007B68012283F825207B68002283F8242058
:103EE0007B685B6B002B04D07B685B6B78689847C2
:103EF00000BF00BF1037BD4680BD80B485B000AFA5
:103F0000F860B9607A603B60FB68DB6CFA68126D40
:103F10005A60FB685B6D002B04D0FB689B6DFA68F0
:103F2000D26D5A60FB685B6C03F01F02FB681B6C70
:103F3000012101FA02F25A60FB681B683A685A6074
:103F4000FB689B68102B08D1FB681B687A689A6035
:103F5000FB681B68BA68DA6007E0FB681B68BA6830
:103F60009A60FB681B687A68DA6000BF1437BD4648
:103F70005DF8047B7047000080B487B000AF7860C4
:103F80007B681B681A461B4B9A420BD81A4B3B6145
:103F90007B681B68DBB2083B184AA2FB03231B09A2
:103FA0007B610BE0164B3B617B681B68DBB2083B17
:103FB000124AA2FB03231B0908337B613B69FB60A8
:103FC0007B685B6C9B089A00FB6813441A467B680D
:103FD0009A647B680B4ADA647B6903F01F03012251
:103FE0009A407B681A6500BF1C37BD465DF8047BAC
:103FF000704700BF0704024000080240CDCCCCCC83
:10400000200802408008024080B485B000AF78608C
:104010007B685B6803F07F03FB60FA680B4B13441B
:104020009B001A467B685A657B68094A9A65FB685B
:10403000013B03F01F0301229A407B68DA6500BF51
:104040001437BD465DF8047B704700BF3F82001007
:104050004009024080B485B000AF78607B68002BD7
:1040600041D14B4B1B6803F4C063B3F5806F31D172
:10407000474BD3F88030464A23F48073C2F880302F
:10408000434B1B6823F4C063414A43F4007313603D
:10409000404B1B68322202FB03F33F4AA2FB03237F
:1040A0009B0C0133FB6002E0FB68013BFB60384B7B
:1040B0005B6903F48063B3F5806F02D1FB68002B6A
:1040C000F2D1334B5B6903F48063B3F5806F58D151
:1040D000032357E02E4BD3F880302D4A23F480730E
:1040E000C2F880304DE07B68B3F5007F41D1284BAA
:1040F0001B6803F4C063B3F5806F31D1244BD3F850
:104100008030234A43F48073C2F88030204B1B6810
:1041100023F4C0631E4A43F4007313601D4B1B68F5
:10412000322202FB03F31C4AA2FB03239B0C013344
:10413000FB6002E0FB68013BFB60154B5B6903F42D
:104140008063B3F5806F02D1FB68002BF2D1104B76
:104150005B6903F48063B3F5806F12D1032311E030
:104160000B4BD3F880300A4A43F48073C2F8803096
:1041700007E0074B1B6823F4C063054A43F48063E0
:104180001360002318461437BD465DF8047B704762
:10419000007000400400002083DE1B4380B400AFA9
:1041A000054B9B68044A43F48043936000BFBD46BF
:1041B0005DF8047B704700BF0070004080B485B09C
:1041C00000AF78607B6803F00703FB600C4BDB6893
:1041D000BB60BA684FF6FF031340BB60FB681A026E
:1041E000BB68134343F0BF6343F40033BB60044A2E
:1041F000BB68D36000BF1437BD465DF8047B7047D1
:1042000000ED00E080B400AF044BDB681B0A03F054
:1042100007031846BD465DF8047B704700ED00E0DB
:1042200080B483B000AF0346FB7197F90730002BD1
:104230000BDBFB7903F01F02074997F907305B0995
:10424000012000FA02F241F8232000BF0C37BD46DE
:104250005DF8047B704700BF00E100E080B483B0EC
:1042600000AF03463960FB7197F90730002B0ADB7A
:104270003B68DAB20C4997F907301201D2B20B440D
:1042800083F800230AE03B68DAB20849FB7903F0BF
:104290000F03043B1201D2B20B441A7600BF0C3755
:1042A000BD465DF8047B704700E100E000ED00E0F2
:1042B00080B489B000AFF860B9607A60FB6803F041
:1042C0000703FB61FB69C3F10703042B28BF042329
:1042D000BB61FB690433062B02D9FB69033B00E099
:1042E00000237B614FF0FF32BB6902FA03F3DA432C
:1042F000BB681A407B699A404FF0FF317B6901FA35
:1043000003F3D9437B680B40134318462437BD465B
:104310005DF8047B7047000080B582B000AF786024
:104320007B68013BB3F1807F01D301230FE00A4A90
:104330007B68013B53600F214FF0FF30FFF78EFF8A
:10434000054B00229A60044B07221A60002318468E
:104350000837BD4680BD00BF10E000E080B582B0E8
:1043600000AF78607868FFF729FF00BF0837BD46C7
:1043700080BD80B586B000AF0346B9607A60FB733C
:10438000FFF740FF78617A68B9687869FFF790FFB6
:10439000024697F90F3011461846FFF75FFF00BF3E
:1043A0001837BD4680BD80B582B000AF0346FB71B3
:1043B00097F907301846FFF733FF00BF0837BD46AF
:1043C00080BD80B582B000AF78607868FFF7A4FF49
:1043D000034618460837BD4680BD000080B582B050
:1043E00000AF78607B68002B01D1012354E07B682B
:1043F0005B7FDBB2002B05D17B6800221A777868DF
:1044000002F040FF7B6802225A777B681B79002B01
:104410000CD17B681B68224A5A617B681B689A68CA
:104420007B681B6822F018029A600CE07B68996830
:104430007B68DB681A46786800F04AF90346002B6F
:1044400001D0012328E07B685B79002B05D17B68D4
:104450001B684FF0FF321A6104E07B681B687A68C2
:1044600012691A617B681B689B6823F060017B6896
:104470005A697B681B680A439A607B681B689B6863
:1044800023F080017B689A697B681B680A439A6005
:104490007B6801225A77002318460837BD4680BD45
:1044A000B71DC10480B586B000AFF860B9607A600E
:1044B00000233B61FB6802225A77FB681B689A68FD
:1044C000FB681B6842F001029A60FB681B6A032BC1
:1044D00006D0032B29D8012B19D0022B1ED024E0A3
:1044E00000237B610AE07B699B00BA681A44FB6881
:1044F0001B6812681A607B6901337B617A697B688B
:104500009A42F0D3FB681B681B683B610EE07A6837
:10451000B968F86800F012F8386107E07A68B9689D
:10452000F86800F09BF8386100E000BFFB680122EA
:104530005A773B6918461837BD4680BD80B489B0AC
:1045400000AFF860B9607A600023FB6123E0FB698B
:104550009B00BA6813441B781A06FB699B00013361
:10456000B9680B441B781B041A43FB699B00023398
:10457000B9680B441B781B021A43FB699B00033389
:10458000B9680B441B781946FB681B680A431A601C
:10459000FB690133FB617B689B08FA699A42D6D3B9
:1045A0007B6803F00303002B4FD07B6803F0030309
:1045B000012B08D1FB699B00BA681344FA681268A2
:1045C0001B78137041E07B6803F00303022B17D1C3
:1045D000FB699B00BA6813441B781B021AB2FB6983
:1045E0009B000133B9680B441B781BB213431BB209
:1045F0007B83FB681B687B617B697A8B1A8024E074
:104600007B6803F00303032B1FD1FB699B00BA688F
:1046100013441B781B021AB2FB699B000133B96873
:104620000B441B781BB213431BB27B83FB681B68D4
:104630007B617B697A8B1A80FB699B000233BA68C5
:104640001344FA6812681B781370FB681B681B68B8
:1046500018462437BD465DF8047B704780B487B0A8
:1046600000AFF860B9607A6000237B6113E07B697A
:104670009B00BA6813441B881A047B699B000233B1
:10468000B9680B441B881946FB681B680A431A600B
:104690007B6901337B617B685B087A699A42E6D368
:1046A0007B6803F00103002B09D0FB681B683B61AA
:1046B0007B699B00BA6813441A883B691A80FB68BF
:1046C0001B681B6818461C37BD465DF8047B7047A5
:1046D00080B487B000AFF860B9607A600023FB75E2
:1046E0001F233B61BB6803F00103002B02D10123B0
:1046F000FB7563E000BF3B695A1E3A61002B09D08D
:104700003B6903F01F03BA6822FA03F303F00103C5
:10471000002BF0D07B68182B46D801A252F823F06A
:10472000AF470008A9470008A9470008A9470008A3
:10473000A9470008A9470008A9470008A947000899
:104740009D470008A9470008A9470008A947000895
:10475000A9470008A9470008A9470008A947000879
:1047600091470008A9470008A9470008A947000881
:10477000A9470008A9470008A9470008A947000859
:10478000854700083B69062B13D90123FB7510E010
:104790003B69072B0FD90123FB750CE03B690F2BFD
:1047A0000BD90123FB7508E00123FB7506E000BF70
:1047B00004E000BF02E000BF00E000BFFB7D002B73
:1047C0000DD1FB681B68BA685A61FB681B689B685F
:1047D00023F01801FB681B687A680A439A60FB7D26
:1047E00018461C37BD465DF8047B704780B584B021
:1047F00000AF78600023FB737B68002B01D101239D
:10480000BBE07B6893F83A30DBB2052B01D1012382
:10481000B3E07B6893F83A30DBB2022B01D101237D
:10482000ABE0584B1B6E574A43F001031366554BE0
:104830001B6E03F00103BB60BB687B6893F83A30E2
:10484000DBB2002B03D17B68002283F83920786823
:1048500002F0BAFD7B689B68402B03D07B689B68A5
:10486000602B33D17B681B681B6823F010017B68C9
:10487000DA6A7B681B680A431A607B681B681A68DF
:10488000414B13407A6851687A68926811437A689C
:1048900012690A437968097D012902D14FF48071B8
:1048A00000E0002111437A68526A11437A68926AE3
:1048B00011437A68126BD20411437A68526B120664
:1048C00011437A6812680B43136035E07B681B68FC
:1048D0001B6823F010017B68DA6A7B681B680A4357
:1048E0001A607B681B681A68274B13407A68516806
:1048F0007A68926811437A68D26811437A681269BB
:104900000A437968097D012902D14FF4807100E0E2
:10491000002111437A68526A11437A68926A1143FE
:104920007A68126BD20411437A68526B12061143F3
:104930007A6812680B4313607B681B689B69002BC5
:1049400010DB7B681B689B6923F03F017B689A69D9
:104950007B68DB691A437B681B6A1A437B681B68A8
:104960000A439A617B6893F83A30DBB2002B03D19B
:104970007B68012283F83A20FB7B18461037BD463E
:1049800080BD00BF00100240113E00E080B582B043
:1049900000AF78607B68002B01D1012342E07B6887
:1049A000D3F88830002B06D17B68002283F884205E
:1049B000786802F0A9FD7B682422C3F888207B6810
:1049C0001B681A687B681B6822F001021A607B680A
:1049D0009B6A002B02D0786800F00EFF786800F028
:1049E0000FFC0346012B01D101231BE07B681B68F0
:1049F0005A687B681B6822F490425A607B681B6887
:104A00009A687B681B6822F02A029A607B681B68A0
:104A10001A687B681B6842F001021A60786800F02F
:104A20008DFF034618460837BD4680BD80B58AB065
:104A300000AFF860B9601346FB80FB68D3F888309C
:104A4000202B67D1BB68002B02D0FB88002B01D143
:104A5000012360E0FB68BA681A65FB68FA88A3F86E
:104A60005420FB68FA88A3F85620FB680022C3F89C
:104A70009020FB682122C3F88820FB68DB6F002BA5
:104A800028D0FB68DB6F264ADA62FB68DB6F254AB9
:104A90001A63FB68DB6F244A5A63FB68DB6F0022F2
:104AA0009A63FB68D86FFB681B6D1946FB681B682F
:104AB00028331A46FB88FFF731F80346002B09D04C
:104AC000FB681022C3F89020FB682022C3F88820DE
:104AD000012320E0FB681B6840221A62FB681B6808
:104AE00008337B617B6953E8003F3B613B6943F0DE
:104AF00080037B62FB681B6808337A6A3A62FB6159
:104B0000F9693A6A41E80023BB61BB69002BE5D132
:104B1000002300E0022318462837BD4680BD00BFB1
:104B2000075E0008A15E00089160000880B5BAB079
:104B300000AF78607B681B68DB69C7F8E4307B688E
:104B40001B681B68C7F8E0307B681B689B68C7F868
:104B5000DC30D7F8E42040F60F031340C7F8D83014
:104B6000D7F8D830002B1BD1D7F8E43003F020035E
:104B7000002B15D0D7F8E03003F02003002B05D12F
:104B8000D7F8DC3003F08053002B09D07B685B6FD3
:104B9000002B00F000837B685B6F78689847FAE22F
:104BA000D7F8D830002B00F02381D7F8DC208D4BCC
:104BB0001340002B06D1D7F8E0208B4B1340002B7D
:104BC00000F01681D7F8E43003F00103002B11D078
:104BD000D7F8E03003F48073002B0BD07B681B68A0
:104BE00001221A627B68D3F8903043F001027B689F
:104BF000C3F89020D7F8E43003F00203002B11D063
:104C0000D7F8DC3003F00103002B0BD07B681B6866
:104C100002221A627B68D3F8903043F004027B686A
:104C2000C3F89020D7F8E43003F00403002B11D030
:104C3000D7F8DC3003F00103002B0BD07B681B6836
:104C400004221A627B68D3F8903043F002027B683A
:104C5000C3F89020D7F8E43003F00803002B17D0F6
:104C6000D7F8E03003F02003002B05D1D7F8DC2083
:104C70005C4B1340002B0BD07B681B6808221A6228
:104C80007B68D3F8903043F008027B68C3F890202B
:104C9000D7F8E43003F40063002B12D0D7F8E030EB
:104CA00003F08063002B0CD07B681B684FF400621C
:104CB0001A627B68D3F8903043F020027B68C3F817
:104CC00090207B68D3F89030002B00F06682D7F8F4
:104CD000E43003F02003002B13D0D7F8E03003F0CA
:104CE0002003002B05D1D7F8DC3003F08053002BD4
:104CF00007D07B685B6F002B03D07B685B6F7868A5
:104D000098477B68D3F89030C7F8D4307B681B682D
:104D10009B6803F04003402B05D0D7F8D43003F054
:104D20002803002B54D0786801F007F87B681B68D3
:104D30009B6803F04003402B46D17B681B68083317
:104D4000C7F89C30D7F89C3053E8003FC7F898303C
:104D5000D7F8983023F04003C7F8D0307B681B6841
:104D60000833D7F8D020C7F8A820C7F8A430D7F860
:104D7000A410D7F8A82041E80023C7F8A030D7F83E
:104D8000A030002BD9D17B68D3F88030002B17D00E
:104D90007B68D3F88030154A9A637B68D3F88030FB
:104DA0001846FEF794FF0346002B19D07B68D3F812
:104DB00080309B6B7A68D2F88020104698470FE0CD
:104DC000786800F013FA0BE0786800F00FFA07E05B
:104DD000786800F00BFA7B680022C3F89020DCE1D1
:104DE00000BFDAE1010000102001000401610008A9
:104DF0007B68DB6E012B40F07081D7F8E43003F064
:104E00001003002B00F06981D7F8E03003F01003A5
:104E1000002B00F062817B681B6810221A627B689D
:104E20001B689B6803F04003402B40F0D8807B68F0
:104E3000D3F880301B685B68A7F8BE30B7F8BE3087
:104E4000002B00F0AF807B68B3F85C30B7F8BE2071
:104E50009A4280F0A7807B68B7F8BE20A3F85E2056
:104E60007B68D3F880301B681B6803F02003002B9D
:104E700040F087807B681B68C7F88830D7F8883097
:104E800053E8003FC7F88430D7F8843023F48073A8
:104E9000C7F8B8307B681B681A46D7F8B830C7F82F
:104EA0009430C7F89020D7F89010D7F8942041E8B4
:104EB0000023C7F88C30D7F88C30002BDAD17B6810
:104EC0001B6808337B677B6F53E8003F3B673B6F92
:104ED00023F00103C7F8B4307B681B680833D7F8A8
:104EE000B420C7F88020FB67F96FD7F8802041E82D
:104EF0000023BB67BB6F002BE1D17B681B680833C5
:104F00003B663B6E53E8003FFB65FB6D23F04003BF
:104F1000C7F8B0307B681B680833D7F8B020FA6652
:104F2000BB66B96EFA6E41E800237B667B6E002B90
:104F3000E3D17B682022C3F88C207B680022DA66EC
:104F40007B681B68FB64FB6C53E8003FBB64BB6C75
:104F500023F01003C7F8AC307B681B681A46D7F8FB
:104F6000AC30BB657A65796DBA6D41E800233B656D
:104F70003B6D002BE4D17B68D3F880301846FEF7F8
:104F800048FE7B6802221A677B68B3F85C207B6866
:104F9000B3F85E309BB2D31A9BB21946786801F021
:104FA000B3FDFCE07B68B3F85C30B7F8BE209A42F2
:104FB00040F0F5807B68D3F880301B681B6803F0F5
:104FC0002003202B40F0EB807B6802221A677B686D
:104FD000B3F85C301946786801F096FDDFE07B6835
:104FE000B3F85C207B68B3F85E309BB2D31AA7F8A5
:104FF000CE307B68B3F85E309BB2002B00F0D180DE
:10500000B7F8CE30002B00F0CC807B681B68BB6308
:10501000BB6B53E8003F7B637B6B23F49073C7F853
:10502000C8307B681B681A46D7F8C8307B643A647E
:10503000396C7A6C41E80023FB63FB6B002BE4D1F5
:105040007B681B6808337B627B6A53E8003F3B62E6
:105050003B6A23F0805323F00103C7F8C4307B6818
:105060001B680833D7F8C4203A63FB62F96A3A6BCD
:1050700041E80023BB62BB6A002BE1D17B682022A0
:10508000C3F88C207B680022DA667B6800225A67AE
:105090007B681B683B613B6953E8003FFB60FB6832
:1050A00023F01003C7F8C0307B681B681A46D7F896
:1050B000C030FB61BA61B969FA6941E800237B61DC
:1050C0007B69002BE4D17B6802221A67B7F8CE30E7
:1050D0001946786801F018FD63E0D7F8E43003F46E
:1050E0008013002B0ED0D7F8DC3003F48003002BA4
:1050F00008D07B681B684FF480121A62786801F050
:1051000038F851E0D7F8E43003F08003002B14D0D6
:10511000D7F8E03003F08003002B05D1D7F8DC305E
:1051200003F40003002B08D07B689B6F002B3AD060
:105130007B689B6F7868984735E0D7F8E43003F0D8
:105140004003002B09D0D7F8E03003F04003002BD8
:1051500003D0786800F0E2FF26E0D7F8E43003F4EB
:105160000003002B09D0D7F8E03003F08043002B78
:1051700003D0786801F011F816E0D7F8E43003F0B6
:105180008073002B10D0D7F8E030002B0CDA786851
:1051900000F0F9FF08E000BF06E000BF04E000BF38
:1051A00002E000BF00E000BFE837BD4680BD00BFA1
:1051B00080B483B000AF786000BF0C37BD465DF8A7
:1051C000047B704780B483B000AF786000BF0C37B9
:1051D000BD465DF8047B704780B483B000AF786053
:1051E00000BF0C37BD465DF8047B704780B483B0C8
:1051F00000AF786000BF0C37BD465DF8047B704798
:105200002DE9B04F8CB000AF7861002387F82A30C9
:105210007B699A687B691B691A437B695B691A43DE
:105220007B69DB691343FB627B691B681A68AA4BC5
:1052300013407A691268F96A0B4313607B691B6833
:105240005B6823F440517B69DA687B691B680A4319
:105250005A607B699B69FB627B691B689F4A93422A
:1052600004D07B691B6AFA6A1343FB627B691B6883
:105270009B6823F06E4323F430637A691268F96AFD
:105280000B4393607B691B68DB6A23F00F017B692A
:105290005A6A7B691B680A43DA627B691B68904A19
:1052A000934225D18F4BD3F8883003F00303032BAF
:1052B0001AD801A252F823F0C9520008D9520008A6
:1052C000D1520008E1520008012387F82B3016E183
:1052D000022387F82B3012E1042387F82B300EE1EC
:1052E000082387F82B300AE1102387F82B3006E1DA
:1052F0007B691B687C4A934238D17A4BD3F888305B
:1053000003F00C030C2B2DD801A252F823F000BFA0
:1053100045530008655300086553000865530008AD
:10532000555300086553000865530008655300088D
:105330004D53000865530008655300086553000885
:105340005D530008002387F82B30D8E0022387F84C
:105350002B30D4E0042387F82B30D0E0082387F8E3
:105360002B30CCE0102387F82B30C8E07B691B681A
:105370005E4A934225D15B4BD3F8883003F030036B
:10538000302B16D0302B18D8202B0AD0202B14D835
:10539000002B02D0102B08D00FE0002387F82B3011
:1053A000ADE0022387F82B30A9E0042387F82B30E7
:1053B000A5E0082387F82B30A1E0102387F82B30D5
:1053C0009DE07B691B684A4A934225D1454BD3F83F
:1053D000883003F0C003C02B16D0C02B18D8802B08
:1053E0000AD0802B14D8002B02D0402B08D00FE01D
:1053F000002387F82B3082E0022387F82B307EE0F1
:10540000042387F82B307AE0082387F82B3076E0E6
:10541000102387F82B3072E07B691B68354A934272
:105420002AD1304BD3F8883003F44073B3F5407F72
:105430001AD0B3F5407F1BD8B3F5007F0CD0B3F57D
:10544000007F15D8002B03D0B3F5807F08D00FE084
:10545000002387F82B3052E0022387F82B304EE0F0
:10546000042387F82B304AE0082387F82B3046E0E6
:10547000102387F82B3042E07B691B68174A934260
:105480003AD1184BD3F8883003F44063B3F5406F3A
:105490001AD0B3F5406F1BD8B3F5006F0CD0B3F53D
:1054A000006F15D8002B03D0B3F5806F08D00FE044
:1054B000002387F82B3022E0022387F82B301EE0F0
:1054C000042387F82B301AE0082387F82B3016E0E6
:1054D000102387F82B3012E0F369FFCF00800040E3
:1054E00000380140001002400044004000480040E5
:1054F000004C004000500040102387F82B307B699F
:105500001B68AE4A934240F0978097F82B30082BE7
:1055100023D801A252F823F03D5500085B5500083E
:10552000455500085B5500084B5500085B550008C1
:105530005B5500085B55000853550008FDF710FB4C
:10554000786210E09E4B7B620DE0FDF79BFA78627B
:1055500009E04FF400437B6205E000237B620123F6
:1055600087F82A3000BF7B6A002B00F030817B690E
:105570005B6A944A32F813301A467B6AB3FBF2F343
:10558000BB617B695A6813465B001344BA699A424F
:1055900005D37B695B681B03BA699A4203D901236F
:1055A00087F82A3013E17B6A0022BB60FA607B69CE
:1055B0005B6A844A32F813309BB200223B607A6007
:1055C000D7E90023D7E90201FAF72AFE02460B4683
:1055D000104619464FF000024FF000030B0243EA59
:1055E0001063020279694968490800200C460546A3
:1055F00012EB040843EB05097B695B6800229A46BD
:10560000934652465B4640464946FAF709FE024633
:105610000B4613463B623B6AB3F5407F08D33B6AB7
:10562000B3F5801F04D27B691B683A6ADA60CEE06A
:10563000012387F82A30CAE07B69DB69B3F5004FA4
:1056400066D197F82B30082B27D801A252F823F007
:10565000755600087D560008855600089B560008C0
:105660008B5600089B5600089B5600089B56000866
:1056700093560008FDF774FA786214E0FDF786FA95
:10568000786210E04E4B7B620DE0FDF7FBF978622B
:1056900009E04FF400437B6205E000237B620123B5
:1056A00087F82A3000BF7B6A002B00F090807B696E
:1056B0005B6A444A32F813301A467B6AB3FBF2F352
:1056C0005A007B695B685B081A447B695B68B2FBC4
:1056D000F3F33B623B6A0F2B16D93B6AB3F5803F6D
:1056E00012D23B6A9BB223F00F03FB833B6A5B0839
:1056F0009BB203F007039AB2FB8B1343FB837B69D6
:105700001B68FA8BDA6062E0012387F82A305EE0DA
:1057100097F82B30082B28D801A252F823F000BFAD
:10572000455700084D570008555700086B570008AB
:105730005B5700086B5700086B5700086B57000851
:1057400063570008FDF70CFA786214E0FDF71EFAC3
:10575000786210E01A4B7B620DE0FDF793F97862F6
:1057600009E04FF400437B6205E000237B620123E4
:1057700087F82A3000BF7B6A002B28D07B695B6AE0
:10578000104A32F813301A467B6AB3FBF2F27B6997
:105790005B685B081A447B695B68B2FBF3F33B62AE
:1057A0003B6A0F2B10D93B6AB3F5803F0CD23B6AA2
:1057B0009AB27B691B68DA6009E000BF0080004094
:1057C0000024F400CCCD0008012387F82A307B693F
:1057D0000122A3F86A207B690122A3F868207B6973
:1057E00000225A677B6900229A6797F82A30184688
:1057F0003037BD46BDE8B08F80B483B000AF78606D
:105800007B689B6A03F00803002B0AD07B681B6847
:105810005B6823F400417B689A6B7B681B680A43D2
:105820005A607B689B6A03F00103002B0AD07B68F7
:105830001B685B6823F400317B68DA6A7B681B684D
:105840000A435A607B689B6A03F00203002B0AD06C
:105850007B681B685B6823F480317B681A6B7B680C
:105860001B680A435A607B689B6A03F00403002BA1
:105870000AD07B681B685B6823F480217B685A6BC5
:105880007B681B680A435A607B689B6A03F01003BD
:10589000002B0AD07B681B689B6823F480517B68CF
:1058A000DA6B7B681B680A439A607B689B6A03F02B
:1058B0002003002B0AD07B681B689B6823F40051EF
:1058C0007B681A6C7B681B680A439A607B689B6ADA
:1058D00003F04003002B1AD07B681B685B6823F43D
:1058E00080117B685A6C7B681B680A435A607B682E
:1058F0005B6CB3F5801F0AD17B681B685B6823F47F
:10590000C0017B689A6C7B681B680A435A607B689D
:105910009B6A03F08003002B0AD07B681B685B68DE
:1059200023F400217B68DA6C7B681B680A435A60A9
:1059300000BF0C37BD465DF8047B704780B598B05A
:1059400002AF78607B680022C3F89020FCF740FC2F
:1059500078657B681B681B6803F00803082B2FD150
:105960006FF07E4300937B6D00224FF40011786846
:1059700000F08EF80346002B22D07B681B68BB63C7
:10598000BB6B53E8003F7B637B6B23F080033B657D
:105990007B681B681A463B6D7B643A64396C7A6C91
:1059A00041E80023FB63FB6B002BE6D17B682022E0
:1059B000C3F888207B68002283F88420032363E0F7
:1059C0007B681B681B6803F00403042B49D16FF04C
:1059D0007E4300937B6D00224FF48001786800F0D5
:1059E00057F80346002B3CD07B681B687B627B6AC0
:1059F00053E8003F3B623B6A23F49073FB647B688F
:105A00001B681A46FB6C3B63FA62F96A3A6B41E821
:105A10000023BB62BB6A002BE6D17B681B6808339E
:105A20003B613B6953E8003FFB60FB6823F00103E7
:105A3000BB647B681B680833BA6CFA61BB61B969E7
:105A4000FA6941E800237B617B69002BE5D17B6823
:105A50002022C3F88C207B68002283F88420032353
:105A600012E07B682022C3F888207B682022C3F8DC
:105A70008C207B680022DA667B6800221A677B68CC
:105A8000002283F88420002318465837BD4680BD85
:105A900080B584B000AFF860B9603B601346FB711D
:105AA0004FE0BB69B3F1FF3F4BD0FCF791FB0246DF
:105AB0003B68D31ABA699A4202D3BB69002B01D161
:105AC00003234EE0FB681B681B6803F00403002BF4
:105AD00037D0BB68802B34D0BB68402B31D0FB68FB
